{
  "_format": "hh-sol-artifact-1",
  "contractName": "MetaTravelers",
  "sourceName": "contracts/MetaTravelers.sol",
  "abi": [
    {
      "inputs": [
        {
          "internalType": "string",
          "name": "name",
          "type": "string"
        },
        {
          "internalType": "string",
          "name": "symbol",
          "type": "string"
        },
        {
          "internalType": "string",
          "name": "baseTokenURI",
          "type": "string"
        },
        {
          "internalType": "address",
          "name": "vrfCoordinator",
          "type": "address"
        },
        {
          "internalType": "address",
          "name": "linkToken",
          "type": "address"
        },
        {
          "internalType": "bytes32",
          "name": "keyHash",
          "type": "bytes32"
        },
        {
          "internalType": "uint256",
          "name": "fee",
          "type": "uint256"
        }
      ],
      "stateMutability": "nonpayable",
      "type": "constructor"
    },
    {
      "anonymous": false,
      "inputs": [
        {
          "indexed": true,
          "internalType": "address",
          "name": "owner",
          "type": "address"
        },
        {
          "indexed": true,
          "internalType": "address",
          "name": "approved",
          "type": "address"
        },
        {
          "indexed": true,
          "internalType": "uint256",
          "name": "tokenId",
          "type": "uint256"
        }
      ],
      "name": "Approval",
      "type": "event"
    },
    {
      "anonymous": false,
      "inputs": [
        {
          "indexed": true,
          "internalType": "address",
          "name": "owner",
          "type": "address"
        },
        {
          "indexed": true,
          "internalType": "address",
          "name": "operator",
          "type": "address"
        },
        {
          "indexed": false,
          "internalType": "bool",
          "name": "approved",
          "type": "bool"
        }
      ],
      "name": "ApprovalForAll",
      "type": "event"
    },
    {
      "anonymous": false,
      "inputs": [
        {
          "indexed": false,
          "internalType": "address",
          "name": "owner",
          "type": "address"
        },
        {
          "indexed": false,
          "internalType": "uint256",
          "name": "quantity",
          "type": "uint256"
        }
      ],
      "name": "AssetsMinted",
      "type": "event"
    },
    {
      "anonymous": false,
      "inputs": [
        {
          "indexed": true,
          "internalType": "address",
          "name": "previousOwner",
          "type": "address"
        },
        {
          "indexed": true,
          "internalType": "address",
          "name": "newOwner",
          "type": "address"
        }
      ],
      "name": "OwnershipTransferred",
      "type": "event"
    },
    {
      "anonymous": false,
      "inputs": [
        {
          "indexed": false,
          "internalType": "address",
          "name": "account",
          "type": "address"
        }
      ],
      "name": "Paused",
      "type": "event"
    },
    {
      "anonymous": false,
      "inputs": [
        {
          "indexed": false,
          "internalType": "bytes32",
          "name": "requestId",
          "type": "bytes32"
        }
      ],
      "name": "RequestedRandomness",
      "type": "event"
    },
    {
      "anonymous": false,
      "inputs": [
        {
          "indexed": false,
          "internalType": "bytes32",
          "name": "requestId",
          "type": "bytes32"
        },
        {
          "indexed": false,
          "internalType": "uint256",
          "name": "randomNumber",
          "type": "uint256"
        }
      ],
      "name": "StartingIndexSet",
      "type": "event"
    },
    {
      "anonymous": false,
      "inputs": [
        {
          "indexed": true,
          "internalType": "address",
          "name": "from",
          "type": "address"
        },
        {
          "indexed": true,
          "internalType": "address",
          "name": "to",
          "type": "address"
        },
        {
          "indexed": true,
          "internalType": "uint256",
          "name": "tokenId",
          "type": "uint256"
        }
      ],
      "name": "Transfer",
      "type": "event"
    },
    {
      "anonymous": false,
      "inputs": [
        {
          "indexed": false,
          "internalType": "address",
          "name": "account",
          "type": "address"
        }
      ],
      "name": "Unpaused",
      "type": "event"
    },
    {
      "inputs": [],
      "name": "MAX_QUANTITY",
      "outputs": [
        {
          "internalType": "uint256",
          "name": "",
          "type": "uint256"
        }
      ],
      "stateMutability": "view",
      "type": "function"
    },
    {
      "inputs": [],
      "name": "MAX_RESERVE",
      "outputs": [
        {
          "internalType": "uint256",
          "name": "",
          "type": "uint256"
        }
      ],
      "stateMutability": "view",
      "type": "function"
    },
    {
      "inputs": [],
      "name": "MAX_SUPPLY",
      "outputs": [
        {
          "internalType": "uint256",
          "name": "",
          "type": "uint256"
        }
      ],
      "stateMutability": "view",
      "type": "function"
    },
    {
      "inputs": [],
      "name": "PRICE",
      "outputs": [
        {
          "internalType": "uint256",
          "name": "",
          "type": "uint256"
        }
      ],
      "stateMutability": "view",
      "type": "function"
    },
    {
      "inputs": [
        {
          "internalType": "address",
          "name": "to",
          "type": "address"
        },
        {
          "internalType": "uint256",
          "name": "tokenId",
          "type": "uint256"
        }
      ],
      "name": "approve",
      "outputs": [],
      "stateMutability": "nonpayable",
      "type": "function"
    },
    {
      "inputs": [
        {
          "internalType": "address",
          "name": "owner",
          "type": "address"
        }
      ],
      "name": "balanceOf",
      "outputs": [
        {
          "internalType": "uint256",
          "name": "",
          "type": "uint256"
        }
      ],
      "stateMutability": "view",
      "type": "function"
    },
    {
      "inputs": [
        {
          "internalType": "uint256",
          "name": "tokenId",
          "type": "uint256"
        }
      ],
      "name": "burn",
      "outputs": [],
      "stateMutability": "nonpayable",
      "type": "function"
    },
    {
      "inputs": [
        {
          "internalType": "uint256",
          "name": "tokenId",
          "type": "uint256"
        }
      ],
      "name": "getApproved",
      "outputs": [
        {
          "internalType": "address",
          "name": "",
          "type": "address"
        }
      ],
      "stateMutability": "view",
      "type": "function"
    },
    {
      "inputs": [
        {
          "internalType": "address",
          "name": "owner",
          "type": "address"
        },
        {
          "internalType": "address",
          "name": "operator",
          "type": "address"
        }
      ],
      "name": "isApprovedForAll",
      "outputs": [
        {
          "internalType": "bool",
          "name": "",
          "type": "bool"
        }
      ],
      "stateMutability": "view",
      "type": "function"
    },
    {
      "inputs": [],
      "name": "name",
      "outputs": [
        {
          "internalType": "string",
          "name": "",
          "type": "string"
        }
      ],
      "stateMutability": "view",
      "type": "function"
    },
    {
      "inputs": [],
      "name": "owner",
      "outputs": [
        {
          "internalType": "address",
          "name": "",
          "type": "address"
        }
      ],
      "stateMutability": "view",
      "type": "function"
    },
    {
      "inputs": [
        {
          "internalType": "uint256",
          "name": "tokenId",
          "type": "uint256"
        }
      ],
      "name": "ownerOf",
      "outputs": [
        {
          "internalType": "address",
          "name": "",
          "type": "address"
        }
      ],
      "stateMutability": "view",
      "type": "function"
    },
    {
      "inputs": [],
      "name": "pause",
      "outputs": [],
      "stateMutability": "nonpayable",
      "type": "function"
    },
    {
      "inputs": [],
      "name": "paused",
      "outputs": [
        {
          "internalType": "bool",
          "name": "",
          "type": "bool"
        }
      ],
      "stateMutability": "view",
      "type": "function"
    },
    {
      "inputs": [],
      "name": "provenanceHash",
      "outputs": [
        {
          "internalType": "string",
          "name": "",
          "type": "string"
        }
      ],
      "stateMutability": "view",
      "type": "function"
    },
    {
      "inputs": [
        {
          "internalType": "address",
          "name": "to",
          "type": "address"
        },
        {
          "internalType": "uint256",
          "name": "quantity",
          "type": "uint256"
        }
      ],
      "name": "publicMint",
      "outputs": [],
      "stateMutability": "payable",
      "type": "function"
    },
    {
      "inputs": [
        {
          "internalType": "bytes32",
          "name": "requestId",
          "type": "bytes32"
        },
        {
          "internalType": "uint256",
          "name": "randomness",
          "type": "uint256"
        }
      ],
      "name": "rawFulfillRandomness",
      "outputs": [],
      "stateMutability": "nonpayable",
      "type": "function"
    },
    {
      "inputs": [],
      "name": "renounceOwnership",
      "outputs": [],
      "stateMutability": "nonpayable",
      "type": "function"
    },
    {
      "inputs": [],
      "name": "reserveMetaTravelers",
      "outputs": [],
      "stateMutability": "nonpayable",
      "type": "function"
    },
    {
      "inputs": [
        {
          "internalType": "address",
          "name": "from",
          "type": "address"
        },
        {
          "internalType": "address",
          "name": "to",
          "type": "address"
        },
        {
          "internalType": "uint256",
          "name": "tokenId",
          "type": "uint256"
        }
      ],
      "name": "safeTransferFrom",
      "outputs": [],
      "stateMutability": "nonpayable",
      "type": "function"
    },
    {
      "inputs": [
        {
          "internalType": "address",
          "name": "from",
          "type": "address"
        },
        {
          "internalType": "address",
          "name": "to",
          "type": "address"
        },
        {
          "internalType": "uint256",
          "name": "tokenId",
          "type": "uint256"
        },
        {
          "internalType": "bytes",
          "name": "_data",
          "type": "bytes"
        }
      ],
      "name": "safeTransferFrom",
      "outputs": [],
      "stateMutability": "nonpayable",
      "type": "function"
    },
    {
      "inputs": [
        {
          "internalType": "address",
          "name": "operator",
          "type": "address"
        },
        {
          "internalType": "bool",
          "name": "approved",
          "type": "bool"
        }
      ],
      "name": "setApprovalForAll",
      "outputs": [],
      "stateMutability": "nonpayable",
      "type": "function"
    },
    {
      "inputs": [
        {
          "internalType": "string",
          "name": "baseTokenURI",
          "type": "string"
        }
      ],
      "name": "setBaseTokenURI",
      "outputs": [],
      "stateMutability": "nonpayable",
      "type": "function"
    },
    {
      "inputs": [
        {
          "internalType": "string",
          "name": "newProvenanceHash",
          "type": "string"
        }
      ],
      "name": "setProvenanceHash",
      "outputs": [],
      "stateMutability": "nonpayable",
      "type": "function"
    },
    {
      "inputs": [],
      "name": "setStartingIndex",
      "outputs": [
        {
          "internalType": "bytes32",
          "name": "",
          "type": "bytes32"
        }
      ],
      "stateMutability": "nonpayable",
      "type": "function"
    },
    {
      "inputs": [],
      "name": "startingIndex",
      "outputs": [
        {
          "internalType": "uint256",
          "name": "",
          "type": "uint256"
        }
      ],
      "stateMutability": "view",
      "type": "function"
    },
    {
      "inputs": [
        {
          "internalType": "bytes4",
          "name": "interfaceId",
          "type": "bytes4"
        }
      ],
      "name": "supportsInterface",
      "outputs": [
        {
          "internalType": "bool",
          "name": "",
          "type": "bool"
        }
      ],
      "stateMutability": "view",
      "type": "function"
    },
    {
      "inputs": [],
      "name": "symbol",
      "outputs": [
        {
          "internalType": "string",
          "name": "",
          "type": "string"
        }
      ],
      "stateMutability": "view",
      "type": "function"
    },
    {
      "inputs": [
        {
          "internalType": "uint256",
          "name": "index",
          "type": "uint256"
        }
      ],
      "name": "tokenByIndex",
      "outputs": [
        {
          "internalType": "uint256",
          "name": "",
          "type": "uint256"
        }
      ],
      "stateMutability": "view",
      "type": "function"
    },
    {
      "inputs": [
        {
          "internalType": "address",
          "name": "owner",
          "type": "address"
        },
        {
          "internalType": "uint256",
          "name": "index",
          "type": "uint256"
        }
      ],
      "name": "tokenOfOwnerByIndex",
      "outputs": [
        {
          "internalType": "uint256",
          "name": "",
          "type": "uint256"
        }
      ],
      "stateMutability": "view",
      "type": "function"
    },
    {
      "inputs": [
        {
          "internalType": "uint256",
          "name": "tokenId",
          "type": "uint256"
        }
      ],
      "name": "tokenURI",
      "outputs": [
        {
          "internalType": "string",
          "name": "",
          "type": "string"
        }
      ],
      "stateMutability": "view",
      "type": "function"
    },
    {
      "inputs": [],
      "name": "totalSupply",
      "outputs": [
        {
          "internalType": "uint256",
          "name": "",
          "type": "uint256"
        }
      ],
      "stateMutability": "view",
      "type": "function"
    },
    {
      "inputs": [
        {
          "internalType": "address",
          "name": "from",
          "type": "address"
        },
        {
          "internalType": "address",
          "name": "to",
          "type": "address"
        },
        {
          "internalType": "uint256",
          "name": "tokenId",
          "type": "uint256"
        }
      ],
      "name": "transferFrom",
      "outputs": [],
      "stateMutability": "nonpayable",
      "type": "function"
    },
    {
      "inputs": [
        {
          "internalType": "address",
          "name": "newOwner",
          "type": "address"
        }
      ],
      "name": "transferOwnership",
      "outputs": [],
      "stateMutability": "nonpayable",
      "type": "function"
    },
    {
      "inputs": [],
      "name": "unpause",
      "outputs": [],
      "stateMutability": "nonpayable",
      "type": "function"
    },
    {
      "inputs": [],
      "name": "withdraw",
      "outputs": [],
      "stateMutability": "nonpayable",
      "type": "function"
    }
  ],
  "bytecode": "0x60e06040819052600060c08190526200001b91600d91620001dd565b503480156200002957600080fd5b5060405162002ee538038062002ee58339810160408190526200004c9162000357565b83838888816000908051906020019062000068929190620001dd565b5080516200007e906001906020840190620001dd565b5050600a805460ff19169055506001600160601b0319606092831b811660a052911b16608052620000b6620000b03390565b620000ed565b8451620000cb906010906020880190620001dd565b5060118290556012819055620000e06200013f565b5050505050505062000474565b600c80546001600160a01b038381166001600160a01b0319831681179093556040519116919082907f8be0079c531659141344cd1fd0a4f28419497f9722a3daafe3b4186f6b6457e090600090a35050565b600a5460ff16156200018a5760405162461bcd60e51b815260206004820152601060248201526f14185d5cd8589b194e881c185d5cd95960821b604482015260640160405180910390fd5b600a805460ff191660011790557f62e78cea01bee320cd4e420270b5ea74000d11b0c9f74754ebdbfc544b05a258620001c03390565b6040516001600160a01b03909116815260200160405180910390a1565b828054620001eb9062000421565b90600052602060002090601f0160209004810192826200020f57600085556200025a565b82601f106200022a57805160ff19168380011785556200025a565b828001600101855582156200025a579182015b828111156200025a5782518255916020019190600101906200023d565b50620002689291506200026c565b5090565b5b808211156200026857600081556001016200026d565b80516001600160a01b03811681146200029b57600080fd5b919050565b600082601f830112620002b257600080fd5b81516001600160401b0380821115620002cf57620002cf6200045e565b604051601f8301601f19908116603f01168101908282118183101715620002fa57620002fa6200045e565b816040528381526020925086838588010111156200031757600080fd5b600091505b838210156200033b57858201830151818301840152908201906200031c565b838211156200034d5760008385830101525b9695505050505050565b600080600080600080600060e0888a0312156200037357600080fd5b87516001600160401b03808211156200038b57600080fd5b620003998b838c01620002a0565b985060208a0151915080821115620003b057600080fd5b620003be8b838c01620002a0565b975060408a0151915080821115620003d557600080fd5b50620003e48a828b01620002a0565b955050620003f56060890162000283565b9350620004056080890162000283565b925060a0880151915060c0880151905092959891949750929550565b600181811c908216806200043657607f821691505b602082108114156200045857634e487b7160e01b600052602260045260246000fd5b50919050565b634e487b7160e01b600052604160045260246000fd5b60805160601c60a05160601c612a37620004ae60003960008181610d0d0152611c890152600081816112d80152611c5a0152612a376000f3fe60806040526004361061019f5760003560e01c806301ffc9a7146101a457806306fdde03146101d9578063081812fc146101fb578063095ea7b314610228578063109695231461024a57806318160ddd1461026a57806323b872dd146102895780632f745c59146102a957806330176e13146102c957806332cb6b0c146102e95780633ccfd60b146102ff5780633f4ba83a1461031457806342842e0e1461032957806342966c68146103495780634f6ccce7146103695780635c975abb146103895780636352211e146103a157806370a08231146103c1578063715018a6146103e15780637f6dcbf8146103f65780638456cb591461040b5780638d859f3e146104205780638da5cb5b1461043c57806394985ddd1461045157806395d89b4114610471578063a22cb46514610486578063b88d4fde146104a6578063c6ab67a3146104c6578063c87b56dd146104db578063cb774d47146104fb578063ce6df2b914610511578063e41ee46a14610524578063e985e9c514610539578063e986655014610559578063eff31e9e1461056e578063f2fde38b14610583575b600080fd5b3480156101b057600080fd5b506101c46101bf366004612518565b6105a3565b60405190151581526020015b60405180910390f35b3480156101e557600080fd5b506101ee6105b4565b6040516101d0919061274c565b34801561020757600080fd5b5061021b61021636600461259a565b610646565b6040516101d091906126bb565b34801561023457600080fd5b506102486102433660046124af565b6106d3565b005b34801561025657600080fd5b50610248610265366004612552565b6107e4565b34801561027657600080fd5b506008545b6040519081526020016101d0565b34801561029557600080fd5b506102486102a43660046123c1565b61082a565b3480156102b557600080fd5b5061027b6102c43660046124af565b61085c565b3480156102d557600080fd5b506102486102e4366004612552565b6108f2565b3480156102f557600080fd5b5061027b611e6181565b34801561030b57600080fd5b50610248610934565b34801561032057600080fd5b50610248610992565b34801561033557600080fd5b506102486103443660046123c1565b6109cb565b34801561035557600080fd5b5061024861036436600461259a565b6109e6565b34801561037557600080fd5b5061027b61038436600461259a565b610a60565b34801561039557600080fd5b50600a5460ff166101c4565b3480156103ad57600080fd5b5061021b6103bc36600461259a565b610af3565b3480156103cd57600080fd5b5061027b6103dc366004612373565b610b6a565b3480156103ed57600080fd5b50610248610bf1565b34801561040257600080fd5b50610248610c2a565b34801561041757600080fd5b50610248610cbc565b34801561042c57600080fd5b5061027b6701b4fbd92b5f800081565b34801561044857600080fd5b5061021b610cf3565b34801561045d57600080fd5b5061024861046c3660046124f6565b610d02565b34801561047d57600080fd5b506101ee610d84565b34801561049257600080fd5b506102486104a1366004612478565b610d93565b3480156104b257600080fd5b506102486104c13660046123fd565b610e54565b3480156104d257600080fd5b506101ee610e8c565b3480156104e757600080fd5b506101ee6104f636600461259a565b610f1a565b34801561050757600080fd5b5061027b600e5481565b61024861051f3660046124af565b610fe6565b34801561053057600080fd5b5061027b600381565b34801561054557600080fd5b506101c461055436600461238e565b611161565b34801561056557600080fd5b5061027b61118f565b34801561057a57600080fd5b5061027b602181565b34801561058f57600080fd5b5061024861059e366004612373565b6113ee565b60006105ae8261148b565b92915050565b6060600080546105c3906128c5565b80601f01602080910402602001604051908101604052809291908181526020018280546105ef906128c5565b801561063c5780601f106106115761010080835404028352916020019161063c565b820191906000526020600020905b81548152906001019060200180831161061f57829003601f168201915b5050505050905090565b6000610651826114b0565b6106b75760405162461bcd60e51b815260206004820152602c60248201527f4552433732313a20617070726f76656420717565727920666f72206e6f6e657860448201526b34b9ba32b73a103a37b5b2b760a11b60648201526084015b60405180910390fd5b506000908152600460205260409020546001600160a01b031690565b60006106de82610af3565b9050806001600160a01b0316836001600160a01b0316141561074c5760405162461bcd60e51b815260206004820152602160248201527f4552433732313a20617070726f76616c20746f2063757272656e74206f776e656044820152603960f91b60648201526084016106ae565b336001600160a01b038216148061076857506107688133611161565b6107d55760405162461bcd60e51b815260206004820152603860248201527f4552433732313a20617070726f76652063616c6c6572206973206e6f74206f776044820152771b995c881b9bdc88185c1c1c9bdd995908199bdc88185b1b60421b60648201526084016106ae565b6107df83836114cd565b505050565b336107ed610cf3565b6001600160a01b0316146108135760405162461bcd60e51b81526004016106ae906127b1565b805161082690600d906020840190612249565b5050565b610835335b8261153b565b6108515760405162461bcd60e51b81526004016106ae906127e6565b6107df838383611605565b600061086783610b6a565b82106108c95760405162461bcd60e51b815260206004820152602b60248201527f455243373231456e756d657261626c653a206f776e657220696e646578206f7560448201526a74206f6620626f756e647360a81b60648201526084016106ae565b506001600160a01b03919091166000908152600660209081526040808320938352929052205490565b336108fb610cf3565b6001600160a01b0316146109215760405162461bcd60e51b81526004016106ae906127b1565b8051610826906010906020840190612249565b3361093d610cf3565b6001600160a01b0316146109635760405162461bcd60e51b81526004016106ae906127b1565b6040514790339082156108fc029083906000818181858888f19350505050158015610826573d6000803e3d6000fd5b3361099b610cf3565b6001600160a01b0316146109c15760405162461bcd60e51b81526004016106ae906127b1565b6109c961179e565b565b6107df83838360405180602001604052806000815250610e54565b6109ef3361082f565b610a545760405162461bcd60e51b815260206004820152603060248201527f4552433732314275726e61626c653a2063616c6c6572206973206e6f74206f7760448201526f1b995c881b9bdc88185c1c1c9bdd995960821b60648201526084016106ae565b610a5d81611821565b50565b6000610a6b60085490565b8210610ace5760405162461bcd60e51b815260206004820152602c60248201527f455243373231456e756d657261626c653a20676c6f62616c20696e646578206f60448201526b7574206f6620626f756e647360a01b60648201526084016106ae565b60088281548110610ae157610ae1612971565b90600052602060002001549050919050565b6000818152600260205260408120546001600160a01b0316806105ae5760405162461bcd60e51b815260206004820152602960248201527f4552433732313a206f776e657220717565727920666f72206e6f6e657869737460448201526832b73a103a37b5b2b760b91b60648201526084016106ae565b60006001600160a01b038216610bd55760405162461bcd60e51b815260206004820152602a60248201527f4552433732313a2062616c616e636520717565727920666f7220746865207a65604482015269726f206164647265737360b01b60648201526084016106ae565b506001600160a01b031660009081526003602052604090205490565b33610bfa610cf3565b6001600160a01b031614610c205760405162461bcd60e51b81526004016106ae906127b1565b6109c960006118b6565b33610c33610cf3565b6001600160a01b031614610c595760405162461bcd60e51b81526004016106ae906127b1565b60005b6021811015610c9157610c7133600f54611908565b610c7f600f80546001019055565b80610c8981612900565b915050610c5c565b506000805160206129c2833981519152336021604051610cb292919061270c565b60405180910390a1565b33610cc5610cf3565b6001600160a01b031614610ceb5760405162461bcd60e51b81526004016106ae906127b1565b6109c9611922565b600c546001600160a01b031690565b336001600160a01b037f00000000000000000000000000000000000000000000000000000000000000001614610d7a5760405162461bcd60e51b815260206004820152601f60248201527f4f6e6c7920565246436f6f7264696e61746f722063616e2066756c66696c6c0060448201526064016106ae565b610826828261199d565b6060600180546105c3906128c5565b6001600160a01b038216331415610de85760405162461bcd60e51b815260206004820152601960248201527822a9219b99189d1030b8383937bb32903a379031b0b63632b960391b60448201526064016106ae565b3360008181526005602090815260408083206001600160a01b03871680855290835292819020805460ff191686151590811790915590519081529192917f17307eab39ab6107e8899845ad3d59bd9653f200f220920489ca2b5937696c31910160405180910390a35050565b610e5e338361153b565b610e7a5760405162461bcd60e51b81526004016106ae906127e6565b610e86848484846119fa565b50505050565b600d8054610e99906128c5565b80601f0160208091040260200160405190810160405280929190818152602001828054610ec5906128c5565b8015610f125780601f10610ee757610100808354040283529160200191610f12565b820191906000526020600020905b815481529060010190602001808311610ef557829003601f168201915b505050505081565b6060610f25826114b0565b610f8a5760405162461bcd60e51b815260206004820152603060248201527f4552433732314d657461646174613a2055524920717565727920666f72206e6f60448201526f3732bc34b9ba32b73a103a37b5b2b71760811b60648201526084016106ae565b600060108054610f99906128c5565b905011610fb557604051806020016040528060008152506105ae565b6010610fc083611a2d565b604051602001610fd1929190612614565b60405160208183030381529060405292915050565b611e6181610ff360085490565b610ffd9190612837565b11156110495760405162461bcd60e51b815260206004820152601b60248201527a50757263686173652065786365656473206d617820737570706c7960281b60448201526064016106ae565b60038111156110975760405162461bcd60e51b815260206004820152601a6024820152794f726465722065786365656473206d6178207175616e7469747960301b60448201526064016106ae565b6110a9816701b4fbd92b5f8000612863565b3410156110f85760405162461bcd60e51b815260206004820152601f60248201527f45746865722076616c75652073656e74206973206e6f7420636f72726563740060448201526064016106ae565b60005b818110156111355761111583611110600f5490565b611b2a565b611123600f80546001019055565b8061112d81612900565b9150506110fb565b506000805160206129c2833981519152828260405161115592919061270c565b60405180910390a15050565b6001600160a01b03918216600090815260056020908152604080832093909416825291909152205460ff1690565b600080600d805461119f906128c5565b80601f01602080910402602001604051908101604052809291908181526020018280546111cb906128c5565b80156112185780601f106111ed57610100808354040283529160200191611218565b820191906000526020600020905b8154815290600101906020018083116111fb57829003601f168201915b50505050509050600081511161126e5760405162461bcd60e51b815260206004820152601b60248201527a09ccacac840e8de40e6cae840e0e4deeccadcc2dcc6ca40d0c2e6d602b1b60448201526064016106ae565b600e54156112be5760405162461bcd60e51b815260206004820152601d60248201527f5374617274696e6720696e64657820697320616c72656164792073657400000060448201526064016106ae565b6012546040516370a0823160e01b81526001600160a01b037f000000000000000000000000000000000000000000000000000000000000000016906370a082319061130d9030906004016126bb565b60206040518083038186803b15801561132557600080fd5b505afa158015611339573d6000803e3d6000fd5b505050506040513d601f19601f8201168201806040525081019061135d91906125b3565b101561139d5760405162461bcd60e51b815260206004820152600f60248201526e4e6f7420656e6f756768204c494e4b60881b60448201526064016106ae565b60006113ad601154601254611c56565b90507fe5f5b44d72d4143c278eb745c4acc0695c4a5bc616be5beecf46abe29661780e816040516113e091815260200190565b60405180910390a192915050565b336113f7610cf3565b6001600160a01b03161461141d5760405162461bcd60e51b81526004016106ae906127b1565b6001600160a01b0381166114825760405162461bcd60e51b815260206004820152602660248201527f4f776e61626c653a206e6577206f776e657220697320746865207a65726f206160448201526564647265737360d01b60648201526084016106ae565b610a5d816118b6565b60006001600160e01b0319821663780e9d6360e01b14806105ae57506105ae82611de1565b6000908152600260205260409020546001600160a01b0316151590565b600081815260046020526040902080546001600160a01b0319166001600160a01b038416908117909155819061150282610af3565b6001600160a01b03167f8c5be1e5ebec7d5bd14f71427d1e84f3dd0314c0f7b2291e5b200ac8c7c3b92560405160405180910390a45050565b6000611546826114b0565b6115a75760405162461bcd60e51b815260206004820152602c60248201527f4552433732313a206f70657261746f7220717565727920666f72206e6f6e657860448201526b34b9ba32b73a103a37b5b2b760a11b60648201526084016106ae565b60006115b283610af3565b9050806001600160a01b0316846001600160a01b031614806115ed5750836001600160a01b03166115e284610646565b6001600160a01b0316145b806115fd57506115fd8185611161565b949350505050565b826001600160a01b031661161882610af3565b6001600160a01b0316146116805760405162461bcd60e51b815260206004820152602960248201527f4552433732313a207472616e73666572206f6620746f6b656e2074686174206960448201526839903737ba1037bbb760b91b60648201526084016106ae565b6001600160a01b0382166116e25760405162461bcd60e51b8152602060048201526024808201527f4552433732313a207472616e7366657220746f20746865207a65726f206164646044820152637265737360e01b60648201526084016106ae565b6116ed838383611e31565b6116f86000826114cd565b6001600160a01b0383166000908152600360205260408120805460019290611721908490612882565b90915550506001600160a01b038216600090815260036020526040812080546001929061174f908490612837565b909155505060008181526002602052604080822080546001600160a01b0319166001600160a01b0386811691821790925591518493918716916000805160206129e283398151915291a4505050565b600a5460ff166117e75760405162461bcd60e51b815260206004820152601460248201527314185d5cd8589b194e881b9bdd081c185d5cd95960621b60448201526064016106ae565b600a805460ff191690557f5db9ee0a495bf2e6ff9c91a7834c1ba4fdd244a5e8aa4e537bd38aeae4b073aa335b604051610cb291906126bb565b600061182c82610af3565b905061183a81600084611e31565b6118456000836114cd565b6001600160a01b038116600090815260036020526040812080546001929061186e908490612882565b909155505060008281526002602052604080822080546001600160a01b0319169055518391906001600160a01b038416906000805160206129e2833981519152908390a45050565b600c80546001600160a01b038381166001600160a01b0319831681179093556040519116919082907f8be0079c531659141344cd1fd0a4f28419497f9722a3daafe3b4186f6b6457e090600090a35050565b610826828260405180602001604052806000815250611e3c565b600a5460ff16156119685760405162461bcd60e51b815260206004820152601060248201526f14185d5cd8589b194e881c185d5cd95960821b60448201526064016106ae565b600a805460ff191660011790557f62e78cea01bee320cd4e420270b5ea74000d11b0c9f74754ebdbfc544b05a2586118143390565b6119a9611e618261291b565b600e8190556119c457600e546119c0906001611e6f565b600e555b60408051838152602081018390527fa0562a0d65ac91c22f0819742210c3d20adb1237260606aef60af9717484950d9101611155565b611a05848484611605565b611a1184848484611e82565b610e865760405162461bcd60e51b81526004016106ae9061275f565b606081611a515750506040805180820190915260018152600360fc1b602082015290565b8160005b8115611a7b5780611a6581612900565b9150611a749050600a8361284f565b9150611a55565b6000816001600160401b03811115611a9557611a95612987565b6040519080825280601f01601f191660200182016040528015611abf576020820181803683370190505b5090505b84156115fd57611ad4600183612882565b9150611ae1600a8661291b565b611aec906030612837565b60f81b818381518110611b0157611b01612971565b60200101906001600160f81b031916908160001a905350611b23600a8661284f565b9450611ac3565b6001600160a01b038216611b805760405162461bcd60e51b815260206004820181905260248201527f4552433732313a206d696e7420746f20746865207a65726f206164647265737360448201526064016106ae565b611b89816114b0565b15611bd55760405162461bcd60e51b815260206004820152601c60248201527b115490cdcc8c4e881d1bdad95b88185b1c9958591e481b5a5b9d195960221b60448201526064016106ae565b611be160008383611e31565b6001600160a01b0382166000908152600360205260408120805460019290611c0a908490612837565b909155505060008181526002602052604080822080546001600160a01b0319166001600160a01b03861690811790915590518392906000805160206129e2833981519152908290a45050565b60007f00000000000000000000000000000000000000000000000000000000000000006001600160a01b0316634000aea07f000000000000000000000000000000000000000000000000000000000000000084866000604051602001611cc6929190918252602082015260400190565b6040516020818303038152906040526040518463ffffffff1660e01b8152600401611cf393929190612725565b602060405180830381600087803b158015611d0d57600080fd5b505af1158015611d21573d6000803e3d6000fd5b505050506040513d601f19601f82011682018060405250810190611d4591906124d9565b506000838152600b6020818152604080842054815180840189905280830186905230606082015260808082018390528351808303909101815260a090910190925281519183019190912093879052919052611da1906001612837565b6000858152600b60205260409020556115fd8482604080516020808201949094528082019290925280518083038201815260609092019052805191012090565b60006001600160e01b031982166380ac58cd60e01b1480611e1257506001600160e01b03198216635b5e139f60e01b145b806105ae57506301ffc9a760e01b6001600160e01b03198316146105ae565b6107df838383611f8f565b611e468383611b2a565b611e536000848484611e82565b6107df5760405162461bcd60e51b81526004016106ae9061275f565b6000611e7b8284612837565b9392505050565b60006001600160a01b0384163b15611f8457604051630a85bd0160e11b81526001600160a01b0385169063150b7a0290611ec69033908990889088906004016126cf565b602060405180830381600087803b158015611ee057600080fd5b505af1925050508015611f10575060408051601f3d908101601f19168201909252611f0d91810190612535565b60015b611f6a573d808015611f3e576040519150601f19603f3d011682016040523d82523d6000602084013e611f43565b606091505b508051611f625760405162461bcd60e51b81526004016106ae9061275f565b805181602001fd5b6001600160e01b031916630a85bd0160e11b1490506115fd565b506001949350505050565b611f9a838383612001565b600a5460ff16156107df5760405162461bcd60e51b815260206004820152602b60248201527f4552433732315061757361626c653a20746f6b656e207472616e73666572207760448201526a1a1a5b19481c185d5cd95960aa1b60648201526084016106ae565b6001600160a01b03831661205c5761205781600880546000838152600960205260408120829055600182018355919091527ff3f7a9fe364faab93b216da50a3214154f22a0a2b415b23a84c8169e8b636ee30155565b61207f565b816001600160a01b0316836001600160a01b03161461207f5761207f83826120b9565b6001600160a01b038216612096576107df81612156565b826001600160a01b0316826001600160a01b0316146107df576107df8282612205565b600060016120c684610b6a565b6120d09190612882565b600083815260076020526040902054909150808214612123576001600160a01b03841660009081526006602090815260408083208584528252808320548484528184208190558352600790915290208190555b5060009182526007602090815260408084208490556001600160a01b039094168352600681528383209183525290812055565b60085460009061216890600190612882565b6000838152600960205260408120546008805493945090928490811061219057612190612971565b9060005260206000200154905080600883815481106121b1576121b1612971565b60009182526020808320909101929092558281526009909152604080822084905585825281205560088054806121e9576121e961295b565b6001900381819060005260206000200160009055905550505050565b600061221083610b6a565b6001600160a01b039093166000908152600660209081526040808320868452825280832085905593825260079052919091209190915550565b828054612255906128c5565b90600052602060002090601f01602090048101928261227757600085556122bd565b82601f1061229057805160ff19168380011785556122bd565b828001600101855582156122bd579182015b828111156122bd5782518255916020019190600101906122a2565b506122c99291506122cd565b5090565b5b808211156122c957600081556001016122ce565b60006001600160401b03808411156122fc576122fc612987565b604051601f8501601f19908116603f0116810190828211818310171561232457612324612987565b8160405280935085815286868601111561233d57600080fd5b858560208301376000602087830101525050509392505050565b80356001600160a01b038116811461236e57600080fd5b919050565b60006020828403121561238557600080fd5b611e7b82612357565b600080604083850312156123a157600080fd5b6123aa83612357565b91506123b860208401612357565b90509250929050565b6000806000606084860312156123d657600080fd5b6123df84612357565b92506123ed60208501612357565b9150604084013590509250925092565b6000806000806080858703121561241357600080fd5b61241c85612357565b935061242a60208601612357565b92506040850135915060608501356001600160401b0381111561244c57600080fd5b8501601f8101871361245d57600080fd5b61246c878235602084016122e2565b91505092959194509250565b6000806040838503121561248b57600080fd5b61249483612357565b915060208301356124a48161299d565b809150509250929050565b600080604083850312156124c257600080fd5b6124cb83612357565b946020939093013593505050565b6000602082840312156124eb57600080fd5b8151611e7b8161299d565b6000806040838503121561250957600080fd5b50508035926020909101359150565b60006020828403121561252a57600080fd5b8135611e7b816129ab565b60006020828403121561254757600080fd5b8151611e7b816129ab565b60006020828403121561256457600080fd5b81356001600160401b0381111561257a57600080fd5b8201601f8101841361258b57600080fd5b6115fd848235602084016122e2565b6000602082840312156125ac57600080fd5b5035919050565b6000602082840312156125c557600080fd5b5051919050565b600081518084526125e4816020860160208601612899565b601f01601f19169290920160200192915050565b6000815161260a818560208601612899565b9290920192915050565b600080845481600182811c91508083168061263057607f831692505b602080841082141561265057634e487b7160e01b86526022600452602486fd5b8180156126645760018114612675576126a2565b60ff198616895284890196506126a2565b60008b81526020902060005b8681101561269a5781548b820152908501908301612681565b505084890196505b5050505050506126b281856125f8565b95945050505050565b6001600160a01b0391909116815260200190565b6001600160a01b0385811682528416602082015260408101839052608060608201819052600090612702908301846125cc565b9695505050505050565b6001600160a01b03929092168252602082015260400190565b60018060a01b03841681528260208201526060604082015260006126b260608301846125cc565b602081526000611e7b60208301846125cc565b60208082526032908201527f4552433732313a207472616e7366657220746f206e6f6e20455243373231526560408201527131b2b4bb32b91034b6b83632b6b2b73a32b960711b606082015260800190565b6020808252818101527f4f776e61626c653a2063616c6c6572206973206e6f7420746865206f776e6572604082015260600190565b60208082526031908201527f4552433732313a207472616e736665722063616c6c6572206973206e6f74206f6040820152701ddb995c881b9bdc88185c1c1c9bdd9959607a1b606082015260800190565b6000821982111561284a5761284a61292f565b500190565b60008261285e5761285e612945565b500490565b600081600019048311821515161561287d5761287d61292f565b500290565b6000828210156128945761289461292f565b500390565b60005b838110156128b457818101518382015260200161289c565b83811115610e865750506000910152565b600181811c908216806128d957607f821691505b602082108114156128fa57634e487b7160e01b600052602260045260246000fd5b50919050565b60006000198214156129145761291461292f565b5060010190565b60008261292a5761292a612945565b500690565b634e487b7160e01b600052601160045260246000fd5b634e487b7160e01b600052601260045260246000fd5b634e487b7160e01b600052603160045260246000fd5b634e487b7160e01b600052603260045260246000fd5b634e487b7160e01b600052604160045260246000fd5b8015158114610a5d57600080fd5b6001600160e01b031981168114610a5d57600080fdfe48ab551616fa96d8766a4795180ef0312e24b226fc48f24d0bef6494b31d9df7ddf252ad1be2c89b69c2b068fc378daa952ba7f163c4a11628f55a4df523b3efa264697066735822122014240c3193ea0df064717bec43c69c28639dc81eaba20b5a2bf34f979ef96f3c64736f6c63430008070033",
  "linkReferences": {},
  "deployedLinkReferences": {}
}