{
  "_format": "hh-sol-artifact-1",
  "contractName": "MetaTravelers",
  "sourceName": "contracts/MetaTravelers.sol",
  "abi": [
    {
      "inputs": [
        {
          "internalType": "string",
          "name": "name",
          "type": "string"
        },
        {
          "internalType": "string",
          "name": "symbol",
          "type": "string"
        },
        {
          "internalType": "string",
          "name": "baseTokenURI",
          "type": "string"
        },
        {
          "internalType": "address",
          "name": "vrfCoordinator",
          "type": "address"
        },
        {
          "internalType": "address",
          "name": "linkToken",
          "type": "address"
        },
        {
          "internalType": "bytes32",
          "name": "keyHash",
          "type": "bytes32"
        },
        {
          "internalType": "uint256",
          "name": "fee",
          "type": "uint256"
        }
      ],
      "stateMutability": "nonpayable",
      "type": "constructor"
    },
    {
      "anonymous": false,
      "inputs": [
        {
          "indexed": true,
          "internalType": "address",
          "name": "owner",
          "type": "address"
        },
        {
          "indexed": true,
          "internalType": "address",
          "name": "approved",
          "type": "address"
        },
        {
          "indexed": true,
          "internalType": "uint256",
          "name": "tokenId",
          "type": "uint256"
        }
      ],
      "name": "Approval",
      "type": "event"
    },
    {
      "anonymous": false,
      "inputs": [
        {
          "indexed": true,
          "internalType": "address",
          "name": "owner",
          "type": "address"
        },
        {
          "indexed": true,
          "internalType": "address",
          "name": "operator",
          "type": "address"
        },
        {
          "indexed": false,
          "internalType": "bool",
          "name": "approved",
          "type": "bool"
        }
      ],
      "name": "ApprovalForAll",
      "type": "event"
    },
    {
      "anonymous": false,
      "inputs": [
        {
          "indexed": false,
          "internalType": "address",
          "name": "owner",
          "type": "address"
        },
        {
          "indexed": false,
          "internalType": "uint256",
          "name": "quantity",
          "type": "uint256"
        }
      ],
      "name": "AssetsMinted",
      "type": "event"
    },
    {
      "anonymous": false,
      "inputs": [
        {
          "indexed": true,
          "internalType": "address",
          "name": "previousOwner",
          "type": "address"
        },
        {
          "indexed": true,
          "internalType": "address",
          "name": "newOwner",
          "type": "address"
        }
      ],
      "name": "OwnershipTransferred",
      "type": "event"
    },
    {
      "anonymous": false,
      "inputs": [
        {
          "indexed": false,
          "internalType": "address",
          "name": "account",
          "type": "address"
        }
      ],
      "name": "Paused",
      "type": "event"
    },
    {
      "anonymous": false,
      "inputs": [
        {
          "indexed": false,
          "internalType": "bytes32",
          "name": "requestId",
          "type": "bytes32"
        }
      ],
      "name": "RequestedRandomness",
      "type": "event"
    },
    {
      "anonymous": false,
      "inputs": [
        {
          "indexed": false,
          "internalType": "bytes32",
          "name": "requestId",
          "type": "bytes32"
        },
        {
          "indexed": false,
          "internalType": "uint256",
          "name": "randomNumber",
          "type": "uint256"
        }
      ],
      "name": "StartingIndexSet",
      "type": "event"
    },
    {
      "anonymous": false,
      "inputs": [
        {
          "indexed": true,
          "internalType": "address",
          "name": "from",
          "type": "address"
        },
        {
          "indexed": true,
          "internalType": "address",
          "name": "to",
          "type": "address"
        },
        {
          "indexed": true,
          "internalType": "uint256",
          "name": "tokenId",
          "type": "uint256"
        }
      ],
      "name": "Transfer",
      "type": "event"
    },
    {
      "anonymous": false,
      "inputs": [
        {
          "indexed": false,
          "internalType": "address",
          "name": "account",
          "type": "address"
        }
      ],
      "name": "Unpaused",
      "type": "event"
    },
    {
      "inputs": [],
      "name": "MAX_EARLY_ADOPTER",
      "outputs": [
        {
          "internalType": "uint256",
          "name": "",
          "type": "uint256"
        }
      ],
      "stateMutability": "view",
      "type": "function"
    },
    {
      "inputs": [],
      "name": "MAX_MINTPASS",
      "outputs": [
        {
          "internalType": "uint256",
          "name": "",
          "type": "uint256"
        }
      ],
      "stateMutability": "view",
      "type": "function"
    },
    {
      "inputs": [],
      "name": "MAX_PRESALE",
      "outputs": [
        {
          "internalType": "uint256",
          "name": "",
          "type": "uint256"
        }
      ],
      "stateMutability": "view",
      "type": "function"
    },
    {
      "inputs": [],
      "name": "MAX_QUANTITY",
      "outputs": [
        {
          "internalType": "uint256",
          "name": "",
          "type": "uint256"
        }
      ],
      "stateMutability": "view",
      "type": "function"
    },
    {
      "inputs": [],
      "name": "MAX_RESERVE",
      "outputs": [
        {
          "internalType": "uint256",
          "name": "",
          "type": "uint256"
        }
      ],
      "stateMutability": "view",
      "type": "function"
    },
    {
      "inputs": [],
      "name": "MAX_SUPPLY",
      "outputs": [
        {
          "internalType": "uint256",
          "name": "",
          "type": "uint256"
        }
      ],
      "stateMutability": "view",
      "type": "function"
    },
    {
      "inputs": [],
      "name": "PRICE",
      "outputs": [
        {
          "internalType": "uint256",
          "name": "",
          "type": "uint256"
        }
      ],
      "stateMutability": "view",
      "type": "function"
    },
    {
      "inputs": [
        {
          "internalType": "address[]",
          "name": "addresses",
          "type": "address[]"
        }
      ],
      "name": "addToEarlyAdopterList",
      "outputs": [],
      "stateMutability": "nonpayable",
      "type": "function"
    },
    {
      "inputs": [
        {
          "internalType": "address[]",
          "name": "addresses",
          "type": "address[]"
        }
      ],
      "name": "addToPresaleList",
      "outputs": [],
      "stateMutability": "nonpayable",
      "type": "function"
    },
    {
      "inputs": [
        {
          "internalType": "address",
          "name": "to",
          "type": "address"
        },
        {
          "internalType": "uint256",
          "name": "tokenId",
          "type": "uint256"
        }
      ],
      "name": "approve",
      "outputs": [],
      "stateMutability": "nonpayable",
      "type": "function"
    },
    {
      "inputs": [
        {
          "internalType": "address",
          "name": "owner",
          "type": "address"
        }
      ],
      "name": "balanceOf",
      "outputs": [
        {
          "internalType": "uint256",
          "name": "",
          "type": "uint256"
        }
      ],
      "stateMutability": "view",
      "type": "function"
    },
    {
      "inputs": [
        {
          "internalType": "uint256",
          "name": "tokenId",
          "type": "uint256"
        }
      ],
      "name": "burn",
      "outputs": [],
      "stateMutability": "nonpayable",
      "type": "function"
    },
    {
      "inputs": [
        {
          "internalType": "address",
          "name": "to",
          "type": "address"
        },
        {
          "internalType": "uint256",
          "name": "quantity",
          "type": "uint256"
        }
      ],
      "name": "earlyAdopterMint",
      "outputs": [],
      "stateMutability": "payable",
      "type": "function"
    },
    {
      "inputs": [
        {
          "internalType": "uint256",
          "name": "tokenId",
          "type": "uint256"
        }
      ],
      "name": "getApproved",
      "outputs": [
        {
          "internalType": "address",
          "name": "",
          "type": "address"
        }
      ],
      "stateMutability": "view",
      "type": "function"
    },
    {
      "inputs": [
        {
          "internalType": "address",
          "name": "owner",
          "type": "address"
        },
        {
          "internalType": "address",
          "name": "operator",
          "type": "address"
        }
      ],
      "name": "isApprovedForAll",
      "outputs": [
        {
          "internalType": "bool",
          "name": "",
          "type": "bool"
        }
      ],
      "stateMutability": "view",
      "type": "function"
    },
    {
      "inputs": [],
      "name": "isEarlyAdopterSale",
      "outputs": [
        {
          "internalType": "bool",
          "name": "",
          "type": "bool"
        }
      ],
      "stateMutability": "view",
      "type": "function"
    },
    {
      "inputs": [],
      "name": "isMintpassSale",
      "outputs": [
        {
          "internalType": "bool",
          "name": "",
          "type": "bool"
        }
      ],
      "stateMutability": "view",
      "type": "function"
    },
    {
      "inputs": [],
      "name": "isPresale",
      "outputs": [
        {
          "internalType": "bool",
          "name": "",
          "type": "bool"
        }
      ],
      "stateMutability": "view",
      "type": "function"
    },
    {
      "inputs": [],
      "name": "isPublicSale",
      "outputs": [
        {
          "internalType": "bool",
          "name": "",
          "type": "bool"
        }
      ],
      "stateMutability": "view",
      "type": "function"
    },
    {
      "inputs": [],
      "name": "name",
      "outputs": [
        {
          "internalType": "string",
          "name": "",
          "type": "string"
        }
      ],
      "stateMutability": "view",
      "type": "function"
    },
    {
      "inputs": [],
      "name": "owner",
      "outputs": [
        {
          "internalType": "address",
          "name": "",
          "type": "address"
        }
      ],
      "stateMutability": "view",
      "type": "function"
    },
    {
      "inputs": [
        {
          "internalType": "uint256",
          "name": "tokenId",
          "type": "uint256"
        }
      ],
      "name": "ownerOf",
      "outputs": [
        {
          "internalType": "address",
          "name": "",
          "type": "address"
        }
      ],
      "stateMutability": "view",
      "type": "function"
    },
    {
      "inputs": [],
      "name": "pause",
      "outputs": [],
      "stateMutability": "nonpayable",
      "type": "function"
    },
    {
      "inputs": [],
      "name": "paused",
      "outputs": [
        {
          "internalType": "bool",
          "name": "",
          "type": "bool"
        }
      ],
      "stateMutability": "view",
      "type": "function"
    },
    {
      "inputs": [
        {
          "internalType": "address",
          "name": "to",
          "type": "address"
        },
        {
          "internalType": "uint256",
          "name": "quantity",
          "type": "uint256"
        }
      ],
      "name": "presaleMint",
      "outputs": [],
      "stateMutability": "payable",
      "type": "function"
    },
    {
      "inputs": [],
      "name": "provenanceHash",
      "outputs": [
        {
          "internalType": "string",
          "name": "",
          "type": "string"
        }
      ],
      "stateMutability": "view",
      "type": "function"
    },
    {
      "inputs": [
        {
          "internalType": "address",
          "name": "to",
          "type": "address"
        },
        {
          "internalType": "uint256",
          "name": "quantity",
          "type": "uint256"
        }
      ],
      "name": "publicSaleMint",
      "outputs": [],
      "stateMutability": "payable",
      "type": "function"
    },
    {
      "inputs": [
        {
          "internalType": "bytes32",
          "name": "requestId",
          "type": "bytes32"
        },
        {
          "internalType": "uint256",
          "name": "randomness",
          "type": "uint256"
        }
      ],
      "name": "rawFulfillRandomness",
      "outputs": [],
      "stateMutability": "nonpayable",
      "type": "function"
    },
    {
      "inputs": [],
      "name": "renounceOwnership",
      "outputs": [],
      "stateMutability": "nonpayable",
      "type": "function"
    },
    {
      "inputs": [],
      "name": "reserveMetaTravelers",
      "outputs": [],
      "stateMutability": "nonpayable",
      "type": "function"
    },
    {
      "inputs": [
        {
          "internalType": "address",
          "name": "from",
          "type": "address"
        },
        {
          "internalType": "address",
          "name": "to",
          "type": "address"
        },
        {
          "internalType": "uint256",
          "name": "tokenId",
          "type": "uint256"
        }
      ],
      "name": "safeTransferFrom",
      "outputs": [],
      "stateMutability": "nonpayable",
      "type": "function"
    },
    {
      "inputs": [
        {
          "internalType": "address",
          "name": "from",
          "type": "address"
        },
        {
          "internalType": "address",
          "name": "to",
          "type": "address"
        },
        {
          "internalType": "uint256",
          "name": "tokenId",
          "type": "uint256"
        },
        {
          "internalType": "bytes",
          "name": "_data",
          "type": "bytes"
        }
      ],
      "name": "safeTransferFrom",
      "outputs": [],
      "stateMutability": "nonpayable",
      "type": "function"
    },
    {
      "inputs": [
        {
          "internalType": "address",
          "name": "operator",
          "type": "address"
        },
        {
          "internalType": "bool",
          "name": "approved",
          "type": "bool"
        }
      ],
      "name": "setApprovalForAll",
      "outputs": [],
      "stateMutability": "nonpayable",
      "type": "function"
    },
    {
      "inputs": [
        {
          "internalType": "string",
          "name": "baseTokenURI",
          "type": "string"
        }
      ],
      "name": "setBaseTokenURI",
      "outputs": [],
      "stateMutability": "nonpayable",
      "type": "function"
    },
    {
      "inputs": [
        {
          "internalType": "string",
          "name": "newProvenanceHash",
          "type": "string"
        }
      ],
      "name": "setProvenanceHash",
      "outputs": [],
      "stateMutability": "nonpayable",
      "type": "function"
    },
    {
      "inputs": [],
      "name": "setStartingIndex",
      "outputs": [
        {
          "internalType": "bytes32",
          "name": "",
          "type": "bytes32"
        }
      ],
      "stateMutability": "nonpayable",
      "type": "function"
    },
    {
      "inputs": [],
      "name": "startingIndex",
      "outputs": [
        {
          "internalType": "uint256",
          "name": "",
          "type": "uint256"
        }
      ],
      "stateMutability": "view",
      "type": "function"
    },
    {
      "inputs": [
        {
          "internalType": "bytes4",
          "name": "interfaceId",
          "type": "bytes4"
        }
      ],
      "name": "supportsInterface",
      "outputs": [
        {
          "internalType": "bool",
          "name": "",
          "type": "bool"
        }
      ],
      "stateMutability": "view",
      "type": "function"
    },
    {
      "inputs": [],
      "name": "symbol",
      "outputs": [
        {
          "internalType": "string",
          "name": "",
          "type": "string"
        }
      ],
      "stateMutability": "view",
      "type": "function"
    },
    {
      "inputs": [
        {
          "internalType": "uint256",
          "name": "index",
          "type": "uint256"
        }
      ],
      "name": "tokenByIndex",
      "outputs": [
        {
          "internalType": "uint256",
          "name": "",
          "type": "uint256"
        }
      ],
      "stateMutability": "view",
      "type": "function"
    },
    {
      "inputs": [
        {
          "internalType": "address",
          "name": "owner",
          "type": "address"
        },
        {
          "internalType": "uint256",
          "name": "index",
          "type": "uint256"
        }
      ],
      "name": "tokenOfOwnerByIndex",
      "outputs": [
        {
          "internalType": "uint256",
          "name": "",
          "type": "uint256"
        }
      ],
      "stateMutability": "view",
      "type": "function"
    },
    {
      "inputs": [
        {
          "internalType": "uint256",
          "name": "tokenId",
          "type": "uint256"
        }
      ],
      "name": "tokenURI",
      "outputs": [
        {
          "internalType": "string",
          "name": "",
          "type": "string"
        }
      ],
      "stateMutability": "view",
      "type": "function"
    },
    {
      "inputs": [],
      "name": "totalSupply",
      "outputs": [
        {
          "internalType": "uint256",
          "name": "",
          "type": "uint256"
        }
      ],
      "stateMutability": "view",
      "type": "function"
    },
    {
      "inputs": [
        {
          "internalType": "address",
          "name": "from",
          "type": "address"
        },
        {
          "internalType": "address",
          "name": "to",
          "type": "address"
        },
        {
          "internalType": "uint256",
          "name": "tokenId",
          "type": "uint256"
        }
      ],
      "name": "transferFrom",
      "outputs": [],
      "stateMutability": "nonpayable",
      "type": "function"
    },
    {
      "inputs": [
        {
          "internalType": "address",
          "name": "newOwner",
          "type": "address"
        }
      ],
      "name": "transferOwnership",
      "outputs": [],
      "stateMutability": "nonpayable",
      "type": "function"
    },
    {
      "inputs": [],
      "name": "unpause",
      "outputs": [],
      "stateMutability": "nonpayable",
      "type": "function"
    },
    {
      "inputs": [],
      "name": "withdraw",
      "outputs": [],
      "stateMutability": "nonpayable",
      "type": "function"
    }
  ],
  "bytecode": "0x60c06040526013805463ffffffff191690553480156200001e57600080fd5b50604051620038353803806200383583398101604081905262000041916200034c565b8383888881600090805190602001906200005d929190620001d2565b50805162000073906001906020840190620001d2565b5050600a805460ff19169055506001600160601b0319606092831b811660a052911b16608052620000ab620000a53390565b620000e2565b8451620000c090600e906020880190620001d2565b5060168290556017819055620000d562000134565b5050505050505062000469565b600c80546001600160a01b038381166001600160a01b0319831681179093556040519116919082907f8be0079c531659141344cd1fd0a4f28419497f9722a3daafe3b4186f6b6457e090600090a35050565b600a5460ff16156200017f5760405162461bcd60e51b815260206004820152601060248201526f14185d5cd8589b194e881c185d5cd95960821b604482015260640160405180910390fd5b600a805460ff191660011790557f62e78cea01bee320cd4e420270b5ea74000d11b0c9f74754ebdbfc544b05a258620001b53390565b6040516001600160a01b03909116815260200160405180910390a1565b828054620001e09062000416565b90600052602060002090601f0160209004810192826200020457600085556200024f565b82601f106200021f57805160ff19168380011785556200024f565b828001600101855582156200024f579182015b828111156200024f57825182559160200191906001019062000232565b506200025d92915062000261565b5090565b5b808211156200025d576000815560010162000262565b80516001600160a01b03811681146200029057600080fd5b919050565b600082601f830112620002a757600080fd5b81516001600160401b0380821115620002c457620002c462000453565b604051601f8301601f19908116603f01168101908282118183101715620002ef57620002ef62000453565b816040528381526020925086838588010111156200030c57600080fd5b600091505b8382101562000330578582018301518183018401529082019062000311565b83821115620003425760008385830101525b9695505050505050565b600080600080600080600060e0888a0312156200036857600080fd5b87516001600160401b03808211156200038057600080fd5b6200038e8b838c0162000295565b985060208a0151915080821115620003a557600080fd5b620003b38b838c0162000295565b975060408a0151915080821115620003ca57600080fd5b50620003d98a828b0162000295565b955050620003ea6060890162000278565b9350620003fa6080890162000278565b925060a0880151915060c0880151905092959891949750929550565b600181811c908216806200042b57607f821691505b602082108114156200044d57634e487b7160e01b600052602260045260246000fd5b50919050565b634e487b7160e01b600052604160045260246000fd5b60805160601c60a05160601c613392620004a36000396000818161120a01526124ac0152600081816119a5015261247d01526133926000f3fe6080604052600436106102185760003560e01c806301ffc9a71461021d578063053012701461025257806306fdde031461026c578063081812fc1461028e578063095ea7b3146102bb578063103eb5d1146102dd57806310969523146102fd57806318160ddd1461031d57806323b872dd1461033c5780632f745c591461035c57806330176e131461037c57806332cb6b0c1461039c5780633ccfd60b146103b25780633f4ba83a146103c757806342842e0e146103dc57806342966c68146103fc5780634d4c4e991461041c5780634f6ccce71461043257806354bac24f146104525780635c975abb146104655780636352211e1461047d57806369dca4411461049d57806370a08231146104b3578063715018a6146104d35780637204a3c9146104e85780637f6dcbf8146105085780638456cb591461051d5780638d859f3e146105325780638da5cb5b1461054e57806394985ddd1461056357806395364a841461058357806395d89b41146105a25780639b6a6709146105b7578063a22cb465146105ca578063a5a865dc146105ea578063ac5ae11b1461060b578063b88d4fde1461061e578063c6ab67a31461063e578063c87b56dd14610653578063cb774d4714610673578063de7535dd14610689578063e41ee46a1461069f578063e985e9c5146106b4578063e9866550146106d4578063eff31e9e146106e9578063f2fde38b146106fe578063ff9ddf981461071e575b600080fd5b34801561022957600080fd5b5061023d610238366004612daf565b61073e565b60405190151581526020015b60405180910390f35b34801561025e57600080fd5b5060135461023d9060ff1681565b34801561027857600080fd5b5061028161074f565b6040516102499190612fe3565b34801561029a57600080fd5b506102ae6102a9366004612e31565b6107e1565b6040516102499190612f52565b3480156102c757600080fd5b506102db6102d6366004612cd2565b61086e565b005b3480156102e957600080fd5b5060135461023d9062010000900460ff1681565b34801561030957600080fd5b506102db610318366004612de9565b61097f565b34801561032957600080fd5b506008545b604051908152602001610249565b34801561034857600080fd5b506102db610357366004612be4565b6109c5565b34801561036857600080fd5b5061032e610377366004612cd2565b6109f7565b34801561038857600080fd5b506102db610397366004612de9565b610a8d565b3480156103a857600080fd5b5061032e611e6181565b3480156103be57600080fd5b506102db610acf565b3480156103d357600080fd5b506102db610b2d565b3480156103e857600080fd5b506102db6103f7366004612be4565b610b66565b34801561040857600080fd5b506102db610417366004612e31565b610b81565b34801561042857600080fd5b5061032e610a6881565b34801561043e57600080fd5b5061032e61044d366004612e31565b610bfb565b6102db610460366004612cd2565b610c8e565b34801561047157600080fd5b50600a5460ff1661023d565b34801561048957600080fd5b506102ae610498366004612e31565b610e9a565b3480156104a957600080fd5b5061032e6103e781565b3480156104bf57600080fd5b5061032e6104ce366004612b96565b610f11565b3480156104df57600080fd5b506102db610f98565b3480156104f457600080fd5b506102db610503366004612cfc565b610fd1565b34801561051457600080fd5b506102db611127565b34801561052957600080fd5b506102db6111b9565b34801561053e57600080fd5b5061032e6701b4fbd92b5f800081565b34801561055a57600080fd5b506102ae6111f0565b34801561056f57600080fd5b506102db61057e366004612d8d565b6111ff565b34801561058f57600080fd5b5060135461023d90610100900460ff1681565b3480156105ae57600080fd5b50610281611281565b6102db6105c5366004612cd2565b611290565b3480156105d657600080fd5b506102db6105e5366004612c9b565b61146e565b3480156105f657600080fd5b5060135461023d906301000000900460ff1681565b6102db610619366004612cd2565b61152f565b34801561062a57600080fd5b506102db610639366004612c20565b61169c565b34801561064a57600080fd5b506102816116d4565b34801561065f57600080fd5b5061028161066e366004612e31565b611762565b34801561067f57600080fd5b5061032e60155481565b34801561069557600080fd5b5061032e61138381565b3480156106ab57600080fd5b5061032e600381565b3480156106c057600080fd5b5061023d6106cf366004612bb1565b61182e565b3480156106e057600080fd5b5061032e61185c565b3480156106f557600080fd5b5061032e602181565b34801561070a57600080fd5b506102db610719366004612b96565b611abb565b34801561072a57600080fd5b506102db610739366004612cfc565b611b58565b600061074982611cae565b92915050565b60606000805461075e90613220565b80601f016020809104026020016040519081016040528092919081815260200182805461078a90613220565b80156107d75780601f106107ac576101008083540402835291602001916107d7565b820191906000526020600020905b8154815290600101906020018083116107ba57829003601f168201915b5050505050905090565b60006107ec82611cd3565b6108525760405162461bcd60e51b815260206004820152602c60248201527f4552433732313a20617070726f76656420717565727920666f72206e6f6e657860448201526b34b9ba32b73a103a37b5b2b760a11b60648201526084015b60405180910390fd5b506000908152600460205260409020546001600160a01b031690565b600061087982610e9a565b9050806001600160a01b0316836001600160a01b031614156108e75760405162461bcd60e51b815260206004820152602160248201527f4552433732313a20617070726f76616c20746f2063757272656e74206f776e656044820152603960f91b6064820152608401610849565b336001600160a01b03821614806109035750610903813361182e565b6109705760405162461bcd60e51b815260206004820152603860248201527f4552433732313a20617070726f76652063616c6c6572206973206e6f74206f776044820152771b995c881b9bdc88185c1c1c9bdd995908199bdc88185b1b60421b6064820152608401610849565b61097a8383611cf0565b505050565b336109886111f0565b6001600160a01b0316146109ae5760405162461bcd60e51b8152600401610849906130b2565b80516109c1906014906020840190612a6c565b5050565b6109d0335b82611d5e565b6109ec5760405162461bcd60e51b815260040161084990613118565b61097a838383611e28565b6000610a0283610f11565b8210610a645760405162461bcd60e51b815260206004820152602b60248201527f455243373231456e756d657261626c653a206f776e657220696e646578206f7560448201526a74206f6620626f756e647360a81b6064820152608401610849565b506001600160a01b03919091166000908152600660209081526040808320938352929052205490565b33610a966111f0565b6001600160a01b031614610abc5760405162461bcd60e51b8152600401610849906130b2565b80516109c190600e906020840190612a6c565b33610ad86111f0565b6001600160a01b031614610afe5760405162461bcd60e51b8152600401610849906130b2565b6040514790339082156108fc029083906000818181858888f193505050501580156109c1573d6000803e3d6000fd5b33610b366111f0565b6001600160a01b031614610b5c5760405162461bcd60e51b8152600401610849906130b2565b610b64611fc1565b565b61097a8383836040518060200160405280600081525061169c565b610b8a336109ca565b610bef5760405162461bcd60e51b815260206004820152603060248201527f4552433732314275726e61626c653a2063616c6c6572206973206e6f74206f7760448201526f1b995c881b9bdc88185c1c1c9bdd995960821b6064820152608401610849565b610bf881612044565b50565b6000610c0660085490565b8210610c695760405162461bcd60e51b815260206004820152602c60248201527f455243373231456e756d657261626c653a20676c6f62616c20696e646578206f60448201526b7574206f6620626f756e647360a01b6064820152608401610849565b60088281548110610c7c57610c7c6132cc565b90600052602060002001549050919050565b60135460ff16610ce05760405162461bcd60e51b815260206004820152601e60248201527f4561726c792041646f707465722073616c65206973206e6f74206c69766500006044820152606401610849565b336000908152600f602052604090205460ff16610d3f5760405162461bcd60e51b815260206004820152601e60248201527f55736572206e6f74206f6e204561726c792041646f70746572206c69737400006044820152606401610849565b6103e781610d4c60085490565b610d569190613192565b1115610da45760405162461bcd60e51b815260206004820152601e60248201527f4561726c792041646f707465722073616c6520697320736f6c64206f757400006044820152606401610849565b33600090815260116020526040902054600390610dc2908390613192565b1115610de05760405162461bcd60e51b81526004016108499061307f565b610df2816701b4fbd92b5f80006131be565b341015610e115760405162461bcd60e51b815260040161084990613048565b60005b81811015610e6e57610e2a600d80546001019055565b336000908152601160205260408120805491610e458361325b565b9190505550610e5c83610e57600d5490565b6120d9565b80610e668161325b565b915050610e14565b5060008051602061331d8339815191528282604051610e8e929190612fa3565b60405180910390a15050565b6000818152600260205260408120546001600160a01b0316806107495760405162461bcd60e51b815260206004820152602960248201527f4552433732313a206f776e657220717565727920666f72206e6f6e657869737460448201526832b73a103a37b5b2b760b91b6064820152608401610849565b60006001600160a01b038216610f7c5760405162461bcd60e51b815260206004820152602a60248201527f4552433732313a2062616c616e636520717565727920666f7220746865207a65604482015269726f206164647265737360b01b6064820152608401610849565b506001600160a01b031660009081526003602052604090205490565b33610fa16111f0565b6001600160a01b031614610fc75760405162461bcd60e51b8152600401610849906130b2565b610b646000612205565b33610fda6111f0565b6001600160a01b0316146110005760405162461bcd60e51b8152600401610849906130b2565b60005b8181101561097a57600083838381811061101f5761101f6132cc565b90506020020160208101906110349190612b96565b6001600160a01b0316141561105b5760405162461bcd60e51b8152600401610849906130e7565b60106000848484818110611071576110716132cc565b90506020020160208101906110869190612b96565b6001600160a01b0316815260208101919091526040016000205460ff16156110c05760405162461bcd60e51b815260040161084990613169565b6001601060008585858181106110d8576110d86132cc565b90506020020160208101906110ed9190612b96565b6001600160a01b031681526020810191909152604001600020805460ff19169115159190911790558061111f8161325b565b915050611003565b336111306111f0565b6001600160a01b0316146111565760405162461bcd60e51b8152600401610849906130b2565b60005b602181101561118e5761116e33600d54612257565b61117c600d80546001019055565b806111868161325b565b915050611159565b5060008051602061331d8339815191523360216040516111af929190612fa3565b60405180910390a1565b336111c26111f0565b6001600160a01b0316146111e85760405162461bcd60e51b8152600401610849906130b2565b610b64612271565b600c546001600160a01b031690565b336001600160a01b037f000000000000000000000000000000000000000000000000000000000000000016146112775760405162461bcd60e51b815260206004820152601f60248201527f4f6e6c7920565246436f6f7264696e61746f722063616e2066756c66696c6c006044820152606401610849565b6109c182826122ec565b60606001805461075e90613220565b601354610100900460ff166112dd5760405162461bcd60e51b815260206004820152601360248201527250726573616c65206973206e6f74206c69766560681b6044820152606401610849565b3360009081526010602052604090205460ff166113375760405162461bcd60e51b8152602060048201526018602482015277155cd95c881b9bdd081bdb88141c995cd85b19481b1a5cdd60421b6044820152606401610849565b610a688161134460085490565b61134e9190613192565b11156113925760405162461bcd60e51b8152602060048201526013602482015272141c995cd85b19481a5cc81cdbdb19081bdd5d606a1b6044820152606401610849565b3360009081526012602090815260408083205460119092529091205460039183916113bd9190613192565b6113c79190613192565b11156113e55760405162461bcd60e51b81526004016108499061307f565b6113f7816701b4fbd92b5f80006131be565b3410156114165760405162461bcd60e51b815260040161084990613048565b60005b81811015610e6e5761142f600d80546001019055565b33600090815260126020526040812080549161144a8361325b565b919050555061145c83610e57600d5490565b806114668161325b565b915050611419565b6001600160a01b0382163314156114c35760405162461bcd60e51b815260206004820152601960248201527822a9219b99189d1030b8383937bb32903a379031b0b63632b960391b6044820152606401610849565b3360008181526005602090815260408083206001600160a01b03871680855290835292819020805460ff191686151590811790915590519081529192917f17307eab39ab6107e8899845ad3d59bd9653f200f220920489ca2b5937696c31910160405180910390a35050565b6013546301000000900460ff166115825760405162461bcd60e51b81526020600482015260176024820152765075626c69632073616c65206973206e6f74206c69766560481b6044820152606401610849565b611e618161158f60085490565b6115999190613192565b11156115e55760405162461bcd60e51b815260206004820152601b60248201527a50757263686173652065786365656473206d617820737570706c7960281b6044820152606401610849565b60038111156116335760405162461bcd60e51b815260206004820152601a6024820152794f726465722065786365656473206d6178207175616e7469747960301b6044820152606401610849565b611645816701b4fbd92b5f80006131be565b3410156116645760405162461bcd60e51b815260040161084990613048565b60005b81811015610e6e5761167c83610e57600d5490565b61168a600d80546001019055565b806116948161325b565b915050611667565b6116a63383611d5e565b6116c25760405162461bcd60e51b815260040161084990613118565b6116ce84848484612349565b50505050565b601480546116e190613220565b80601f016020809104026020016040519081016040528092919081815260200182805461170d90613220565b801561175a5780601f1061172f5761010080835404028352916020019161175a565b820191906000526020600020905b81548152906001019060200180831161173d57829003601f168201915b505050505081565b606061176d82611cd3565b6117d25760405162461bcd60e51b815260206004820152603060248201527f4552433732314d657461646174613a2055524920717565727920666f72206e6f60448201526f3732bc34b9ba32b73a103a37b5b2b71760811b6064820152608401610849565b6000600e80546117e190613220565b9050116117fd5760405180602001604052806000815250610749565b600e6118088361237c565b604051602001611819929190612eab565b60405160208183030381529060405292915050565b6001600160a01b03918216600090815260056020908152604080832093909416825291909152205460ff1690565b6000806014805461186c90613220565b80601f016020809104026020016040519081016040528092919081815260200182805461189890613220565b80156118e55780601f106118ba576101008083540402835291602001916118e5565b820191906000526020600020905b8154815290600101906020018083116118c857829003601f168201915b50505050509050600081511161193b5760405162461bcd60e51b815260206004820152601b60248201527a09ccacac840e8de40e6cae840e0e4deeccadcc2dcc6ca40d0c2e6d602b1b6044820152606401610849565b6015541561198b5760405162461bcd60e51b815260206004820152601d60248201527f5374617274696e6720696e64657820697320616c7265616479207365740000006044820152606401610849565b6017546040516370a0823160e01b81526001600160a01b037f000000000000000000000000000000000000000000000000000000000000000016906370a08231906119da903090600401612f52565b60206040518083038186803b1580156119f257600080fd5b505afa158015611a06573d6000803e3d6000fd5b505050506040513d601f19601f82011682018060405250810190611a2a9190612e4a565b1015611a6a5760405162461bcd60e51b815260206004820152600f60248201526e4e6f7420656e6f756768204c494e4b60881b6044820152606401610849565b6000611a7a601654601754612479565b90507fe5f5b44d72d4143c278eb745c4acc0695c4a5bc616be5beecf46abe29661780e81604051611aad91815260200190565b60405180910390a192915050565b33611ac46111f0565b6001600160a01b031614611aea5760405162461bcd60e51b8152600401610849906130b2565b6001600160a01b038116611b4f5760405162461bcd60e51b815260206004820152602660248201527f4f776e61626c653a206e6577206f776e657220697320746865207a65726f206160448201526564647265737360d01b6064820152608401610849565b610bf881612205565b33611b616111f0565b6001600160a01b031614611b875760405162461bcd60e51b8152600401610849906130b2565b60005b8181101561097a576000838383818110611ba657611ba66132cc565b9050602002016020810190611bbb9190612b96565b6001600160a01b03161415611be25760405162461bcd60e51b8152600401610849906130e7565b600f6000848484818110611bf857611bf86132cc565b9050602002016020810190611c0d9190612b96565b6001600160a01b0316815260208101919091526040016000205460ff1615611c475760405162461bcd60e51b815260040161084990613169565b6001600f6000858585818110611c5f57611c5f6132cc565b9050602002016020810190611c749190612b96565b6001600160a01b031681526020810191909152604001600020805460ff191691151591909117905580611ca68161325b565b915050611b8a565b60006001600160e01b0319821663780e9d6360e01b1480610749575061074982612604565b6000908152600260205260409020546001600160a01b0316151590565b600081815260046020526040902080546001600160a01b0319166001600160a01b0384169081179091558190611d2582610e9a565b6001600160a01b03167f8c5be1e5ebec7d5bd14f71427d1e84f3dd0314c0f7b2291e5b200ac8c7c3b92560405160405180910390a45050565b6000611d6982611cd3565b611dca5760405162461bcd60e51b815260206004820152602c60248201527f4552433732313a206f70657261746f7220717565727920666f72206e6f6e657860448201526b34b9ba32b73a103a37b5b2b760a11b6064820152608401610849565b6000611dd583610e9a565b9050806001600160a01b0316846001600160a01b03161480611e105750836001600160a01b0316611e05846107e1565b6001600160a01b0316145b80611e205750611e20818561182e565b949350505050565b826001600160a01b0316611e3b82610e9a565b6001600160a01b031614611ea35760405162461bcd60e51b815260206004820152602960248201527f4552433732313a207472616e73666572206f6620746f6b656e2074686174206960448201526839903737ba1037bbb760b91b6064820152608401610849565b6001600160a01b038216611f055760405162461bcd60e51b8152602060048201526024808201527f4552433732313a207472616e7366657220746f20746865207a65726f206164646044820152637265737360e01b6064820152608401610849565b611f10838383612654565b611f1b600082611cf0565b6001600160a01b0383166000908152600360205260408120805460019290611f449084906131dd565b90915550506001600160a01b0382166000908152600360205260408120805460019290611f72908490613192565b909155505060008181526002602052604080822080546001600160a01b0319166001600160a01b03868116918217909255915184939187169160008051602061333d83398151915291a4505050565b600a5460ff1661200a5760405162461bcd60e51b815260206004820152601460248201527314185d5cd8589b194e881b9bdd081c185d5cd95960621b6044820152606401610849565b600a805460ff191690557f5db9ee0a495bf2e6ff9c91a7834c1ba4fdd244a5e8aa4e537bd38aeae4b073aa335b6040516111af9190612f52565b600061204f82610e9a565b905061205d81600084612654565b612068600083611cf0565b6001600160a01b03811660009081526003602052604081208054600192906120919084906131dd565b909155505060008281526002602052604080822080546001600160a01b0319169055518391906001600160a01b0384169060008051602061333d833981519152908390a45050565b6001600160a01b03821661212f5760405162461bcd60e51b815260206004820181905260248201527f4552433732313a206d696e7420746f20746865207a65726f20616464726573736044820152606401610849565b61213881611cd3565b156121845760405162461bcd60e51b815260206004820152601c60248201527b115490cdcc8c4e881d1bdad95b88185b1c9958591e481b5a5b9d195960221b6044820152606401610849565b61219060008383612654565b6001600160a01b03821660009081526003602052604081208054600192906121b9908490613192565b909155505060008181526002602052604080822080546001600160a01b0319166001600160a01b038616908117909155905183929060008051602061333d833981519152908290a45050565b600c80546001600160a01b038381166001600160a01b0319831681179093556040519116919082907f8be0079c531659141344cd1fd0a4f28419497f9722a3daafe3b4186f6b6457e090600090a35050565b6109c182826040518060200160405280600081525061265f565b600a5460ff16156122b75760405162461bcd60e51b815260206004820152601060248201526f14185d5cd8589b194e881c185d5cd95960821b6044820152606401610849565b600a805460ff191660011790557f62e78cea01bee320cd4e420270b5ea74000d11b0c9f74754ebdbfc544b05a2586120373390565b6122f8611e6182613276565b60158190556123135760155461230f906001612692565b6015555b60408051838152602081018390527fa0562a0d65ac91c22f0819742210c3d20adb1237260606aef60af9717484950d9101610e8e565b612354848484611e28565b612360848484846126a5565b6116ce5760405162461bcd60e51b815260040161084990612ff6565b6060816123a05750506040805180820190915260018152600360fc1b602082015290565b8160005b81156123ca57806123b48161325b565b91506123c39050600a836131aa565b91506123a4565b6000816001600160401b038111156123e4576123e46132e2565b6040519080825280601f01601f19166020018201604052801561240e576020820181803683370190505b5090505b8415611e20576124236001836131dd565b9150612430600a86613276565b61243b906030613192565b60f81b818381518110612450576124506132cc565b60200101906001600160f81b031916908160001a905350612472600a866131aa565b9450612412565b60007f00000000000000000000000000000000000000000000000000000000000000006001600160a01b0316634000aea07f0000000000000000000000000000000000000000000000000000000000000000848660006040516020016124e9929190918252602082015260400190565b6040516020818303038152906040526040518463ffffffff1660e01b815260040161251693929190612fbc565b602060405180830381600087803b15801561253057600080fd5b505af1158015612544573d6000803e3d6000fd5b505050506040513d601f19601f820116820180604052508101906125689190612d70565b506000838152600b6020818152604080842054815180840189905280830186905230606082015260808082018390528351808303909101815260a0909101909252815191830191909120938790529190526125c4906001613192565b6000858152600b6020526040902055611e208482604080516020808201949094528082019290925280518083038201815260609092019052805191012090565b60006001600160e01b031982166380ac58cd60e01b148061263557506001600160e01b03198216635b5e139f60e01b145b8061074957506301ffc9a760e01b6001600160e01b0319831614610749565b61097a8383836127b2565b61266983836120d9565b61267660008484846126a5565b61097a5760405162461bcd60e51b815260040161084990612ff6565b600061269e8284613192565b9392505050565b60006001600160a01b0384163b156127a757604051630a85bd0160e11b81526001600160a01b0385169063150b7a02906126e9903390899088908890600401612f66565b602060405180830381600087803b15801561270357600080fd5b505af1925050508015612733575060408051601f3d908101601f1916820190925261273091810190612dcc565b60015b61278d573d808015612761576040519150601f19603f3d011682016040523d82523d6000602084013e612766565b606091505b5080516127855760405162461bcd60e51b815260040161084990612ff6565b805181602001fd5b6001600160e01b031916630a85bd0160e11b149050611e20565b506001949350505050565b6127bd838383612824565b600a5460ff161561097a5760405162461bcd60e51b815260206004820152602b60248201527f4552433732315061757361626c653a20746f6b656e207472616e73666572207760448201526a1a1a5b19481c185d5cd95960aa1b6064820152608401610849565b6001600160a01b03831661287f5761287a81600880546000838152600960205260408120829055600182018355919091527ff3f7a9fe364faab93b216da50a3214154f22a0a2b415b23a84c8169e8b636ee30155565b6128a2565b816001600160a01b0316836001600160a01b0316146128a2576128a283826128dc565b6001600160a01b0382166128b95761097a81612979565b826001600160a01b0316826001600160a01b03161461097a5761097a8282612a28565b600060016128e984610f11565b6128f391906131dd565b600083815260076020526040902054909150808214612946576001600160a01b03841660009081526006602090815260408083208584528252808320548484528184208190558352600790915290208190555b5060009182526007602090815260408084208490556001600160a01b039094168352600681528383209183525290812055565b60085460009061298b906001906131dd565b600083815260096020526040812054600880549394509092849081106129b3576129b36132cc565b9060005260206000200154905080600883815481106129d4576129d46132cc565b6000918252602080832090910192909255828152600990915260408082208490558582528120556008805480612a0c57612a0c6132b6565b6001900381819060005260206000200160009055905550505050565b6000612a3383610f11565b6001600160a01b039093166000908152600660209081526040808320868452825280832085905593825260079052919091209190915550565b828054612a7890613220565b90600052602060002090601f016020900481019282612a9a5760008555612ae0565b82601f10612ab357805160ff1916838001178555612ae0565b82800160010185558215612ae0579182015b82811115612ae0578251825591602001919060010190612ac5565b50612aec929150612af0565b5090565b5b80821115612aec5760008155600101612af1565b60006001600160401b0380841115612b1f57612b1f6132e2565b604051601f8501601f19908116603f01168101908282118183101715612b4757612b476132e2565b81604052809350858152868686011115612b6057600080fd5b858560208301376000602087830101525050509392505050565b80356001600160a01b0381168114612b9157600080fd5b919050565b600060208284031215612ba857600080fd5b61269e82612b7a565b60008060408385031215612bc457600080fd5b612bcd83612b7a565b9150612bdb60208401612b7a565b90509250929050565b600080600060608486031215612bf957600080fd5b612c0284612b7a565b9250612c1060208501612b7a565b9150604084013590509250925092565b60008060008060808587031215612c3657600080fd5b612c3f85612b7a565b9350612c4d60208601612b7a565b92506040850135915060608501356001600160401b03811115612c6f57600080fd5b8501601f81018713612c8057600080fd5b612c8f87823560208401612b05565b91505092959194509250565b60008060408385031215612cae57600080fd5b612cb783612b7a565b91506020830135612cc7816132f8565b809150509250929050565b60008060408385031215612ce557600080fd5b612cee83612b7a565b946020939093013593505050565b60008060208385031215612d0f57600080fd5b82356001600160401b0380821115612d2657600080fd5b818501915085601f830112612d3a57600080fd5b813581811115612d4957600080fd5b8660208260051b8501011115612d5e57600080fd5b60209290920196919550909350505050565b600060208284031215612d8257600080fd5b815161269e816132f8565b60008060408385031215612da057600080fd5b50508035926020909101359150565b600060208284031215612dc157600080fd5b813561269e81613306565b600060208284031215612dde57600080fd5b815161269e81613306565b600060208284031215612dfb57600080fd5b81356001600160401b03811115612e1157600080fd5b8201601f81018413612e2257600080fd5b611e2084823560208401612b05565b600060208284031215612e4357600080fd5b5035919050565b600060208284031215612e5c57600080fd5b5051919050565b60008151808452612e7b8160208601602086016131f4565b601f01601f19169290920160200192915050565b60008151612ea18185602086016131f4565b9290920192915050565b600080845481600182811c915080831680612ec757607f831692505b6020808410821415612ee757634e487b7160e01b86526022600452602486fd5b818015612efb5760018114612f0c57612f39565b60ff19861689528489019650612f39565b60008b81526020902060005b86811015612f315781548b820152908501908301612f18565b505084890196505b505050505050612f498185612e8f565b95945050505050565b6001600160a01b0391909116815260200190565b6001600160a01b0385811682528416602082015260408101839052608060608201819052600090612f9990830184612e63565b9695505050505050565b6001600160a01b03929092168252602082015260400190565b60018060a01b0384168152826020820152606060408201526000612f496060830184612e63565b60208152600061269e6020830184612e63565b60208082526032908201527f4552433732313a207472616e7366657220746f206e6f6e20455243373231526560408201527131b2b4bb32b91034b6b83632b6b2b73a32b960711b606082015260800190565b6020808252601f908201527f45746865722076616c75652073656e74206973206e6f7420636f727265637400604082015260600190565b602080825260199082015278131a5b5a5d081c195c881dd85b1b195d08195e18d959591959603a1b604082015260600190565b6020808252818101527f4f776e61626c653a2063616c6c6572206973206e6f7420746865206f776e6572604082015260600190565b60208082526017908201527643616e6e6f7420616464206e756c6c206164647265737360481b604082015260600190565b60208082526031908201527f4552433732313a207472616e736665722063616c6c6572206973206e6f74206f6040820152701ddb995c881b9bdc88185c1c1c9bdd9959607a1b606082015260800190565b6020808252600f908201526e4475706c696361746520656e74727960881b604082015260600190565b600082198211156131a5576131a561328a565b500190565b6000826131b9576131b96132a0565b500490565b60008160001904831182151516156131d8576131d861328a565b500290565b6000828210156131ef576131ef61328a565b500390565b60005b8381101561320f5781810151838201526020016131f7565b838111156116ce5750506000910152565b600181811c9082168061323457607f821691505b6020821081141561325557634e487b7160e01b600052602260045260246000fd5b50919050565b600060001982141561326f5761326f61328a565b5060010190565b600082613285576132856132a0565b500690565b634e487b7160e01b600052601160045260246000fd5b634e487b7160e01b600052601260045260246000fd5b634e487b7160e01b600052603160045260246000fd5b634e487b7160e01b600052603260045260246000fd5b634e487b7160e01b600052604160045260246000fd5b8015158114610bf857600080fd5b6001600160e01b031981168114610bf857600080fdfe48ab551616fa96d8766a4795180ef0312e24b226fc48f24d0bef6494b31d9df7ddf252ad1be2c89b69c2b068fc378daa952ba7f163c4a11628f55a4df523b3efa26469706673582212209dc953eb303855ee7cb7ef040fc286983e9cca69a4e6950d24bad5f7ef8c962b64736f6c63430008070033",
  "linkReferences": {},
  "deployedLinkReferences": {}
}