{
  "_format": "hh-sol-artifact-1",
  "contractName": "MetaTravelers",
  "sourceName": "contracts/MetaTravelers.sol",
  "abi": [
    {
      "inputs": [
        {
          "internalType": "string",
          "name": "name",
          "type": "string"
        },
        {
          "internalType": "string",
          "name": "symbol",
          "type": "string"
        },
        {
          "internalType": "string",
          "name": "baseTokenURI",
          "type": "string"
        },
        {
          "internalType": "address",
          "name": "vrfCoordinator",
          "type": "address"
        },
        {
          "internalType": "address",
          "name": "linkToken",
          "type": "address"
        },
        {
          "internalType": "bytes32",
          "name": "keyHash",
          "type": "bytes32"
        },
        {
          "internalType": "uint256",
          "name": "fee",
          "type": "uint256"
        }
      ],
      "stateMutability": "nonpayable",
      "type": "constructor"
    },
    {
      "anonymous": false,
      "inputs": [
        {
          "indexed": true,
          "internalType": "address",
          "name": "owner",
          "type": "address"
        },
        {
          "indexed": true,
          "internalType": "address",
          "name": "approved",
          "type": "address"
        },
        {
          "indexed": true,
          "internalType": "uint256",
          "name": "tokenId",
          "type": "uint256"
        }
      ],
      "name": "Approval",
      "type": "event"
    },
    {
      "anonymous": false,
      "inputs": [
        {
          "indexed": true,
          "internalType": "address",
          "name": "owner",
          "type": "address"
        },
        {
          "indexed": true,
          "internalType": "address",
          "name": "operator",
          "type": "address"
        },
        {
          "indexed": false,
          "internalType": "bool",
          "name": "approved",
          "type": "bool"
        }
      ],
      "name": "ApprovalForAll",
      "type": "event"
    },
    {
      "anonymous": false,
      "inputs": [
        {
          "indexed": false,
          "internalType": "address",
          "name": "owner",
          "type": "address"
        },
        {
          "indexed": false,
          "internalType": "uint256",
          "name": "quantity",
          "type": "uint256"
        }
      ],
      "name": "AssetsMinted",
      "type": "event"
    },
    {
      "anonymous": false,
      "inputs": [
        {
          "indexed": true,
          "internalType": "address",
          "name": "previousOwner",
          "type": "address"
        },
        {
          "indexed": true,
          "internalType": "address",
          "name": "newOwner",
          "type": "address"
        }
      ],
      "name": "OwnershipTransferred",
      "type": "event"
    },
    {
      "anonymous": false,
      "inputs": [
        {
          "indexed": false,
          "internalType": "address",
          "name": "account",
          "type": "address"
        }
      ],
      "name": "Paused",
      "type": "event"
    },
    {
      "anonymous": false,
      "inputs": [
        {
          "indexed": false,
          "internalType": "bytes32",
          "name": "requestId",
          "type": "bytes32"
        }
      ],
      "name": "RequestedRandomness",
      "type": "event"
    },
    {
      "anonymous": false,
      "inputs": [
        {
          "indexed": false,
          "internalType": "bytes32",
          "name": "requestId",
          "type": "bytes32"
        },
        {
          "indexed": false,
          "internalType": "uint256",
          "name": "randomNumber",
          "type": "uint256"
        }
      ],
      "name": "StartingIndexSet",
      "type": "event"
    },
    {
      "anonymous": false,
      "inputs": [
        {
          "indexed": true,
          "internalType": "address",
          "name": "from",
          "type": "address"
        },
        {
          "indexed": true,
          "internalType": "address",
          "name": "to",
          "type": "address"
        },
        {
          "indexed": true,
          "internalType": "uint256",
          "name": "tokenId",
          "type": "uint256"
        }
      ],
      "name": "Transfer",
      "type": "event"
    },
    {
      "anonymous": false,
      "inputs": [
        {
          "indexed": false,
          "internalType": "address",
          "name": "account",
          "type": "address"
        }
      ],
      "name": "Unpaused",
      "type": "event"
    },
    {
      "inputs": [],
      "name": "MAX_QUANTITY",
      "outputs": [
        {
          "internalType": "uint256",
          "name": "",
          "type": "uint256"
        }
      ],
      "stateMutability": "view",
      "type": "function"
    },
    {
      "inputs": [],
      "name": "MAX_RESERVE",
      "outputs": [
        {
          "internalType": "uint256",
          "name": "",
          "type": "uint256"
        }
      ],
      "stateMutability": "view",
      "type": "function"
    },
    {
      "inputs": [],
      "name": "MAX_SUPPLY",
      "outputs": [
        {
          "internalType": "uint256",
          "name": "",
          "type": "uint256"
        }
      ],
      "stateMutability": "view",
      "type": "function"
    },
    {
      "inputs": [],
      "name": "PRICE",
      "outputs": [
        {
          "internalType": "uint256",
          "name": "",
          "type": "uint256"
        }
      ],
      "stateMutability": "view",
      "type": "function"
    },
    {
      "inputs": [
        {
          "internalType": "address",
          "name": "to",
          "type": "address"
        },
        {
          "internalType": "uint256",
          "name": "tokenId",
          "type": "uint256"
        }
      ],
      "name": "approve",
      "outputs": [],
      "stateMutability": "nonpayable",
      "type": "function"
    },
    {
      "inputs": [
        {
          "internalType": "address",
          "name": "owner",
          "type": "address"
        }
      ],
      "name": "balanceOf",
      "outputs": [
        {
          "internalType": "uint256",
          "name": "",
          "type": "uint256"
        }
      ],
      "stateMutability": "view",
      "type": "function"
    },
    {
      "inputs": [
        {
          "internalType": "uint256",
          "name": "tokenId",
          "type": "uint256"
        }
      ],
      "name": "burn",
      "outputs": [],
      "stateMutability": "nonpayable",
      "type": "function"
    },
    {
      "inputs": [
        {
          "internalType": "uint256",
          "name": "tokenId",
          "type": "uint256"
        }
      ],
      "name": "getApproved",
      "outputs": [
        {
          "internalType": "address",
          "name": "",
          "type": "address"
        }
      ],
      "stateMutability": "view",
      "type": "function"
    },
    {
      "inputs": [
        {
          "internalType": "address",
          "name": "owner",
          "type": "address"
        },
        {
          "internalType": "address",
          "name": "operator",
          "type": "address"
        }
      ],
      "name": "isApprovedForAll",
      "outputs": [
        {
          "internalType": "bool",
          "name": "",
          "type": "bool"
        }
      ],
      "stateMutability": "view",
      "type": "function"
    },
    {
      "inputs": [
        {
          "internalType": "address",
          "name": "to",
          "type": "address"
        },
        {
          "internalType": "uint256",
          "name": "quantity",
          "type": "uint256"
        }
      ],
      "name": "mint",
      "outputs": [],
      "stateMutability": "payable",
      "type": "function"
    },
    {
      "inputs": [],
      "name": "name",
      "outputs": [
        {
          "internalType": "string",
          "name": "",
          "type": "string"
        }
      ],
      "stateMutability": "view",
      "type": "function"
    },
    {
      "inputs": [],
      "name": "owner",
      "outputs": [
        {
          "internalType": "address",
          "name": "",
          "type": "address"
        }
      ],
      "stateMutability": "view",
      "type": "function"
    },
    {
      "inputs": [
        {
          "internalType": "uint256",
          "name": "tokenId",
          "type": "uint256"
        }
      ],
      "name": "ownerOf",
      "outputs": [
        {
          "internalType": "address",
          "name": "",
          "type": "address"
        }
      ],
      "stateMutability": "view",
      "type": "function"
    },
    {
      "inputs": [],
      "name": "pause",
      "outputs": [],
      "stateMutability": "nonpayable",
      "type": "function"
    },
    {
      "inputs": [],
      "name": "paused",
      "outputs": [
        {
          "internalType": "bool",
          "name": "",
          "type": "bool"
        }
      ],
      "stateMutability": "view",
      "type": "function"
    },
    {
      "inputs": [],
      "name": "provenanceHash",
      "outputs": [
        {
          "internalType": "string",
          "name": "",
          "type": "string"
        }
      ],
      "stateMutability": "view",
      "type": "function"
    },
    {
      "inputs": [
        {
          "internalType": "bytes32",
          "name": "requestId",
          "type": "bytes32"
        },
        {
          "internalType": "uint256",
          "name": "randomness",
          "type": "uint256"
        }
      ],
      "name": "rawFulfillRandomness",
      "outputs": [],
      "stateMutability": "nonpayable",
      "type": "function"
    },
    {
      "inputs": [],
      "name": "renounceOwnership",
      "outputs": [],
      "stateMutability": "nonpayable",
      "type": "function"
    },
    {
      "inputs": [],
      "name": "reserveMetaTravelers",
      "outputs": [],
      "stateMutability": "nonpayable",
      "type": "function"
    },
    {
      "inputs": [
        {
          "internalType": "address",
          "name": "from",
          "type": "address"
        },
        {
          "internalType": "address",
          "name": "to",
          "type": "address"
        },
        {
          "internalType": "uint256",
          "name": "tokenId",
          "type": "uint256"
        }
      ],
      "name": "safeTransferFrom",
      "outputs": [],
      "stateMutability": "nonpayable",
      "type": "function"
    },
    {
      "inputs": [
        {
          "internalType": "address",
          "name": "from",
          "type": "address"
        },
        {
          "internalType": "address",
          "name": "to",
          "type": "address"
        },
        {
          "internalType": "uint256",
          "name": "tokenId",
          "type": "uint256"
        },
        {
          "internalType": "bytes",
          "name": "_data",
          "type": "bytes"
        }
      ],
      "name": "safeTransferFrom",
      "outputs": [],
      "stateMutability": "nonpayable",
      "type": "function"
    },
    {
      "inputs": [
        {
          "internalType": "address",
          "name": "operator",
          "type": "address"
        },
        {
          "internalType": "bool",
          "name": "approved",
          "type": "bool"
        }
      ],
      "name": "setApprovalForAll",
      "outputs": [],
      "stateMutability": "nonpayable",
      "type": "function"
    },
    {
      "inputs": [
        {
          "internalType": "string",
          "name": "baseTokenURI",
          "type": "string"
        }
      ],
      "name": "setBaseTokenURI",
      "outputs": [],
      "stateMutability": "nonpayable",
      "type": "function"
    },
    {
      "inputs": [
        {
          "internalType": "string",
          "name": "newProvenanceHash",
          "type": "string"
        }
      ],
      "name": "setProvenanceHash",
      "outputs": [],
      "stateMutability": "nonpayable",
      "type": "function"
    },
    {
      "inputs": [],
      "name": "setStartingIndex",
      "outputs": [
        {
          "internalType": "bytes32",
          "name": "",
          "type": "bytes32"
        }
      ],
      "stateMutability": "nonpayable",
      "type": "function"
    },
    {
      "inputs": [],
      "name": "startingIndex",
      "outputs": [
        {
          "internalType": "uint256",
          "name": "",
          "type": "uint256"
        }
      ],
      "stateMutability": "view",
      "type": "function"
    },
    {
      "inputs": [
        {
          "internalType": "bytes4",
          "name": "interfaceId",
          "type": "bytes4"
        }
      ],
      "name": "supportsInterface",
      "outputs": [
        {
          "internalType": "bool",
          "name": "",
          "type": "bool"
        }
      ],
      "stateMutability": "view",
      "type": "function"
    },
    {
      "inputs": [],
      "name": "symbol",
      "outputs": [
        {
          "internalType": "string",
          "name": "",
          "type": "string"
        }
      ],
      "stateMutability": "view",
      "type": "function"
    },
    {
      "inputs": [
        {
          "internalType": "uint256",
          "name": "index",
          "type": "uint256"
        }
      ],
      "name": "tokenByIndex",
      "outputs": [
        {
          "internalType": "uint256",
          "name": "",
          "type": "uint256"
        }
      ],
      "stateMutability": "view",
      "type": "function"
    },
    {
      "inputs": [
        {
          "internalType": "address",
          "name": "owner",
          "type": "address"
        },
        {
          "internalType": "uint256",
          "name": "index",
          "type": "uint256"
        }
      ],
      "name": "tokenOfOwnerByIndex",
      "outputs": [
        {
          "internalType": "uint256",
          "name": "",
          "type": "uint256"
        }
      ],
      "stateMutability": "view",
      "type": "function"
    },
    {
      "inputs": [
        {
          "internalType": "uint256",
          "name": "tokenId",
          "type": "uint256"
        }
      ],
      "name": "tokenURI",
      "outputs": [
        {
          "internalType": "string",
          "name": "",
          "type": "string"
        }
      ],
      "stateMutability": "view",
      "type": "function"
    },
    {
      "inputs": [],
      "name": "totalSupply",
      "outputs": [
        {
          "internalType": "uint256",
          "name": "",
          "type": "uint256"
        }
      ],
      "stateMutability": "view",
      "type": "function"
    },
    {
      "inputs": [
        {
          "internalType": "address",
          "name": "from",
          "type": "address"
        },
        {
          "internalType": "address",
          "name": "to",
          "type": "address"
        },
        {
          "internalType": "uint256",
          "name": "tokenId",
          "type": "uint256"
        }
      ],
      "name": "transferFrom",
      "outputs": [],
      "stateMutability": "nonpayable",
      "type": "function"
    },
    {
      "inputs": [
        {
          "internalType": "address",
          "name": "newOwner",
          "type": "address"
        }
      ],
      "name": "transferOwnership",
      "outputs": [],
      "stateMutability": "nonpayable",
      "type": "function"
    },
    {
      "inputs": [],
      "name": "unpause",
      "outputs": [],
      "stateMutability": "nonpayable",
      "type": "function"
    },
    {
      "inputs": [],
      "name": "withdraw",
      "outputs": [],
      "stateMutability": "nonpayable",
      "type": "function"
    }
  ],
  "bytecode": "0x60e06040819052600060c08190526200001b91600d91620001dd565b503480156200002957600080fd5b5060405162002f2338038062002f238339810160408190526200004c9162000357565b83838888816000908051906020019062000068929190620001dd565b5080516200007e906001906020840190620001dd565b5050600a805460ff19169055506001600160601b0319606092831b811660a052911b16608052620000b6620000b03390565b620000ed565b8451620000cb906010906020880190620001dd565b5060118290556012819055620000e06200013f565b5050505050505062000474565b600c80546001600160a01b038381166001600160a01b0319831681179093556040519116919082907f8be0079c531659141344cd1fd0a4f28419497f9722a3daafe3b4186f6b6457e090600090a35050565b600a5460ff16156200018a5760405162461bcd60e51b815260206004820152601060248201526f14185d5cd8589b194e881c185d5cd95960821b604482015260640160405180910390fd5b600a805460ff191660011790557f62e78cea01bee320cd4e420270b5ea74000d11b0c9f74754ebdbfc544b05a258620001c03390565b6040516001600160a01b03909116815260200160405180910390a1565b828054620001eb9062000421565b90600052602060002090601f0160209004810192826200020f57600085556200025a565b82601f106200022a57805160ff19168380011785556200025a565b828001600101855582156200025a579182015b828111156200025a5782518255916020019190600101906200023d565b50620002689291506200026c565b5090565b5b808211156200026857600081556001016200026d565b80516001600160a01b03811681146200029b57600080fd5b919050565b600082601f830112620002b257600080fd5b81516001600160401b0380821115620002cf57620002cf6200045e565b604051601f8301601f19908116603f01168101908282118183101715620002fa57620002fa6200045e565b816040528381526020925086838588010111156200031757600080fd5b600091505b838210156200033b57858201830151818301840152908201906200031c565b838211156200034d5760008385830101525b9695505050505050565b600080600080600080600060e0888a0312156200037357600080fd5b87516001600160401b03808211156200038b57600080fd5b620003998b838c01620002a0565b985060208a0151915080821115620003b057600080fd5b620003be8b838c01620002a0565b975060408a0151915080821115620003d557600080fd5b50620003e48a828b01620002a0565b955050620003f56060890162000283565b9350620004056080890162000283565b925060a0880151915060c0880151905092959891949750929550565b600181811c908216806200043657607f821691505b602082108114156200045857634e487b7160e01b600052602260045260246000fd5b50919050565b634e487b7160e01b600052604160045260246000fd5b60805160601c60a05160601c612a75620004ae60003960008181610e880152611cc70152600081816112f40152611c980152612a756000f3fe60806040526004361061019f5760003560e01c806301ffc9a7146101a457806306fdde03146101d9578063081812fc146101fb578063095ea7b314610228578063109695231461024a57806318160ddd1461026a57806323b872dd146102895780632f745c59146102a957806330176e13146102c957806332cb6b0c146102e95780633ccfd60b146102ff5780633f4ba83a1461031457806340c10f191461032957806342842e0e1461033c57806342966c681461035c5780634f6ccce71461037c5780635c975abb1461039c5780636352211e146103b457806370a08231146103d4578063715018a6146103f45780637f6dcbf8146104095780638456cb591461041e5780638d859f3e146104335780638da5cb5b1461044f57806394985ddd1461046457806395d89b4114610484578063a22cb46514610499578063b88d4fde146104b9578063c6ab67a3146104d9578063c87b56dd146104ee578063cb774d471461050e578063e41ee46a14610524578063e985e9c514610539578063e986655014610559578063eff31e9e1461056e578063f2fde38b14610583575b600080fd5b3480156101b057600080fd5b506101c46101bf366004612556565b6105a3565b60405190151581526020015b60405180910390f35b3480156101e557600080fd5b506101ee6105b4565b6040516101d0919061278a565b34801561020757600080fd5b5061021b6102163660046125d8565b610646565b6040516101d091906126f9565b34801561023457600080fd5b506102486102433660046124ed565b6106d3565b005b34801561025657600080fd5b50610248610265366004612590565b6107e4565b34801561027657600080fd5b506008545b6040519081526020016101d0565b34801561029557600080fd5b506102486102a43660046123ff565b61082a565b3480156102b557600080fd5b5061027b6102c43660046124ed565b61085c565b3480156102d557600080fd5b506102486102e4366004612590565b6108f2565b3480156102f557600080fd5b5061027b611e6181565b34801561030b57600080fd5b50610248610934565b34801561032057600080fd5b50610248610992565b6102486103373660046124ed565b6109cb565b34801561034857600080fd5b506102486103573660046123ff565b610b46565b34801561036857600080fd5b506102486103773660046125d8565b610b61565b34801561038857600080fd5b5061027b6103973660046125d8565b610bdb565b3480156103a857600080fd5b50600a5460ff166101c4565b3480156103c057600080fd5b5061021b6103cf3660046125d8565b610c6e565b3480156103e057600080fd5b5061027b6103ef3660046123b1565b610ce5565b34801561040057600080fd5b50610248610d6c565b34801561041557600080fd5b50610248610da5565b34801561042a57600080fd5b50610248610e37565b34801561043f57600080fd5b5061027b6701b4fbd92b5f800081565b34801561045b57600080fd5b5061021b610e6e565b34801561047057600080fd5b5061024861047f366004612534565b610e7d565b34801561049057600080fd5b506101ee610eff565b3480156104a557600080fd5b506102486104b43660046124b6565b610f0e565b3480156104c557600080fd5b506102486104d436600461243b565b610fcf565b3480156104e557600080fd5b506101ee611007565b3480156104fa57600080fd5b506101ee6105093660046125d8565b611095565b34801561051a57600080fd5b5061027b600e5481565b34801561053057600080fd5b5061027b600381565b34801561054557600080fd5b506101c46105543660046123cc565b611161565b34801561056557600080fd5b5061027b61118f565b34801561057a57600080fd5b5061027b602181565b34801561058f57600080fd5b5061024861059e3660046123b1565b61142c565b60006105ae826114c9565b92915050565b6060600080546105c390612903565b80601f01602080910402602001604051908101604052809291908181526020018280546105ef90612903565b801561063c5780601f106106115761010080835404028352916020019161063c565b820191906000526020600020905b81548152906001019060200180831161061f57829003601f168201915b5050505050905090565b6000610651826114ee565b6106b75760405162461bcd60e51b815260206004820152602c60248201527f4552433732313a20617070726f76656420717565727920666f72206e6f6e657860448201526b34b9ba32b73a103a37b5b2b760a11b60648201526084015b60405180910390fd5b506000908152600460205260409020546001600160a01b031690565b60006106de82610c6e565b9050806001600160a01b0316836001600160a01b0316141561074c5760405162461bcd60e51b815260206004820152602160248201527f4552433732313a20617070726f76616c20746f2063757272656e74206f776e656044820152603960f91b60648201526084016106ae565b336001600160a01b038216148061076857506107688133611161565b6107d55760405162461bcd60e51b815260206004820152603860248201527f4552433732313a20617070726f76652063616c6c6572206973206e6f74206f776044820152771b995c881b9bdc88185c1c1c9bdd995908199bdc88185b1b60421b60648201526084016106ae565b6107df838361150b565b505050565b336107ed610e6e565b6001600160a01b0316146108135760405162461bcd60e51b81526004016106ae906127ef565b805161082690600d906020840190612287565b5050565b610835335b82611579565b6108515760405162461bcd60e51b81526004016106ae90612824565b6107df838383611643565b600061086783610ce5565b82106108c95760405162461bcd60e51b815260206004820152602b60248201527f455243373231456e756d657261626c653a206f776e657220696e646578206f7560448201526a74206f6620626f756e647360a81b60648201526084016106ae565b506001600160a01b03919091166000908152600660209081526040808320938352929052205490565b336108fb610e6e565b6001600160a01b0316146109215760405162461bcd60e51b81526004016106ae906127ef565b8051610826906010906020840190612287565b3361093d610e6e565b6001600160a01b0316146109635760405162461bcd60e51b81526004016106ae906127ef565b6040514790339082156108fc029083906000818181858888f19350505050158015610826573d6000803e3d6000fd5b3361099b610e6e565b6001600160a01b0316146109c15760405162461bcd60e51b81526004016106ae906127ef565b6109c96117dc565b565b611e61816109d860085490565b6109e29190612875565b1115610a2e5760405162461bcd60e51b815260206004820152601b60248201527a50757263686173652065786365656473206d617820737570706c7960281b60448201526064016106ae565b6003811115610a7c5760405162461bcd60e51b815260206004820152601a6024820152794f726465722065786365656473206d6178207175616e7469747960301b60448201526064016106ae565b610a8e816701b4fbd92b5f80006128a1565b341015610add5760405162461bcd60e51b815260206004820152601f60248201527f45746865722076616c75652073656e74206973206e6f7420636f72726563740060448201526064016106ae565b60005b81811015610b1a57610afa83610af5600f5490565b61185f565b610b08600f80546001019055565b80610b128161293e565b915050610ae0565b50600080516020612a008339815191528282604051610b3a92919061274a565b60405180910390a15050565b6107df83838360405180602001604052806000815250610fcf565b610b6a3361082f565b610bcf5760405162461bcd60e51b815260206004820152603060248201527f4552433732314275726e61626c653a2063616c6c6572206973206e6f74206f7760448201526f1b995c881b9bdc88185c1c1c9bdd995960821b60648201526084016106ae565b610bd88161198b565b50565b6000610be660085490565b8210610c495760405162461bcd60e51b815260206004820152602c60248201527f455243373231456e756d657261626c653a20676c6f62616c20696e646578206f60448201526b7574206f6620626f756e647360a01b60648201526084016106ae565b60088281548110610c5c57610c5c6129af565b90600052602060002001549050919050565b6000818152600260205260408120546001600160a01b0316806105ae5760405162461bcd60e51b815260206004820152602960248201527f4552433732313a206f776e657220717565727920666f72206e6f6e657869737460448201526832b73a103a37b5b2b760b91b60648201526084016106ae565b60006001600160a01b038216610d505760405162461bcd60e51b815260206004820152602a60248201527f4552433732313a2062616c616e636520717565727920666f7220746865207a65604482015269726f206164647265737360b01b60648201526084016106ae565b506001600160a01b031660009081526003602052604090205490565b33610d75610e6e565b6001600160a01b031614610d9b5760405162461bcd60e51b81526004016106ae906127ef565b6109c96000611a20565b33610dae610e6e565b6001600160a01b031614610dd45760405162461bcd60e51b81526004016106ae906127ef565b60005b6021811015610e0c57610dec33600f54611a72565b610dfa600f80546001019055565b80610e048161293e565b915050610dd7565b50600080516020612a00833981519152336021604051610e2d92919061274a565b60405180910390a1565b33610e40610e6e565b6001600160a01b031614610e665760405162461bcd60e51b81526004016106ae906127ef565b6109c9611a8c565b600c546001600160a01b031690565b336001600160a01b037f00000000000000000000000000000000000000000000000000000000000000001614610ef55760405162461bcd60e51b815260206004820152601f60248201527f4f6e6c7920565246436f6f7264696e61746f722063616e2066756c66696c6c0060448201526064016106ae565b6108268282611b07565b6060600180546105c390612903565b6001600160a01b038216331415610f635760405162461bcd60e51b815260206004820152601960248201527822a9219b99189d1030b8383937bb32903a379031b0b63632b960391b60448201526064016106ae565b3360008181526005602090815260408083206001600160a01b03871680855290835292819020805460ff191686151590811790915590519081529192917f17307eab39ab6107e8899845ad3d59bd9653f200f220920489ca2b5937696c31910160405180910390a35050565b610fd93383611579565b610ff55760405162461bcd60e51b81526004016106ae90612824565b61100184848484611b64565b50505050565b600d805461101490612903565b80601f016020809104026020016040519081016040528092919081815260200182805461104090612903565b801561108d5780601f106110625761010080835404028352916020019161108d565b820191906000526020600020905b81548152906001019060200180831161107057829003601f168201915b505050505081565b60606110a0826114ee565b6111055760405162461bcd60e51b815260206004820152603060248201527f4552433732314d657461646174613a2055524920717565727920666f72206e6f60448201526f3732bc34b9ba32b73a103a37b5b2b71760811b60648201526084016106ae565b60006010805461111490612903565b90501161113057604051806020016040528060008152506105ae565b601061113b83611b97565b60405160200161114c929190612652565b60405160208183030381529060405292915050565b6001600160a01b03918216600090815260056020908152604080832093909416825291909152205460ff1690565b600080600d805461119f90612903565b80601f01602080910402602001604051908101604052809291908181526020018280546111cb90612903565b80156112185780601f106111ed57610100808354040283529160200191611218565b820191906000526020600020905b8154815290600101906020018083116111fb57829003601f168201915b50505050509050600081511161128a5760405162461bcd60e51b815260206004820152603160248201527f43616e6e6f7420736574207374617274696e6720696e64657820776974686f756044820152700e840e0e4deeccadcc2dcc6ca40d0c2e6d607b1b60648201526084016106ae565b600e54156112da5760405162461bcd60e51b815260206004820152601d60248201527f5374617274696e6720696e64657820697320616c72656164792073657400000060448201526064016106ae565b6012546040516370a0823160e01b81526001600160a01b037f000000000000000000000000000000000000000000000000000000000000000016906370a08231906113299030906004016126f9565b60206040518083038186803b15801561134157600080fd5b505afa158015611355573d6000803e3d6000fd5b505050506040513d601f19601f8201168201806040525081019061137991906125f1565b10156113db5760405162461bcd60e51b815260206004820152602b60248201527f4e6f7420656e6f756768204c494e4b202d2066696c6c20636f6e74726163742060448201526a1dda5d1a0819985d58d95d60aa1b60648201526084016106ae565b60006113eb601154601254611c94565b90507fe5f5b44d72d4143c278eb745c4acc0695c4a5bc616be5beecf46abe29661780e8160405161141e91815260200190565b60405180910390a192915050565b33611435610e6e565b6001600160a01b03161461145b5760405162461bcd60e51b81526004016106ae906127ef565b6001600160a01b0381166114c05760405162461bcd60e51b815260206004820152602660248201527f4f776e61626c653a206e6577206f776e657220697320746865207a65726f206160448201526564647265737360d01b60648201526084016106ae565b610bd881611a20565b60006001600160e01b0319821663780e9d6360e01b14806105ae57506105ae82611e1f565b6000908152600260205260409020546001600160a01b0316151590565b600081815260046020526040902080546001600160a01b0319166001600160a01b038416908117909155819061154082610c6e565b6001600160a01b03167f8c5be1e5ebec7d5bd14f71427d1e84f3dd0314c0f7b2291e5b200ac8c7c3b92560405160405180910390a45050565b6000611584826114ee565b6115e55760405162461bcd60e51b815260206004820152602c60248201527f4552433732313a206f70657261746f7220717565727920666f72206e6f6e657860448201526b34b9ba32b73a103a37b5b2b760a11b60648201526084016106ae565b60006115f083610c6e565b9050806001600160a01b0316846001600160a01b0316148061162b5750836001600160a01b031661162084610646565b6001600160a01b0316145b8061163b575061163b8185611161565b949350505050565b826001600160a01b031661165682610c6e565b6001600160a01b0316146116be5760405162461bcd60e51b815260206004820152602960248201527f4552433732313a207472616e73666572206f6620746f6b656e2074686174206960448201526839903737ba1037bbb760b91b60648201526084016106ae565b6001600160a01b0382166117205760405162461bcd60e51b8152602060048201526024808201527f4552433732313a207472616e7366657220746f20746865207a65726f206164646044820152637265737360e01b60648201526084016106ae565b61172b838383611e6f565b61173660008261150b565b6001600160a01b038316600090815260036020526040812080546001929061175f9084906128c0565b90915550506001600160a01b038216600090815260036020526040812080546001929061178d908490612875565b909155505060008181526002602052604080822080546001600160a01b0319166001600160a01b038681169182179092559151849391871691600080516020612a2083398151915291a4505050565b600a5460ff166118255760405162461bcd60e51b815260206004820152601460248201527314185d5cd8589b194e881b9bdd081c185d5cd95960621b60448201526064016106ae565b600a805460ff191690557f5db9ee0a495bf2e6ff9c91a7834c1ba4fdd244a5e8aa4e537bd38aeae4b073aa335b604051610e2d91906126f9565b6001600160a01b0382166118b55760405162461bcd60e51b815260206004820181905260248201527f4552433732313a206d696e7420746f20746865207a65726f206164647265737360448201526064016106ae565b6118be816114ee565b1561190a5760405162461bcd60e51b815260206004820152601c60248201527b115490cdcc8c4e881d1bdad95b88185b1c9958591e481b5a5b9d195960221b60448201526064016106ae565b61191660008383611e6f565b6001600160a01b038216600090815260036020526040812080546001929061193f908490612875565b909155505060008181526002602052604080822080546001600160a01b0319166001600160a01b0386169081179091559051839290600080516020612a20833981519152908290a45050565b600061199682610c6e565b90506119a481600084611e6f565b6119af60008361150b565b6001600160a01b03811660009081526003602052604081208054600192906119d89084906128c0565b909155505060008281526002602052604080822080546001600160a01b0319169055518391906001600160a01b03841690600080516020612a20833981519152908390a45050565b600c80546001600160a01b038381166001600160a01b0319831681179093556040519116919082907f8be0079c531659141344cd1fd0a4f28419497f9722a3daafe3b4186f6b6457e090600090a35050565b610826828260405180602001604052806000815250611e7a565b600a5460ff1615611ad25760405162461bcd60e51b815260206004820152601060248201526f14185d5cd8589b194e881c185d5cd95960821b60448201526064016106ae565b600a805460ff191660011790557f62e78cea01bee320cd4e420270b5ea74000d11b0c9f74754ebdbfc544b05a2586118523390565b611b13611e6182612959565b600e819055611b2e57600e54611b2a906001611ead565b600e555b60408051838152602081018390527fa0562a0d65ac91c22f0819742210c3d20adb1237260606aef60af9717484950d9101610b3a565b611b6f848484611643565b611b7b84848484611ec0565b6110015760405162461bcd60e51b81526004016106ae9061279d565b606081611bbb5750506040805180820190915260018152600360fc1b602082015290565b8160005b8115611be55780611bcf8161293e565b9150611bde9050600a8361288d565b9150611bbf565b6000816001600160401b03811115611bff57611bff6129c5565b6040519080825280601f01601f191660200182016040528015611c29576020820181803683370190505b5090505b841561163b57611c3e6001836128c0565b9150611c4b600a86612959565b611c56906030612875565b60f81b818381518110611c6b57611c6b6129af565b60200101906001600160f81b031916908160001a905350611c8d600a8661288d565b9450611c2d565b60007f00000000000000000000000000000000000000000000000000000000000000006001600160a01b0316634000aea07f000000000000000000000000000000000000000000000000000000000000000084866000604051602001611d04929190918252602082015260400190565b6040516020818303038152906040526040518463ffffffff1660e01b8152600401611d3193929190612763565b602060405180830381600087803b158015611d4b57600080fd5b505af1158015611d5f573d6000803e3d6000fd5b505050506040513d601f19601f82011682018060405250810190611d839190612517565b506000838152600b6020818152604080842054815180840189905280830186905230606082015260808082018390528351808303909101815260a090910190925281519183019190912093879052919052611ddf906001612875565b6000858152600b602052604090205561163b8482604080516020808201949094528082019290925280518083038201815260609092019052805191012090565b60006001600160e01b031982166380ac58cd60e01b1480611e5057506001600160e01b03198216635b5e139f60e01b145b806105ae57506301ffc9a760e01b6001600160e01b03198316146105ae565b6107df838383611fcd565b611e84838361185f565b611e916000848484611ec0565b6107df5760405162461bcd60e51b81526004016106ae9061279d565b6000611eb98284612875565b9392505050565b60006001600160a01b0384163b15611fc257604051630a85bd0160e11b81526001600160a01b0385169063150b7a0290611f0490339089908890889060040161270d565b602060405180830381600087803b158015611f1e57600080fd5b505af1925050508015611f4e575060408051601f3d908101601f19168201909252611f4b91810190612573565b60015b611fa8573d808015611f7c576040519150601f19603f3d011682016040523d82523d6000602084013e611f81565b606091505b508051611fa05760405162461bcd60e51b81526004016106ae9061279d565b805181602001fd5b6001600160e01b031916630a85bd0160e11b14905061163b565b506001949350505050565b611fd883838361203f565b600a5460ff16156107df5760405162461bcd60e51b815260206004820152602b60248201527f4552433732315061757361626c653a20746f6b656e207472616e73666572207760448201526a1a1a5b19481c185d5cd95960aa1b60648201526084016106ae565b6001600160a01b03831661209a5761209581600880546000838152600960205260408120829055600182018355919091527ff3f7a9fe364faab93b216da50a3214154f22a0a2b415b23a84c8169e8b636ee30155565b6120bd565b816001600160a01b0316836001600160a01b0316146120bd576120bd83826120f7565b6001600160a01b0382166120d4576107df81612194565b826001600160a01b0316826001600160a01b0316146107df576107df8282612243565b6000600161210484610ce5565b61210e91906128c0565b600083815260076020526040902054909150808214612161576001600160a01b03841660009081526006602090815260408083208584528252808320548484528184208190558352600790915290208190555b5060009182526007602090815260408084208490556001600160a01b039094168352600681528383209183525290812055565b6008546000906121a6906001906128c0565b600083815260096020526040812054600880549394509092849081106121ce576121ce6129af565b9060005260206000200154905080600883815481106121ef576121ef6129af565b600091825260208083209091019290925582815260099091526040808220849055858252812055600880548061222757612227612999565b6001900381819060005260206000200160009055905550505050565b600061224e83610ce5565b6001600160a01b039093166000908152600660209081526040808320868452825280832085905593825260079052919091209190915550565b82805461229390612903565b90600052602060002090601f0160209004810192826122b557600085556122fb565b82601f106122ce57805160ff19168380011785556122fb565b828001600101855582156122fb579182015b828111156122fb5782518255916020019190600101906122e0565b5061230792915061230b565b5090565b5b80821115612307576000815560010161230c565b60006001600160401b038084111561233a5761233a6129c5565b604051601f8501601f19908116603f01168101908282118183101715612362576123626129c5565b8160405280935085815286868601111561237b57600080fd5b858560208301376000602087830101525050509392505050565b80356001600160a01b03811681146123ac57600080fd5b919050565b6000602082840312156123c357600080fd5b611eb982612395565b600080604083850312156123df57600080fd5b6123e883612395565b91506123f660208401612395565b90509250929050565b60008060006060848603121561241457600080fd5b61241d84612395565b925061242b60208501612395565b9150604084013590509250925092565b6000806000806080858703121561245157600080fd5b61245a85612395565b935061246860208601612395565b92506040850135915060608501356001600160401b0381111561248a57600080fd5b8501601f8101871361249b57600080fd5b6124aa87823560208401612320565b91505092959194509250565b600080604083850312156124c957600080fd5b6124d283612395565b915060208301356124e2816129db565b809150509250929050565b6000806040838503121561250057600080fd5b61250983612395565b946020939093013593505050565b60006020828403121561252957600080fd5b8151611eb9816129db565b6000806040838503121561254757600080fd5b50508035926020909101359150565b60006020828403121561256857600080fd5b8135611eb9816129e9565b60006020828403121561258557600080fd5b8151611eb9816129e9565b6000602082840312156125a257600080fd5b81356001600160401b038111156125b857600080fd5b8201601f810184136125c957600080fd5b61163b84823560208401612320565b6000602082840312156125ea57600080fd5b5035919050565b60006020828403121561260357600080fd5b5051919050565b600081518084526126228160208601602086016128d7565b601f01601f19169290920160200192915050565b600081516126488185602086016128d7565b9290920192915050565b600080845481600182811c91508083168061266e57607f831692505b602080841082141561268e57634e487b7160e01b86526022600452602486fd5b8180156126a257600181146126b3576126e0565b60ff198616895284890196506126e0565b60008b81526020902060005b868110156126d85781548b8201529085019083016126bf565b505084890196505b5050505050506126f08185612636565b95945050505050565b6001600160a01b0391909116815260200190565b6001600160a01b03858116825284166020820152604081018390526080606082018190526000906127409083018461260a565b9695505050505050565b6001600160a01b03929092168252602082015260400190565b60018060a01b03841681528260208201526060604082015260006126f0606083018461260a565b602081526000611eb9602083018461260a565b60208082526032908201527f4552433732313a207472616e7366657220746f206e6f6e20455243373231526560408201527131b2b4bb32b91034b6b83632b6b2b73a32b960711b606082015260800190565b6020808252818101527f4f776e61626c653a2063616c6c6572206973206e6f7420746865206f776e6572604082015260600190565b60208082526031908201527f4552433732313a207472616e736665722063616c6c6572206973206e6f74206f6040820152701ddb995c881b9bdc88185c1c1c9bdd9959607a1b606082015260800190565b600082198211156128885761288861296d565b500190565b60008261289c5761289c612983565b500490565b60008160001904831182151516156128bb576128bb61296d565b500290565b6000828210156128d2576128d261296d565b500390565b60005b838110156128f25781810151838201526020016128da565b838111156110015750506000910152565b600181811c9082168061291757607f821691505b6020821081141561293857634e487b7160e01b600052602260045260246000fd5b50919050565b60006000198214156129525761295261296d565b5060010190565b60008261296857612968612983565b500690565b634e487b7160e01b600052601160045260246000fd5b634e487b7160e01b600052601260045260246000fd5b634e487b7160e01b600052603160045260246000fd5b634e487b7160e01b600052603260045260246000fd5b634e487b7160e01b600052604160045260246000fd5b8015158114610bd857600080fd5b6001600160e01b031981168114610bd857600080fdfe48ab551616fa96d8766a4795180ef0312e24b226fc48f24d0bef6494b31d9df7ddf252ad1be2c89b69c2b068fc378daa952ba7f163c4a11628f55a4df523b3efa2646970667358221220f282ac948e0e62573a2e2d25c706f312795a4277d7489f26ba42e3a44159471c64736f6c63430008070033",
  "linkReferences": {},
  "deployedLinkReferences": {}
}