{
  "_format": "hh-sol-artifact-1",
  "contractName": "MetaTravelers",
  "sourceName": "contracts/MetaTravelers.sol",
  "abi": [
    {
      "inputs": [
        {
          "internalType": "string",
          "name": "name",
          "type": "string"
        },
        {
          "internalType": "string",
          "name": "symbol",
          "type": "string"
        },
        {
          "internalType": "string",
          "name": "baseTokenURI",
          "type": "string"
        },
        {
          "internalType": "address",
          "name": "vrfCoordinator",
          "type": "address"
        },
        {
          "internalType": "address",
          "name": "linkToken",
          "type": "address"
        },
        {
          "internalType": "bytes32",
          "name": "keyHash",
          "type": "bytes32"
        },
        {
          "internalType": "uint256",
          "name": "fee",
          "type": "uint256"
        }
      ],
      "stateMutability": "nonpayable",
      "type": "constructor"
    },
    {
      "anonymous": false,
      "inputs": [
        {
          "indexed": true,
          "internalType": "address",
          "name": "owner",
          "type": "address"
        },
        {
          "indexed": true,
          "internalType": "address",
          "name": "approved",
          "type": "address"
        },
        {
          "indexed": true,
          "internalType": "uint256",
          "name": "tokenId",
          "type": "uint256"
        }
      ],
      "name": "Approval",
      "type": "event"
    },
    {
      "anonymous": false,
      "inputs": [
        {
          "indexed": true,
          "internalType": "address",
          "name": "owner",
          "type": "address"
        },
        {
          "indexed": true,
          "internalType": "address",
          "name": "operator",
          "type": "address"
        },
        {
          "indexed": false,
          "internalType": "bool",
          "name": "approved",
          "type": "bool"
        }
      ],
      "name": "ApprovalForAll",
      "type": "event"
    },
    {
      "anonymous": false,
      "inputs": [
        {
          "indexed": false,
          "internalType": "address",
          "name": "owner",
          "type": "address"
        },
        {
          "indexed": false,
          "internalType": "uint256",
          "name": "quantity",
          "type": "uint256"
        }
      ],
      "name": "AssetsMinted",
      "type": "event"
    },
    {
      "anonymous": false,
      "inputs": [
        {
          "indexed": true,
          "internalType": "address",
          "name": "previousOwner",
          "type": "address"
        },
        {
          "indexed": true,
          "internalType": "address",
          "name": "newOwner",
          "type": "address"
        }
      ],
      "name": "OwnershipTransferred",
      "type": "event"
    },
    {
      "anonymous": false,
      "inputs": [
        {
          "indexed": false,
          "internalType": "address",
          "name": "account",
          "type": "address"
        }
      ],
      "name": "Paused",
      "type": "event"
    },
    {
      "anonymous": false,
      "inputs": [
        {
          "indexed": false,
          "internalType": "bytes32",
          "name": "requestId",
          "type": "bytes32"
        }
      ],
      "name": "RequestedRandomness",
      "type": "event"
    },
    {
      "anonymous": false,
      "inputs": [
        {
          "indexed": false,
          "internalType": "bytes32",
          "name": "requestId",
          "type": "bytes32"
        },
        {
          "indexed": false,
          "internalType": "uint256",
          "name": "randomNumber",
          "type": "uint256"
        }
      ],
      "name": "StartingIndexSet",
      "type": "event"
    },
    {
      "anonymous": false,
      "inputs": [
        {
          "indexed": true,
          "internalType": "address",
          "name": "from",
          "type": "address"
        },
        {
          "indexed": true,
          "internalType": "address",
          "name": "to",
          "type": "address"
        },
        {
          "indexed": true,
          "internalType": "uint256",
          "name": "tokenId",
          "type": "uint256"
        }
      ],
      "name": "Transfer",
      "type": "event"
    },
    {
      "anonymous": false,
      "inputs": [
        {
          "indexed": false,
          "internalType": "address",
          "name": "account",
          "type": "address"
        }
      ],
      "name": "Unpaused",
      "type": "event"
    },
    {
      "inputs": [],
      "name": "MAX_EARLY_ADOPTER",
      "outputs": [
        {
          "internalType": "uint256",
          "name": "",
          "type": "uint256"
        }
      ],
      "stateMutability": "view",
      "type": "function"
    },
    {
      "inputs": [],
      "name": "MAX_MINTPASS",
      "outputs": [
        {
          "internalType": "uint256",
          "name": "",
          "type": "uint256"
        }
      ],
      "stateMutability": "view",
      "type": "function"
    },
    {
      "inputs": [],
      "name": "MAX_PRESALE",
      "outputs": [
        {
          "internalType": "uint256",
          "name": "",
          "type": "uint256"
        }
      ],
      "stateMutability": "view",
      "type": "function"
    },
    {
      "inputs": [],
      "name": "MAX_QUANTITY",
      "outputs": [
        {
          "internalType": "uint256",
          "name": "",
          "type": "uint256"
        }
      ],
      "stateMutability": "view",
      "type": "function"
    },
    {
      "inputs": [],
      "name": "MAX_RESERVE",
      "outputs": [
        {
          "internalType": "uint256",
          "name": "",
          "type": "uint256"
        }
      ],
      "stateMutability": "view",
      "type": "function"
    },
    {
      "inputs": [],
      "name": "MAX_SUPPLY",
      "outputs": [
        {
          "internalType": "uint256",
          "name": "",
          "type": "uint256"
        }
      ],
      "stateMutability": "view",
      "type": "function"
    },
    {
      "inputs": [],
      "name": "PRICE",
      "outputs": [
        {
          "internalType": "uint256",
          "name": "",
          "type": "uint256"
        }
      ],
      "stateMutability": "view",
      "type": "function"
    },
    {
      "inputs": [
        {
          "internalType": "address[]",
          "name": "addresses",
          "type": "address[]"
        }
      ],
      "name": "addToEarlyAdopterList",
      "outputs": [],
      "stateMutability": "nonpayable",
      "type": "function"
    },
    {
      "inputs": [
        {
          "internalType": "address[]",
          "name": "addresses",
          "type": "address[]"
        },
        {
          "internalType": "uint256[]",
          "name": "quantities",
          "type": "uint256[]"
        }
      ],
      "name": "addToMintPassList",
      "outputs": [],
      "stateMutability": "nonpayable",
      "type": "function"
    },
    {
      "inputs": [
        {
          "internalType": "address[]",
          "name": "addresses",
          "type": "address[]"
        }
      ],
      "name": "addToPreSaleList",
      "outputs": [],
      "stateMutability": "nonpayable",
      "type": "function"
    },
    {
      "inputs": [
        {
          "internalType": "address",
          "name": "to",
          "type": "address"
        },
        {
          "internalType": "uint256",
          "name": "tokenId",
          "type": "uint256"
        }
      ],
      "name": "approve",
      "outputs": [],
      "stateMutability": "nonpayable",
      "type": "function"
    },
    {
      "inputs": [
        {
          "internalType": "address",
          "name": "owner",
          "type": "address"
        }
      ],
      "name": "balanceOf",
      "outputs": [
        {
          "internalType": "uint256",
          "name": "",
          "type": "uint256"
        }
      ],
      "stateMutability": "view",
      "type": "function"
    },
    {
      "inputs": [
        {
          "internalType": "uint256",
          "name": "tokenId",
          "type": "uint256"
        }
      ],
      "name": "burn",
      "outputs": [],
      "stateMutability": "nonpayable",
      "type": "function"
    },
    {
      "inputs": [
        {
          "internalType": "address",
          "name": "to",
          "type": "address"
        },
        {
          "internalType": "uint256",
          "name": "quantity",
          "type": "uint256"
        }
      ],
      "name": "earlyAdopterMint",
      "outputs": [],
      "stateMutability": "payable",
      "type": "function"
    },
    {
      "inputs": [
        {
          "internalType": "uint256",
          "name": "tokenId",
          "type": "uint256"
        }
      ],
      "name": "getApproved",
      "outputs": [
        {
          "internalType": "address",
          "name": "",
          "type": "address"
        }
      ],
      "stateMutability": "view",
      "type": "function"
    },
    {
      "inputs": [
        {
          "internalType": "address",
          "name": "owner",
          "type": "address"
        },
        {
          "internalType": "address",
          "name": "operator",
          "type": "address"
        }
      ],
      "name": "isApprovedForAll",
      "outputs": [
        {
          "internalType": "bool",
          "name": "",
          "type": "bool"
        }
      ],
      "stateMutability": "view",
      "type": "function"
    },
    {
      "inputs": [],
      "name": "isEarlyAdopterSale",
      "outputs": [
        {
          "internalType": "bool",
          "name": "",
          "type": "bool"
        }
      ],
      "stateMutability": "view",
      "type": "function"
    },
    {
      "inputs": [],
      "name": "isMintPassSale",
      "outputs": [
        {
          "internalType": "bool",
          "name": "",
          "type": "bool"
        }
      ],
      "stateMutability": "view",
      "type": "function"
    },
    {
      "inputs": [],
      "name": "isPreSale",
      "outputs": [
        {
          "internalType": "bool",
          "name": "",
          "type": "bool"
        }
      ],
      "stateMutability": "view",
      "type": "function"
    },
    {
      "inputs": [],
      "name": "isPublicSale",
      "outputs": [
        {
          "internalType": "bool",
          "name": "",
          "type": "bool"
        }
      ],
      "stateMutability": "view",
      "type": "function"
    },
    {
      "inputs": [
        {
          "internalType": "address",
          "name": "to",
          "type": "address"
        },
        {
          "internalType": "uint256",
          "name": "quantity",
          "type": "uint256"
        }
      ],
      "name": "mintPassMint",
      "outputs": [],
      "stateMutability": "payable",
      "type": "function"
    },
    {
      "inputs": [],
      "name": "name",
      "outputs": [
        {
          "internalType": "string",
          "name": "",
          "type": "string"
        }
      ],
      "stateMutability": "view",
      "type": "function"
    },
    {
      "inputs": [],
      "name": "owner",
      "outputs": [
        {
          "internalType": "address",
          "name": "",
          "type": "address"
        }
      ],
      "stateMutability": "view",
      "type": "function"
    },
    {
      "inputs": [
        {
          "internalType": "uint256",
          "name": "tokenId",
          "type": "uint256"
        }
      ],
      "name": "ownerOf",
      "outputs": [
        {
          "internalType": "address",
          "name": "",
          "type": "address"
        }
      ],
      "stateMutability": "view",
      "type": "function"
    },
    {
      "inputs": [],
      "name": "pause",
      "outputs": [],
      "stateMutability": "nonpayable",
      "type": "function"
    },
    {
      "inputs": [],
      "name": "paused",
      "outputs": [
        {
          "internalType": "bool",
          "name": "",
          "type": "bool"
        }
      ],
      "stateMutability": "view",
      "type": "function"
    },
    {
      "inputs": [
        {
          "internalType": "address",
          "name": "to",
          "type": "address"
        },
        {
          "internalType": "uint256",
          "name": "quantity",
          "type": "uint256"
        }
      ],
      "name": "preSaleMint",
      "outputs": [],
      "stateMutability": "payable",
      "type": "function"
    },
    {
      "inputs": [],
      "name": "provenanceHash",
      "outputs": [
        {
          "internalType": "string",
          "name": "",
          "type": "string"
        }
      ],
      "stateMutability": "view",
      "type": "function"
    },
    {
      "inputs": [
        {
          "internalType": "address",
          "name": "to",
          "type": "address"
        },
        {
          "internalType": "uint256",
          "name": "quantity",
          "type": "uint256"
        }
      ],
      "name": "publicSaleMint",
      "outputs": [],
      "stateMutability": "payable",
      "type": "function"
    },
    {
      "inputs": [
        {
          "internalType": "bytes32",
          "name": "requestId",
          "type": "bytes32"
        },
        {
          "internalType": "uint256",
          "name": "randomness",
          "type": "uint256"
        }
      ],
      "name": "rawFulfillRandomness",
      "outputs": [],
      "stateMutability": "nonpayable",
      "type": "function"
    },
    {
      "inputs": [],
      "name": "renounceOwnership",
      "outputs": [],
      "stateMutability": "nonpayable",
      "type": "function"
    },
    {
      "inputs": [],
      "name": "reserveMetaTravelers",
      "outputs": [],
      "stateMutability": "nonpayable",
      "type": "function"
    },
    {
      "inputs": [
        {
          "internalType": "address",
          "name": "from",
          "type": "address"
        },
        {
          "internalType": "address",
          "name": "to",
          "type": "address"
        },
        {
          "internalType": "uint256",
          "name": "tokenId",
          "type": "uint256"
        }
      ],
      "name": "safeTransferFrom",
      "outputs": [],
      "stateMutability": "nonpayable",
      "type": "function"
    },
    {
      "inputs": [
        {
          "internalType": "address",
          "name": "from",
          "type": "address"
        },
        {
          "internalType": "address",
          "name": "to",
          "type": "address"
        },
        {
          "internalType": "uint256",
          "name": "tokenId",
          "type": "uint256"
        },
        {
          "internalType": "bytes",
          "name": "_data",
          "type": "bytes"
        }
      ],
      "name": "safeTransferFrom",
      "outputs": [],
      "stateMutability": "nonpayable",
      "type": "function"
    },
    {
      "inputs": [
        {
          "internalType": "address",
          "name": "operator",
          "type": "address"
        },
        {
          "internalType": "bool",
          "name": "approved",
          "type": "bool"
        }
      ],
      "name": "setApprovalForAll",
      "outputs": [],
      "stateMutability": "nonpayable",
      "type": "function"
    },
    {
      "inputs": [
        {
          "internalType": "string",
          "name": "baseTokenURI",
          "type": "string"
        }
      ],
      "name": "setBaseTokenURI",
      "outputs": [],
      "stateMutability": "nonpayable",
      "type": "function"
    },
    {
      "inputs": [
        {
          "internalType": "string",
          "name": "newProvenanceHash",
          "type": "string"
        }
      ],
      "name": "setProvenanceHash",
      "outputs": [],
      "stateMutability": "nonpayable",
      "type": "function"
    },
    {
      "inputs": [],
      "name": "setStartingIndex",
      "outputs": [
        {
          "internalType": "bytes32",
          "name": "",
          "type": "bytes32"
        }
      ],
      "stateMutability": "nonpayable",
      "type": "function"
    },
    {
      "inputs": [],
      "name": "startingIndex",
      "outputs": [
        {
          "internalType": "uint256",
          "name": "",
          "type": "uint256"
        }
      ],
      "stateMutability": "view",
      "type": "function"
    },
    {
      "inputs": [
        {
          "internalType": "bytes4",
          "name": "interfaceId",
          "type": "bytes4"
        }
      ],
      "name": "supportsInterface",
      "outputs": [
        {
          "internalType": "bool",
          "name": "",
          "type": "bool"
        }
      ],
      "stateMutability": "view",
      "type": "function"
    },
    {
      "inputs": [],
      "name": "symbol",
      "outputs": [
        {
          "internalType": "string",
          "name": "",
          "type": "string"
        }
      ],
      "stateMutability": "view",
      "type": "function"
    },
    {
      "inputs": [],
      "name": "toggleEarlyAdopter",
      "outputs": [],
      "stateMutability": "nonpayable",
      "type": "function"
    },
    {
      "inputs": [],
      "name": "toggleMintPassSale",
      "outputs": [],
      "stateMutability": "nonpayable",
      "type": "function"
    },
    {
      "inputs": [],
      "name": "togglePreSale",
      "outputs": [],
      "stateMutability": "nonpayable",
      "type": "function"
    },
    {
      "inputs": [
        {
          "internalType": "uint256",
          "name": "index",
          "type": "uint256"
        }
      ],
      "name": "tokenByIndex",
      "outputs": [
        {
          "internalType": "uint256",
          "name": "",
          "type": "uint256"
        }
      ],
      "stateMutability": "view",
      "type": "function"
    },
    {
      "inputs": [
        {
          "internalType": "address",
          "name": "owner",
          "type": "address"
        },
        {
          "internalType": "uint256",
          "name": "index",
          "type": "uint256"
        }
      ],
      "name": "tokenOfOwnerByIndex",
      "outputs": [
        {
          "internalType": "uint256",
          "name": "",
          "type": "uint256"
        }
      ],
      "stateMutability": "view",
      "type": "function"
    },
    {
      "inputs": [
        {
          "internalType": "uint256",
          "name": "tokenId",
          "type": "uint256"
        }
      ],
      "name": "tokenURI",
      "outputs": [
        {
          "internalType": "string",
          "name": "",
          "type": "string"
        }
      ],
      "stateMutability": "view",
      "type": "function"
    },
    {
      "inputs": [],
      "name": "totalSupply",
      "outputs": [
        {
          "internalType": "uint256",
          "name": "",
          "type": "uint256"
        }
      ],
      "stateMutability": "view",
      "type": "function"
    },
    {
      "inputs": [
        {
          "internalType": "address",
          "name": "from",
          "type": "address"
        },
        {
          "internalType": "address",
          "name": "to",
          "type": "address"
        },
        {
          "internalType": "uint256",
          "name": "tokenId",
          "type": "uint256"
        }
      ],
      "name": "transferFrom",
      "outputs": [],
      "stateMutability": "nonpayable",
      "type": "function"
    },
    {
      "inputs": [
        {
          "internalType": "address",
          "name": "newOwner",
          "type": "address"
        }
      ],
      "name": "transferOwnership",
      "outputs": [],
      "stateMutability": "nonpayable",
      "type": "function"
    },
    {
      "inputs": [],
      "name": "unpause",
      "outputs": [],
      "stateMutability": "nonpayable",
      "type": "function"
    },
    {
      "inputs": [],
      "name": "withdraw",
      "outputs": [],
      "stateMutability": "nonpayable",
      "type": "function"
    }
  ],
  "bytecode": "0x60c06040526014805463ffffffff191690553480156200001e57600080fd5b5060405162003cdf38038062003cdf83398101604081905262000041916200034c565b8383888881600090805190602001906200005d929190620001d2565b50805162000073906001906020840190620001d2565b5050600a805460ff19169055506001600160601b0319606092831b811660a052911b16608052620000ab620000a53390565b620000e2565b8451620000c090600e906020880190620001d2565b5060178290556018819055620000d562000134565b5050505050505062000469565b600c80546001600160a01b038381166001600160a01b0319831681179093556040519116919082907f8be0079c531659141344cd1fd0a4f28419497f9722a3daafe3b4186f6b6457e090600090a35050565b600a5460ff16156200017f5760405162461bcd60e51b815260206004820152601060248201526f14185d5cd8589b194e881c185d5cd95960821b604482015260640160405180910390fd5b600a805460ff191660011790557f62e78cea01bee320cd4e420270b5ea74000d11b0c9f74754ebdbfc544b05a258620001b53390565b6040516001600160a01b03909116815260200160405180910390a1565b828054620001e09062000416565b90600052602060002090601f0160209004810192826200020457600085556200024f565b82601f106200021f57805160ff19168380011785556200024f565b828001600101855582156200024f579182015b828111156200024f57825182559160200191906001019062000232565b506200025d92915062000261565b5090565b5b808211156200025d576000815560010162000262565b80516001600160a01b03811681146200029057600080fd5b919050565b600082601f830112620002a757600080fd5b81516001600160401b0380821115620002c457620002c462000453565b604051601f8301601f19908116603f01168101908282118183101715620002ef57620002ef62000453565b816040528381526020925086838588010111156200030c57600080fd5b600091505b8382101562000330578582018301518183018401529082019062000311565b83821115620003425760008385830101525b9695505050505050565b600080600080600080600060e0888a0312156200036857600080fd5b87516001600160401b03808211156200038057600080fd5b6200038e8b838c0162000295565b985060208a0151915080821115620003a557600080fd5b620003b38b838c0162000295565b975060408a0151915080821115620003ca57600080fd5b50620003d98a828b0162000295565b955050620003ea6060890162000278565b9350620003fa6080890162000278565b925060a0880151915060c0880151905092959891949750929550565b600181811c908216806200042b57607f821691505b602082108114156200044d57634e487b7160e01b600052602260045260246000fd5b50919050565b634e487b7160e01b600052604160045260246000fd5b60805160601c60a05160601c61383c620004a3600039600081816114620152612790015260008181611d950152612761015261383c6000f3fe60806040526004361061024f5760003560e01c806301ffc9a714610254578063053012701461028957806306fdde03146102a3578063081812fc146102c5578063095ea7b3146102f2578063109695231461031457806318160ddd1461033457806323b872dd146103535780632f745c591461037357806330176e131461039357806332cb6b0c146103b35780633ccfd60b146103c95780633f4ba83a146103de57806342842e0e146103f357806342966c681461041357806346ff3f78146104335780634ced4734146104465780634d4c4e99146104655780634ebbae731461047b5780634f6ccce71461049b57806354bac24f146104bb5780635c975abb146104ce5780636352211e146104e657806369dca441146105065780636a0b8d2d1461051c5780636ca49de31461053c57806370a0823114610551578063715018a6146105715780637f6dcbf8146105865780638456cb591461059b5780638d859f3e146105b05780638da5cb5b146105cc57806394985ddd146105e157806395d89b4114610601578063a22cb46514610616578063a477636914610636578063a5a865dc14610649578063ac5ae11b1461066a578063b88d4fde1461067d578063c6ab67a31461069d578063c87b56dd146106b2578063ca3cb522146106d2578063cb774d47146106e7578063d57e007f146106fd578063d6cd39041461071d578063de7535dd14610732578063e41ee46a14610748578063e985e9c51461075d578063e98665501461077d578063eff31e9e14610792578063f2fde38b146107a7578063ff9ddf98146107c7575b600080fd5b34801561026057600080fd5b5061027461026f366004613242565b6107e7565b60405190151581526020015b60405180910390f35b34801561029557600080fd5b506014546102749060ff1681565b3480156102af57600080fd5b506102b86107f8565b6040516102809190613476565b3480156102d157600080fd5b506102e56102e03660046132c4565b61088a565b60405161028091906133e5565b3480156102fe57600080fd5b5061031261030d36600461312d565b610917565b005b34801561032057600080fd5b5061031261032f36600461327c565b610a28565b34801561034057600080fd5b506008545b604051908152602001610280565b34801561035f57600080fd5b5061031261036e36600461303f565b610a6e565b34801561037f57600080fd5b5061034561038e36600461312d565b610aa0565b34801561039f57600080fd5b506103126103ae36600461327c565b610b36565b3480156103bf57600080fd5b50610345611e6181565b3480156103d557600080fd5b50610312610b78565b3480156103ea57600080fd5b50610312610bd6565b3480156103ff57600080fd5b5061031261040e36600461303f565b610c0f565b34801561041f57600080fd5b5061031261042e3660046132c4565b610c2a565b61031261044136600461312d565b610ca4565b34801561045257600080fd5b5060145461027490610100900460ff1681565b34801561047157600080fd5b50610345610a6881565b34801561048757600080fd5b506014546102749062010000900460ff1681565b3480156104a757600080fd5b506103456104b63660046132c4565b610e9c565b6103126104c936600461312d565b610f2f565b3480156104da57600080fd5b50600a5460ff16610274565b3480156104f257600080fd5b506102e56105013660046132c4565b6110f8565b34801561051257600080fd5b506103456103e781565b34801561052857600080fd5b50610312610537366004613198565b61116f565b34801561054857600080fd5b5061031261127c565b34801561055d57600080fd5b5061034561056c366004612ff1565b6112bf565b34801561057d57600080fd5b50610312611346565b34801561059257600080fd5b5061031261137f565b3480156105a757600080fd5b50610312611411565b3480156105bc57600080fd5b506103456701b4fbd92b5f800081565b3480156105d857600080fd5b506102e5611448565b3480156105ed57600080fd5b506103126105fc366004613220565b611457565b34801561060d57600080fd5b506102b86114d9565b34801561062257600080fd5b506103126106313660046130f6565b6114e8565b61031261064436600461312d565b6115a9565b34801561065557600080fd5b50601454610274906301000000900460ff1681565b61031261067836600461312d565b611794565b34801561068957600080fd5b5061031261069836600461307b565b61189c565b3480156106a957600080fd5b506102b86118d4565b3480156106be57600080fd5b506102b86106cd3660046132c4565b611962565b3480156106de57600080fd5b50610312611a2e565b3480156106f357600080fd5b5061034560165481565b34801561070957600080fd5b50610312610718366004613157565b611a7a565b34801561072957600080fd5b50610312611bd0565b34801561073e57600080fd5b5061034561138381565b34801561075457600080fd5b50610345600381565b34801561076957600080fd5b5061027461077836600461300c565b611c1e565b34801561078957600080fd5b50610345611c4c565b34801561079e57600080fd5b50610345602181565b3480156107b357600080fd5b506103126107c2366004612ff1565b611eab565b3480156107d357600080fd5b506103126107e2366004613157565b611f48565b60006107f28261209e565b92915050565b606060008054610807906136ca565b80601f0160208091040260200160405190810160405280929190818152602001828054610833906136ca565b80156108805780601f1061085557610100808354040283529160200191610880565b820191906000526020600020905b81548152906001019060200180831161086357829003601f168201915b5050505050905090565b6000610895826120c3565b6108fb5760405162461bcd60e51b815260206004820152602c60248201527f4552433732313a20617070726f76656420717565727920666f72206e6f6e657860448201526b34b9ba32b73a103a37b5b2b760a11b60648201526084015b60405180910390fd5b506000908152600460205260409020546001600160a01b031690565b6000610922826110f8565b9050806001600160a01b0316836001600160a01b031614156109905760405162461bcd60e51b815260206004820152602160248201527f4552433732313a20617070726f76616c20746f2063757272656e74206f776e656044820152603960f91b60648201526084016108f2565b336001600160a01b03821614806109ac57506109ac8133611c1e565b610a195760405162461bcd60e51b815260206004820152603860248201527f4552433732313a20617070726f76652063616c6c6572206973206e6f74206f776044820152771b995c881b9bdc88185c1c1c9bdd995908199bdc88185b1b60421b60648201526084016108f2565b610a2383836120e0565b505050565b33610a31611448565b6001600160a01b031614610a575760405162461bcd60e51b81526004016108f290613545565b8051610a6a906015906020840190612e7c565b5050565b610a79335b8261214e565b610a955760405162461bcd60e51b81526004016108f2906135ab565b610a23838383612218565b6000610aab836112bf565b8210610b0d5760405162461bcd60e51b815260206004820152602b60248201527f455243373231456e756d657261626c653a206f776e657220696e646578206f7560448201526a74206f6620626f756e647360a81b60648201526084016108f2565b506001600160a01b03919091166000908152600660209081526040808320938352929052205490565b33610b3f611448565b6001600160a01b031614610b655760405162461bcd60e51b81526004016108f290613545565b8051610a6a90600e906020840190612e7c565b33610b81611448565b6001600160a01b031614610ba75760405162461bcd60e51b81526004016108f290613545565b6040514790339082156108fc029083906000818181858888f19350505050158015610a6a573d6000803e3d6000fd5b33610bdf611448565b6001600160a01b031614610c055760405162461bcd60e51b81526004016108f290613545565b610c0d6123b1565b565b610a238383836040518060200160405280600081525061189c565b610c3333610a73565b610c985760405162461bcd60e51b815260206004820152603060248201527f4552433732314275726e61626c653a2063616c6c6572206973206e6f74206f7760448201526f1b995c881b9bdc88185c1c1c9bdd995960821b60648201526084016108f2565b610ca181612434565b50565b601454610100900460ff16610cf15760405162461bcd60e51b815260206004820152601360248201527250726553616c65206973206e6f74206c69766560681b60448201526064016108f2565b3360009081526010602052604090205460ff16610d4b5760405162461bcd60e51b8152602060048201526018602482015277155cd95c881b9bdd081bdb88141c9954d85b19481b1a5cdd60421b60448201526064016108f2565b610a6881610d5860085490565b610d629190613625565b1115610da65760405162461bcd60e51b8152602060048201526013602482015272141c9954d85b19481a5cc81cdbdb19081bdd5d606a1b60448201526064016108f2565b336000908152601260209081526040808320546011909252909120546003918391610dd19190613625565b610ddb9190613625565b1115610df95760405162461bcd60e51b81526004016108f290613512565b610e0b816701b4fbd92b5f8000613651565b341015610e2a5760405162461bcd60e51b81526004016108f2906134db565b60005b81811015610e7057336000908152601260205260408120805491610e5083613705565b9190505550610e5e836124c9565b80610e6881613705565b915050610e2d565b506000805160206137c78339815191528282604051610e90929190613436565b60405180910390a15050565b6000610ea760085490565b8210610f0a5760405162461bcd60e51b815260206004820152602c60248201527f455243373231456e756d657261626c653a20676c6f62616c20696e646578206f60448201526b7574206f6620626f756e647360a01b60648201526084016108f2565b60088281548110610f1d57610f1d613776565b90600052602060002001549050919050565b60145460ff16610f815760405162461bcd60e51b815260206004820152601e60248201527f4561726c792041646f707465722073616c65206973206e6f74206c697665000060448201526064016108f2565b336000908152600f602052604090205460ff16610fe05760405162461bcd60e51b815260206004820152601e60248201527f55736572206e6f74206f6e204561726c792041646f70746572206c697374000060448201526064016108f2565b6103e781610fed60085490565b610ff79190613625565b11156110455760405162461bcd60e51b815260206004820152601e60248201527f4561726c792041646f707465722073616c6520697320736f6c64206f7574000060448201526064016108f2565b33600090815260116020526040902054600390611063908390613625565b11156110815760405162461bcd60e51b81526004016108f290613512565b611093816701b4fbd92b5f8000613651565b3410156110b25760405162461bcd60e51b81526004016108f2906134db565b60005b81811015610e70573360009081526011602052604081208054916110d883613705565b91905055506110e6836124c9565b806110f081613705565b9150506110b5565b6000818152600260205260408120546001600160a01b0316806107f25760405162461bcd60e51b815260206004820152602960248201527f4552433732313a206f776e657220717565727920666f72206e6f6e657869737460448201526832b73a103a37b5b2b760b91b60648201526084016108f2565b33611178611448565b6001600160a01b03161461119e5760405162461bcd60e51b81526004016108f290613545565b8281146111aa57600080fd5b60005b838110156112755760008585838181106111c9576111c9613776565b90506020020160208101906111de9190612ff1565b6001600160a01b031614156112055760405162461bcd60e51b81526004016108f29061357a565b82828281811061121757611217613776565b905060200201356013600087878581811061123457611234613776565b90506020020160208101906112499190612ff1565b6001600160a01b031681526020810191909152604001600020558061126d81613705565b9150506111ad565b5050505050565b33611285611448565b6001600160a01b0316146112ab5760405162461bcd60e51b81526004016108f290613545565b6014805460ff19811660ff90911615179055565b60006001600160a01b03821661132a5760405162461bcd60e51b815260206004820152602a60248201527f4552433732313a2062616c616e636520717565727920666f7220746865207a65604482015269726f206164647265737360b01b60648201526084016108f2565b506001600160a01b031660009081526003602052604090205490565b3361134f611448565b6001600160a01b0316146113755760405162461bcd60e51b81526004016108f290613545565b610c0d60006124e9565b33611388611448565b6001600160a01b0316146113ae5760405162461bcd60e51b81526004016108f290613545565b60005b60218110156113e6576113c633600d5461253b565b6113d4600d80546001019055565b806113de81613705565b9150506113b1565b506000805160206137c7833981519152336021604051611407929190613436565b60405180910390a1565b3361141a611448565b6001600160a01b0316146114405760405162461bcd60e51b81526004016108f290613545565b610c0d612555565b600c546001600160a01b031690565b336001600160a01b037f000000000000000000000000000000000000000000000000000000000000000016146114cf5760405162461bcd60e51b815260206004820152601f60248201527f4f6e6c7920565246436f6f7264696e61746f722063616e2066756c66696c6c0060448201526064016108f2565b610a6a82826125d0565b606060018054610807906136ca565b6001600160a01b03821633141561153d5760405162461bcd60e51b815260206004820152601960248201527822a9219b99189d1030b8383937bb32903a379031b0b63632b960391b60448201526064016108f2565b3360008181526005602090815260408083206001600160a01b03871680855290835292819020805460ff191686151590811790915590519081529192917f17307eab39ab6107e8899845ad3d59bd9653f200f220920489ca2b5937696c31910160405180910390a35050565b60145462010000900460ff166115fe5760405162461bcd60e51b815260206004820152601a6024820152794d696e7420706173732073616c65206973206e6f74206c69766560301b60448201526064016108f2565b336000908152601360205260409020546116655760405162461bcd60e51b815260206004820152602260248201527f5573657220646f6573206e6f7420686176652076616c6964206d696e74207061604482015261737360f01b60648201526084016108f2565b6113838161167260085490565b61167c9190613625565b11156116c75760405162461bcd60e51b815260206004820152601a602482015279135a5b9d081c185cdcc81cd85b19481a5cc81cdbdb19081bdd5d60321b60448201526064016108f2565b6116d9816701b4fbd92b5f8000613651565b3410156116f85760405162461bcd60e51b81526004016108f2906134db565b60005b81811015610e7057336000908152601360205260409020546117595760405162461bcd60e51b8152602060048201526017602482015276139bc81b5a5b9d081c185cdcc81b5a5b9d1cc81b19599d604a1b60448201526064016108f2565b336000908152601360205260408120805491611774836136b3565b9190505550611782836124c9565b8061178c81613705565b9150506116fb565b611e61816117a160085490565b6117ab9190613625565b11156117f75760405162461bcd60e51b815260206004820152601b60248201527a50757263686173652065786365656473206d617820737570706c7960281b60448201526064016108f2565b60038111156118455760405162461bcd60e51b815260206004820152601a6024820152794f726465722065786365656473206d6178207175616e7469747960301b60448201526064016108f2565b611857816701b4fbd92b5f8000613651565b3410156118765760405162461bcd60e51b81526004016108f2906134db565b60005b81811015610e705761188a836124c9565b8061189481613705565b915050611879565b6118a6338361214e565b6118c25760405162461bcd60e51b81526004016108f2906135ab565b6118ce8484848461262d565b50505050565b601580546118e1906136ca565b80601f016020809104026020016040519081016040528092919081815260200182805461190d906136ca565b801561195a5780601f1061192f5761010080835404028352916020019161195a565b820191906000526020600020905b81548152906001019060200180831161193d57829003601f168201915b505050505081565b606061196d826120c3565b6119d25760405162461bcd60e51b815260206004820152603060248201527f4552433732314d657461646174613a2055524920717565727920666f72206e6f60448201526f3732bc34b9ba32b73a103a37b5b2b71760811b60648201526084016108f2565b6000600e80546119e1906136ca565b9050116119fd57604051806020016040528060008152506107f2565b600e611a0883612660565b604051602001611a1992919061333e565b60405160208183030381529060405292915050565b33611a37611448565b6001600160a01b031614611a5d5760405162461bcd60e51b81526004016108f290613545565b6014805461ff001981166101009182900460ff1615909102179055565b33611a83611448565b6001600160a01b031614611aa95760405162461bcd60e51b81526004016108f290613545565b60005b81811015610a23576000838383818110611ac857611ac8613776565b9050602002016020810190611add9190612ff1565b6001600160a01b03161415611b045760405162461bcd60e51b81526004016108f29061357a565b60106000848484818110611b1a57611b1a613776565b9050602002016020810190611b2f9190612ff1565b6001600160a01b0316815260208101919091526040016000205460ff1615611b695760405162461bcd60e51b81526004016108f2906135fc565b600160106000858585818110611b8157611b81613776565b9050602002016020810190611b969190612ff1565b6001600160a01b031681526020810191909152604001600020805460ff191691151591909117905580611bc881613705565b915050611aac565b33611bd9611448565b6001600160a01b031614611bff5760405162461bcd60e51b81526004016108f290613545565b6014805462ff0000198116620100009182900460ff1615909102179055565b6001600160a01b03918216600090815260056020908152604080832093909416825291909152205460ff1690565b60008060158054611c5c906136ca565b80601f0160208091040260200160405190810160405280929190818152602001828054611c88906136ca565b8015611cd55780601f10611caa57610100808354040283529160200191611cd5565b820191906000526020600020905b815481529060010190602001808311611cb857829003601f168201915b505050505090506000815111611d2b5760405162461bcd60e51b815260206004820152601b60248201527a09ccacac840e8de40e6cae840e0e4deeccadcc2dcc6ca40d0c2e6d602b1b60448201526064016108f2565b60165415611d7b5760405162461bcd60e51b815260206004820152601d60248201527f5374617274696e6720696e64657820697320616c72656164792073657400000060448201526064016108f2565b6018546040516370a0823160e01b81526001600160a01b037f000000000000000000000000000000000000000000000000000000000000000016906370a0823190611dca9030906004016133e5565b60206040518083038186803b158015611de257600080fd5b505afa158015611df6573d6000803e3d6000fd5b505050506040513d601f19601f82011682018060405250810190611e1a91906132dd565b1015611e5a5760405162461bcd60e51b815260206004820152600f60248201526e4e6f7420656e6f756768204c494e4b60881b60448201526064016108f2565b6000611e6a60175460185461275d565b90507fe5f5b44d72d4143c278eb745c4acc0695c4a5bc616be5beecf46abe29661780e81604051611e9d91815260200190565b60405180910390a192915050565b33611eb4611448565b6001600160a01b031614611eda5760405162461bcd60e51b81526004016108f290613545565b6001600160a01b038116611f3f5760405162461bcd60e51b815260206004820152602660248201527f4f776e61626c653a206e6577206f776e657220697320746865207a65726f206160448201526564647265737360d01b60648201526084016108f2565b610ca1816124e9565b33611f51611448565b6001600160a01b031614611f775760405162461bcd60e51b81526004016108f290613545565b60005b81811015610a23576000838383818110611f9657611f96613776565b9050602002016020810190611fab9190612ff1565b6001600160a01b03161415611fd25760405162461bcd60e51b81526004016108f29061357a565b600f6000848484818110611fe857611fe8613776565b9050602002016020810190611ffd9190612ff1565b6001600160a01b0316815260208101919091526040016000205460ff16156120375760405162461bcd60e51b81526004016108f2906135fc565b6001600f600085858581811061204f5761204f613776565b90506020020160208101906120649190612ff1565b6001600160a01b031681526020810191909152604001600020805460ff19169115159190911790558061209681613705565b915050611f7a565b60006001600160e01b0319821663780e9d6360e01b14806107f257506107f2826128e8565b6000908152600260205260409020546001600160a01b0316151590565b600081815260046020526040902080546001600160a01b0319166001600160a01b0384169081179091558190612115826110f8565b6001600160a01b03167f8c5be1e5ebec7d5bd14f71427d1e84f3dd0314c0f7b2291e5b200ac8c7c3b92560405160405180910390a45050565b6000612159826120c3565b6121ba5760405162461bcd60e51b815260206004820152602c60248201527f4552433732313a206f70657261746f7220717565727920666f72206e6f6e657860448201526b34b9ba32b73a103a37b5b2b760a11b60648201526084016108f2565b60006121c5836110f8565b9050806001600160a01b0316846001600160a01b031614806122005750836001600160a01b03166121f58461088a565b6001600160a01b0316145b8061221057506122108185611c1e565b949350505050565b826001600160a01b031661222b826110f8565b6001600160a01b0316146122935760405162461bcd60e51b815260206004820152602960248201527f4552433732313a207472616e73666572206f6620746f6b656e2074686174206960448201526839903737ba1037bbb760b91b60648201526084016108f2565b6001600160a01b0382166122f55760405162461bcd60e51b8152602060048201526024808201527f4552433732313a207472616e7366657220746f20746865207a65726f206164646044820152637265737360e01b60648201526084016108f2565b612300838383612938565b61230b6000826120e0565b6001600160a01b0383166000908152600360205260408120805460019290612334908490613670565b90915550506001600160a01b0382166000908152600360205260408120805460019290612362908490613625565b909155505060008181526002602052604080822080546001600160a01b0319166001600160a01b0386811691821790925591518493918716916000805160206137e783398151915291a4505050565b600a5460ff166123fa5760405162461bcd60e51b815260206004820152601460248201527314185d5cd8589b194e881b9bdd081c185d5cd95960621b60448201526064016108f2565b600a805460ff191690557f5db9ee0a495bf2e6ff9c91a7834c1ba4fdd244a5e8aa4e537bd38aeae4b073aa335b60405161140791906133e5565b600061243f826110f8565b905061244d81600084612938565b6124586000836120e0565b6001600160a01b0381166000908152600360205260408120805460019290612481908490613670565b909155505060008281526002602052604080822080546001600160a01b0319169055518391906001600160a01b038416906000805160206137e7833981519152908390a45050565b6124d7600d80546001019055565b610ca1816124e4600d5490565b612943565b600c80546001600160a01b038381166001600160a01b0319831681179093556040519116919082907f8be0079c531659141344cd1fd0a4f28419497f9722a3daafe3b4186f6b6457e090600090a35050565b610a6a828260405180602001604052806000815250612a6f565b600a5460ff161561259b5760405162461bcd60e51b815260206004820152601060248201526f14185d5cd8589b194e881c185d5cd95960821b60448201526064016108f2565b600a805460ff191660011790557f62e78cea01bee320cd4e420270b5ea74000d11b0c9f74754ebdbfc544b05a2586124273390565b6125dc611e6182613720565b60168190556125f7576016546125f3906001612aa2565b6016555b60408051838152602081018390527fa0562a0d65ac91c22f0819742210c3d20adb1237260606aef60af9717484950d9101610e90565b612638848484612218565b61264484848484612ab5565b6118ce5760405162461bcd60e51b81526004016108f290613489565b6060816126845750506040805180820190915260018152600360fc1b602082015290565b8160005b81156126ae578061269881613705565b91506126a79050600a8361363d565b9150612688565b6000816001600160401b038111156126c8576126c861378c565b6040519080825280601f01601f1916602001820160405280156126f2576020820181803683370190505b5090505b841561221057612707600183613670565b9150612714600a86613720565b61271f906030613625565b60f81b81838151811061273457612734613776565b60200101906001600160f81b031916908160001a905350612756600a8661363d565b94506126f6565b60007f00000000000000000000000000000000000000000000000000000000000000006001600160a01b0316634000aea07f0000000000000000000000000000000000000000000000000000000000000000848660006040516020016127cd929190918252602082015260400190565b6040516020818303038152906040526040518463ffffffff1660e01b81526004016127fa9392919061344f565b602060405180830381600087803b15801561281457600080fd5b505af1158015612828573d6000803e3d6000fd5b505050506040513d601f19601f8201168201806040525081019061284c9190613203565b506000838152600b6020818152604080842054815180840189905280830186905230606082015260808082018390528351808303909101815260a0909101909252815191830191909120938790529190526128a8906001613625565b6000858152600b60205260409020556122108482604080516020808201949094528082019290925280518083038201815260609092019052805191012090565b60006001600160e01b031982166380ac58cd60e01b148061291957506001600160e01b03198216635b5e139f60e01b145b806107f257506301ffc9a760e01b6001600160e01b03198316146107f2565b610a23838383612bc2565b6001600160a01b0382166129995760405162461bcd60e51b815260206004820181905260248201527f4552433732313a206d696e7420746f20746865207a65726f206164647265737360448201526064016108f2565b6129a2816120c3565b156129ee5760405162461bcd60e51b815260206004820152601c60248201527b115490cdcc8c4e881d1bdad95b88185b1c9958591e481b5a5b9d195960221b60448201526064016108f2565b6129fa60008383612938565b6001600160a01b0382166000908152600360205260408120805460019290612a23908490613625565b909155505060008181526002602052604080822080546001600160a01b0319166001600160a01b03861690811790915590518392906000805160206137e7833981519152908290a45050565b612a798383612943565b612a866000848484612ab5565b610a235760405162461bcd60e51b81526004016108f290613489565b6000612aae8284613625565b9392505050565b60006001600160a01b0384163b15612bb757604051630a85bd0160e11b81526001600160a01b0385169063150b7a0290612af99033908990889088906004016133f9565b602060405180830381600087803b158015612b1357600080fd5b505af1925050508015612b43575060408051601f3d908101601f19168201909252612b409181019061325f565b60015b612b9d573d808015612b71576040519150601f19603f3d011682016040523d82523d6000602084013e612b76565b606091505b508051612b955760405162461bcd60e51b81526004016108f290613489565b805181602001fd5b6001600160e01b031916630a85bd0160e11b149050612210565b506001949350505050565b612bcd838383612c34565b600a5460ff1615610a235760405162461bcd60e51b815260206004820152602b60248201527f4552433732315061757361626c653a20746f6b656e207472616e73666572207760448201526a1a1a5b19481c185d5cd95960aa1b60648201526084016108f2565b6001600160a01b038316612c8f57612c8a81600880546000838152600960205260408120829055600182018355919091527ff3f7a9fe364faab93b216da50a3214154f22a0a2b415b23a84c8169e8b636ee30155565b612cb2565b816001600160a01b0316836001600160a01b031614612cb257612cb28382612cec565b6001600160a01b038216612cc957610a2381612d89565b826001600160a01b0316826001600160a01b031614610a2357610a238282612e38565b60006001612cf9846112bf565b612d039190613670565b600083815260076020526040902054909150808214612d56576001600160a01b03841660009081526006602090815260408083208584528252808320548484528184208190558352600790915290208190555b5060009182526007602090815260408084208490556001600160a01b039094168352600681528383209183525290812055565b600854600090612d9b90600190613670565b60008381526009602052604081205460088054939450909284908110612dc357612dc3613776565b906000526020600020015490508060088381548110612de457612de4613776565b6000918252602080832090910192909255828152600990915260408082208490558582528120556008805480612e1c57612e1c613760565b6001900381819060005260206000200160009055905550505050565b6000612e43836112bf565b6001600160a01b039093166000908152600660209081526040808320868452825280832085905593825260079052919091209190915550565b828054612e88906136ca565b90600052602060002090601f016020900481019282612eaa5760008555612ef0565b82601f10612ec357805160ff1916838001178555612ef0565b82800160010185558215612ef0579182015b82811115612ef0578251825591602001919060010190612ed5565b50612efc929150612f00565b5090565b5b80821115612efc5760008155600101612f01565b60006001600160401b0380841115612f2f57612f2f61378c565b604051601f8501601f19908116603f01168101908282118183101715612f5757612f5761378c565b81604052809350858152868686011115612f7057600080fd5b858560208301376000602087830101525050509392505050565b80356001600160a01b0381168114612fa157600080fd5b919050565b60008083601f840112612fb857600080fd5b5081356001600160401b03811115612fcf57600080fd5b6020830191508360208260051b8501011115612fea57600080fd5b9250929050565b60006020828403121561300357600080fd5b612aae82612f8a565b6000806040838503121561301f57600080fd5b61302883612f8a565b915061303660208401612f8a565b90509250929050565b60008060006060848603121561305457600080fd5b61305d84612f8a565b925061306b60208501612f8a565b9150604084013590509250925092565b6000806000806080858703121561309157600080fd5b61309a85612f8a565b93506130a860208601612f8a565b92506040850135915060608501356001600160401b038111156130ca57600080fd5b8501601f810187136130db57600080fd5b6130ea87823560208401612f15565b91505092959194509250565b6000806040838503121561310957600080fd5b61311283612f8a565b91506020830135613122816137a2565b809150509250929050565b6000806040838503121561314057600080fd5b61314983612f8a565b946020939093013593505050565b6000806020838503121561316a57600080fd5b82356001600160401b0381111561318057600080fd5b61318c85828601612fa6565b90969095509350505050565b600080600080604085870312156131ae57600080fd5b84356001600160401b03808211156131c557600080fd5b6131d188838901612fa6565b909650945060208701359150808211156131ea57600080fd5b506131f787828801612fa6565b95989497509550505050565b60006020828403121561321557600080fd5b8151612aae816137a2565b6000806040838503121561323357600080fd5b50508035926020909101359150565b60006020828403121561325457600080fd5b8135612aae816137b0565b60006020828403121561327157600080fd5b8151612aae816137b0565b60006020828403121561328e57600080fd5b81356001600160401b038111156132a457600080fd5b8201601f810184136132b557600080fd5b61221084823560208401612f15565b6000602082840312156132d657600080fd5b5035919050565b6000602082840312156132ef57600080fd5b5051919050565b6000815180845261330e816020860160208601613687565b601f01601f19169290920160200192915050565b60008151613334818560208601613687565b9290920192915050565b600080845481600182811c91508083168061335a57607f831692505b602080841082141561337a57634e487b7160e01b86526022600452602486fd5b81801561338e576001811461339f576133cc565b60ff198616895284890196506133cc565b60008b81526020902060005b868110156133c45781548b8201529085019083016133ab565b505084890196505b5050505050506133dc8185613322565b95945050505050565b6001600160a01b0391909116815260200190565b6001600160a01b038581168252841660208201526040810183905260806060820181905260009061342c908301846132f6565b9695505050505050565b6001600160a01b03929092168252602082015260400190565b60018060a01b03841681528260208201526060604082015260006133dc60608301846132f6565b602081526000612aae60208301846132f6565b60208082526032908201527f4552433732313a207472616e7366657220746f206e6f6e20455243373231526560408201527131b2b4bb32b91034b6b83632b6b2b73a32b960711b606082015260800190565b6020808252601f908201527f45746865722076616c75652073656e74206973206e6f7420636f727265637400604082015260600190565b602080825260199082015278131a5b5a5d081c195c881dd85b1b195d08195e18d959591959603a1b604082015260600190565b6020808252818101527f4f776e61626c653a2063616c6c6572206973206e6f7420746865206f776e6572604082015260600190565b60208082526017908201527643616e6e6f7420616464206e756c6c206164647265737360481b604082015260600190565b60208082526031908201527f4552433732313a207472616e736665722063616c6c6572206973206e6f74206f6040820152701ddb995c881b9bdc88185c1c1c9bdd9959607a1b606082015260800190565b6020808252600f908201526e4475706c696361746520656e74727960881b604082015260600190565b6000821982111561363857613638613734565b500190565b60008261364c5761364c61374a565b500490565b600081600019048311821515161561366b5761366b613734565b500290565b60008282101561368257613682613734565b500390565b60005b838110156136a257818101518382015260200161368a565b838111156118ce5750506000910152565b6000816136c2576136c2613734565b506000190190565b600181811c908216806136de57607f821691505b602082108114156136ff57634e487b7160e01b600052602260045260246000fd5b50919050565b600060001982141561371957613719613734565b5060010190565b60008261372f5761372f61374a565b500690565b634e487b7160e01b600052601160045260246000fd5b634e487b7160e01b600052601260045260246000fd5b634e487b7160e01b600052603160045260246000fd5b634e487b7160e01b600052603260045260246000fd5b634e487b7160e01b600052604160045260246000fd5b8015158114610ca157600080fd5b6001600160e01b031981168114610ca157600080fdfe48ab551616fa96d8766a4795180ef0312e24b226fc48f24d0bef6494b31d9df7ddf252ad1be2c89b69c2b068fc378daa952ba7f163c4a11628f55a4df523b3efa2646970667358221220a80cdc09ef0c2f57072fea53a49a45248bf7652a672859ecb989f895e6e3534664736f6c63430008070033",
  "linkReferences": {},
  "deployedLinkReferences": {}
}