{
  "_format": "hh-sol-artifact-1",
  "contractName": "MetaTravelers",
  "sourceName": "contracts/MetaTravelers.sol",
  "abi": [
    {
      "inputs": [
        {
          "internalType": "string",
          "name": "name",
          "type": "string"
        },
        {
          "internalType": "string",
          "name": "symbol",
          "type": "string"
        },
        {
          "internalType": "string",
          "name": "baseTokenURI",
          "type": "string"
        }
      ],
      "stateMutability": "nonpayable",
      "type": "constructor"
    },
    {
      "anonymous": false,
      "inputs": [
        {
          "indexed": true,
          "internalType": "address",
          "name": "owner",
          "type": "address"
        },
        {
          "indexed": true,
          "internalType": "address",
          "name": "approved",
          "type": "address"
        },
        {
          "indexed": true,
          "internalType": "uint256",
          "name": "tokenId",
          "type": "uint256"
        }
      ],
      "name": "Approval",
      "type": "event"
    },
    {
      "anonymous": false,
      "inputs": [
        {
          "indexed": true,
          "internalType": "address",
          "name": "owner",
          "type": "address"
        },
        {
          "indexed": true,
          "internalType": "address",
          "name": "operator",
          "type": "address"
        },
        {
          "indexed": false,
          "internalType": "bool",
          "name": "approved",
          "type": "bool"
        }
      ],
      "name": "ApprovalForAll",
      "type": "event"
    },
    {
      "anonymous": false,
      "inputs": [
        {
          "indexed": false,
          "internalType": "address",
          "name": "owner",
          "type": "address"
        },
        {
          "indexed": false,
          "internalType": "uint256",
          "name": "quantity",
          "type": "uint256"
        }
      ],
      "name": "AssetsMinted",
      "type": "event"
    },
    {
      "anonymous": false,
      "inputs": [
        {
          "indexed": true,
          "internalType": "address",
          "name": "previousOwner",
          "type": "address"
        },
        {
          "indexed": true,
          "internalType": "address",
          "name": "newOwner",
          "type": "address"
        }
      ],
      "name": "OwnershipTransferred",
      "type": "event"
    },
    {
      "anonymous": false,
      "inputs": [
        {
          "indexed": false,
          "internalType": "address",
          "name": "account",
          "type": "address"
        }
      ],
      "name": "Paused",
      "type": "event"
    },
    {
      "anonymous": false,
      "inputs": [
        {
          "indexed": true,
          "internalType": "address",
          "name": "from",
          "type": "address"
        },
        {
          "indexed": true,
          "internalType": "address",
          "name": "to",
          "type": "address"
        },
        {
          "indexed": true,
          "internalType": "uint256",
          "name": "tokenId",
          "type": "uint256"
        }
      ],
      "name": "Transfer",
      "type": "event"
    },
    {
      "anonymous": false,
      "inputs": [
        {
          "indexed": false,
          "internalType": "address",
          "name": "account",
          "type": "address"
        }
      ],
      "name": "Unpaused",
      "type": "event"
    },
    {
      "inputs": [
        {
          "internalType": "address",
          "name": "to",
          "type": "address"
        },
        {
          "internalType": "uint256",
          "name": "tokenId",
          "type": "uint256"
        }
      ],
      "name": "approve",
      "outputs": [],
      "stateMutability": "nonpayable",
      "type": "function"
    },
    {
      "inputs": [
        {
          "internalType": "address",
          "name": "owner",
          "type": "address"
        }
      ],
      "name": "balanceOf",
      "outputs": [
        {
          "internalType": "uint256",
          "name": "",
          "type": "uint256"
        }
      ],
      "stateMutability": "view",
      "type": "function"
    },
    {
      "inputs": [
        {
          "internalType": "uint256",
          "name": "tokenId",
          "type": "uint256"
        }
      ],
      "name": "burn",
      "outputs": [],
      "stateMutability": "nonpayable",
      "type": "function"
    },
    {
      "inputs": [
        {
          "internalType": "uint256",
          "name": "tokenId",
          "type": "uint256"
        }
      ],
      "name": "getApproved",
      "outputs": [
        {
          "internalType": "address",
          "name": "",
          "type": "address"
        }
      ],
      "stateMutability": "view",
      "type": "function"
    },
    {
      "inputs": [
        {
          "internalType": "address",
          "name": "owner",
          "type": "address"
        },
        {
          "internalType": "address",
          "name": "operator",
          "type": "address"
        }
      ],
      "name": "isApprovedForAll",
      "outputs": [
        {
          "internalType": "bool",
          "name": "",
          "type": "bool"
        }
      ],
      "stateMutability": "view",
      "type": "function"
    },
    {
      "inputs": [],
      "name": "maxSupply",
      "outputs": [
        {
          "internalType": "uint256",
          "name": "",
          "type": "uint256"
        }
      ],
      "stateMutability": "view",
      "type": "function"
    },
    {
      "inputs": [
        {
          "internalType": "address",
          "name": "to",
          "type": "address"
        },
        {
          "internalType": "uint256",
          "name": "quantity",
          "type": "uint256"
        }
      ],
      "name": "mint",
      "outputs": [],
      "stateMutability": "payable",
      "type": "function"
    },
    {
      "inputs": [],
      "name": "name",
      "outputs": [
        {
          "internalType": "string",
          "name": "",
          "type": "string"
        }
      ],
      "stateMutability": "view",
      "type": "function"
    },
    {
      "inputs": [],
      "name": "owner",
      "outputs": [
        {
          "internalType": "address",
          "name": "",
          "type": "address"
        }
      ],
      "stateMutability": "view",
      "type": "function"
    },
    {
      "inputs": [
        {
          "internalType": "uint256",
          "name": "tokenId",
          "type": "uint256"
        }
      ],
      "name": "ownerOf",
      "outputs": [
        {
          "internalType": "address",
          "name": "",
          "type": "address"
        }
      ],
      "stateMutability": "view",
      "type": "function"
    },
    {
      "inputs": [],
      "name": "pause",
      "outputs": [],
      "stateMutability": "nonpayable",
      "type": "function"
    },
    {
      "inputs": [],
      "name": "paused",
      "outputs": [
        {
          "internalType": "bool",
          "name": "",
          "type": "bool"
        }
      ],
      "stateMutability": "view",
      "type": "function"
    },
    {
      "inputs": [],
      "name": "renounceOwnership",
      "outputs": [],
      "stateMutability": "nonpayable",
      "type": "function"
    },
    {
      "inputs": [
        {
          "internalType": "address",
          "name": "from",
          "type": "address"
        },
        {
          "internalType": "address",
          "name": "to",
          "type": "address"
        },
        {
          "internalType": "uint256",
          "name": "tokenId",
          "type": "uint256"
        }
      ],
      "name": "safeTransferFrom",
      "outputs": [],
      "stateMutability": "nonpayable",
      "type": "function"
    },
    {
      "inputs": [
        {
          "internalType": "address",
          "name": "from",
          "type": "address"
        },
        {
          "internalType": "address",
          "name": "to",
          "type": "address"
        },
        {
          "internalType": "uint256",
          "name": "tokenId",
          "type": "uint256"
        },
        {
          "internalType": "bytes",
          "name": "_data",
          "type": "bytes"
        }
      ],
      "name": "safeTransferFrom",
      "outputs": [],
      "stateMutability": "nonpayable",
      "type": "function"
    },
    {
      "inputs": [
        {
          "internalType": "address",
          "name": "operator",
          "type": "address"
        },
        {
          "internalType": "bool",
          "name": "approved",
          "type": "bool"
        }
      ],
      "name": "setApprovalForAll",
      "outputs": [],
      "stateMutability": "nonpayable",
      "type": "function"
    },
    {
      "inputs": [
        {
          "internalType": "string",
          "name": "baseTokenURI",
          "type": "string"
        }
      ],
      "name": "setBaseTokenURI",
      "outputs": [],
      "stateMutability": "nonpayable",
      "type": "function"
    },
    {
      "inputs": [
        {
          "internalType": "bytes4",
          "name": "interfaceId",
          "type": "bytes4"
        }
      ],
      "name": "supportsInterface",
      "outputs": [
        {
          "internalType": "bool",
          "name": "",
          "type": "bool"
        }
      ],
      "stateMutability": "view",
      "type": "function"
    },
    {
      "inputs": [],
      "name": "symbol",
      "outputs": [
        {
          "internalType": "string",
          "name": "",
          "type": "string"
        }
      ],
      "stateMutability": "view",
      "type": "function"
    },
    {
      "inputs": [
        {
          "internalType": "uint256",
          "name": "index",
          "type": "uint256"
        }
      ],
      "name": "tokenByIndex",
      "outputs": [
        {
          "internalType": "uint256",
          "name": "",
          "type": "uint256"
        }
      ],
      "stateMutability": "view",
      "type": "function"
    },
    {
      "inputs": [
        {
          "internalType": "address",
          "name": "owner",
          "type": "address"
        },
        {
          "internalType": "uint256",
          "name": "index",
          "type": "uint256"
        }
      ],
      "name": "tokenOfOwnerByIndex",
      "outputs": [
        {
          "internalType": "uint256",
          "name": "",
          "type": "uint256"
        }
      ],
      "stateMutability": "view",
      "type": "function"
    },
    {
      "inputs": [
        {
          "internalType": "uint256",
          "name": "tokenId",
          "type": "uint256"
        }
      ],
      "name": "tokenURI",
      "outputs": [
        {
          "internalType": "string",
          "name": "",
          "type": "string"
        }
      ],
      "stateMutability": "view",
      "type": "function"
    },
    {
      "inputs": [],
      "name": "totalSupply",
      "outputs": [
        {
          "internalType": "uint256",
          "name": "",
          "type": "uint256"
        }
      ],
      "stateMutability": "view",
      "type": "function"
    },
    {
      "inputs": [
        {
          "internalType": "address",
          "name": "from",
          "type": "address"
        },
        {
          "internalType": "address",
          "name": "to",
          "type": "address"
        },
        {
          "internalType": "uint256",
          "name": "tokenId",
          "type": "uint256"
        }
      ],
      "name": "transferFrom",
      "outputs": [],
      "stateMutability": "nonpayable",
      "type": "function"
    },
    {
      "inputs": [
        {
          "internalType": "address",
          "name": "newOwner",
          "type": "address"
        }
      ],
      "name": "transferOwnership",
      "outputs": [],
      "stateMutability": "nonpayable",
      "type": "function"
    },
    {
      "inputs": [],
      "name": "unpause",
      "outputs": [],
      "stateMutability": "nonpayable",
      "type": "function"
    },
    {
      "inputs": [],
      "name": "withdraw",
      "outputs": [],
      "stateMutability": "nonpayable",
      "type": "function"
    }
  ],
  "bytecode": "0x6080604052611e61600b553480156200001757600080fd5b50604051620046a5380380620046a583398181016040528101906200003d9190620002c0565b82828160009080519060200190620000579291906200019e565b508060019080519060200190620000709291906200019e565b5050506000600a60006101000a81548160ff021916908315150217905550620000ae620000a2620000d060201b60201c565b620000d860201b60201c565b80600d9080519060200190620000c69291906200019e565b50505050620004d1565b600033905090565b6000600a60019054906101000a900473ffffffffffffffffffffffffffffffffffffffff16905081600a60016101000a81548173ffffffffffffffffffffffffffffffffffffffff021916908373ffffffffffffffffffffffffffffffffffffffff1602179055508173ffffffffffffffffffffffffffffffffffffffff168173ffffffffffffffffffffffffffffffffffffffff167f8be0079c531659141344cd1fd0a4f28419497f9722a3daafe3b4186f6b6457e060405160405180910390a35050565b828054620001ac90620003f6565b90600052602060002090601f016020900481019282620001d057600085556200021c565b82601f10620001eb57805160ff19168380011785556200021c565b828001600101855582156200021c579182015b828111156200021b578251825591602001919060010190620001fe565b5b5090506200022b91906200022f565b5090565b5b808211156200024a57600081600090555060010162000230565b5090565b6000620002656200025f846200038a565b62000361565b9050828152602081018484840111156200027e57600080fd5b6200028b848285620003c0565b509392505050565b600082601f830112620002a557600080fd5b8151620002b78482602086016200024e565b91505092915050565b600080600060608486031215620002d657600080fd5b600084015167ffffffffffffffff811115620002f157600080fd5b620002ff8682870162000293565b935050602084015167ffffffffffffffff8111156200031d57600080fd5b6200032b8682870162000293565b925050604084015167ffffffffffffffff8111156200034957600080fd5b620003578682870162000293565b9150509250925092565b60006200036d62000380565b90506200037b82826200042c565b919050565b6000604051905090565b600067ffffffffffffffff821115620003a857620003a762000491565b5b620003b382620004c0565b9050602081019050919050565b60005b83811015620003e0578082015181840152602081019050620003c3565b83811115620003f0576000848401525b50505050565b600060028204905060018216806200040f57607f821691505b6020821081141562000426576200042562000462565b5b50919050565b6200043782620004c0565b810181811067ffffffffffffffff8211171562000459576200045862000491565b5b80604052505050565b7f4e487b7100000000000000000000000000000000000000000000000000000000600052602260045260246000fd5b7f4e487b7100000000000000000000000000000000000000000000000000000000600052604160045260246000fd5b6000601f19601f8301169050919050565b6141c480620004e16000396000f3fe60806040526004361061019c5760003560e01c80634f6ccce7116100ec57806395d89b411161008a578063c87b56dd11610064578063c87b56dd1461057d578063d5abeb01146105ba578063e985e9c5146105e5578063f2fde38b146106225761019c565b806395d89b4114610500578063a22cb4651461052b578063b88d4fde146105545761019c565b806370a08231116100c657806370a082311461046a578063715018a6146104a75780638456cb59146104be5780638da5cb5b146104d55761019c565b80634f6ccce7146103c55780635c975abb146104025780636352211e1461042d5761019c565b80632f745c59116101595780633f4ba83a116101335780633f4ba83a1461034057806340c10f191461035757806342842e0e1461037357806342966c681461039c5761019c565b80632f745c59146102c357806330176e13146103005780633ccfd60b146103295761019c565b806301ffc9a7146101a157806306fdde03146101de578063081812fc14610209578063095ea7b31461024657806318160ddd1461026f57806323b872dd1461029a575b600080fd5b3480156101ad57600080fd5b506101c860048036038101906101c39190612cdb565b61064b565b6040516101d59190613305565b60405180910390f35b3480156101ea57600080fd5b506101f361065d565b6040516102009190613320565b60405180910390f35b34801561021557600080fd5b50610230600480360381019061022b9190612d6e565b6106ef565b60405161023d9190613275565b60405180910390f35b34801561025257600080fd5b5061026d60048036038101906102689190612c9f565b610774565b005b34801561027b57600080fd5b5061028461088c565b6040516102919190613662565b60405180910390f35b3480156102a657600080fd5b506102c160048036038101906102bc9190612b99565b610899565b005b3480156102cf57600080fd5b506102ea60048036038101906102e59190612c9f565b6108f9565b6040516102f79190613662565b60405180910390f35b34801561030c57600080fd5b5061032760048036038101906103229190612d2d565b61099e565b005b34801561033557600080fd5b5061033e610a34565b005b34801561034c57600080fd5b50610355610b06565b005b610371600480360381019061036c9190612c9f565b610b8c565b005b34801561037f57600080fd5b5061039a60048036038101906103959190612b99565b610cf6565b005b3480156103a857600080fd5b506103c360048036038101906103be9190612d6e565b610d16565b005b3480156103d157600080fd5b506103ec60048036038101906103e79190612d6e565b610d72565b6040516103f99190613662565b60405180910390f35b34801561040e57600080fd5b50610417610e09565b6040516104249190613305565b60405180910390f35b34801561043957600080fd5b50610454600480360381019061044f9190612d6e565b610e20565b6040516104619190613275565b60405180910390f35b34801561047657600080fd5b50610491600480360381019061048c9190612b34565b610ed2565b60405161049e9190613662565b60405180910390f35b3480156104b357600080fd5b506104bc610f8a565b005b3480156104ca57600080fd5b506104d3611012565b005b3480156104e157600080fd5b506104ea611098565b6040516104f79190613275565b60405180910390f35b34801561050c57600080fd5b506105156110c2565b6040516105229190613320565b60405180910390f35b34801561053757600080fd5b50610552600480360381019061054d9190612c63565b611154565b005b34801561056057600080fd5b5061057b60048036038101906105769190612be8565b6112d5565b005b34801561058957600080fd5b506105a4600480360381019061059f9190612d6e565b611337565b6040516105b19190613320565b60405180910390f35b3480156105c657600080fd5b506105cf6113df565b6040516105dc9190613662565b60405180910390f35b3480156105f157600080fd5b5061060c60048036038101906106079190612b5d565b6113e5565b6040516106199190613305565b60405180910390f35b34801561062e57600080fd5b5061064960048036038101906106449190612b34565b611479565b005b600061065682611571565b9050919050565b60606000805461066c90613927565b80601f016020809104026020016040519081016040528092919081815260200182805461069890613927565b80156106e55780601f106106ba576101008083540402835291602001916106e5565b820191906000526020600020905b8154815290600101906020018083116106c857829003601f168201915b5050505050905090565b60006106fa826115eb565b610739576040517f08c379a000000000000000000000000000000000000000000000000000000000815260040161073090613522565b60405180910390fd5b6004600083815260200190815260200160002060009054906101000a900473ffffffffffffffffffffffffffffffffffffffff169050919050565b600061077f82610e20565b90508073ffffffffffffffffffffffffffffffffffffffff168373ffffffffffffffffffffffffffffffffffffffff1614156107f0576040517f08c379a00000000000000000000000000000000000000000000000000000000081526004016107e7906135c2565b60405180910390fd5b8073ffffffffffffffffffffffffffffffffffffffff1661080f611657565b73ffffffffffffffffffffffffffffffffffffffff16148061083e575061083d81610838611657565b6113e5565b5b61087d576040517f08c379a0000000000000000000000000000000000000000000000000000000008152600401610874906134a2565b60405180910390fd5b610887838361165f565b505050565b6000600880549050905090565b6108aa6108a4611657565b82611718565b6108e9576040517f08c379a00000000000000000000000000000000000000000000000000000000081526004016108e090613602565b60405180910390fd5b6108f48383836117f6565b505050565b600061090483610ed2565b8210610945576040517f08c379a000000000000000000000000000000000000000000000000000000000815260040161093c90613382565b60405180910390fd5b600660008473ffffffffffffffffffffffffffffffffffffffff1673ffffffffffffffffffffffffffffffffffffffff168152602001908152602001600020600083815260200190815260200160002054905092915050565b6109a6611657565b73ffffffffffffffffffffffffffffffffffffffff166109c4611098565b73ffffffffffffffffffffffffffffffffffffffff1614610a1a576040517f08c379a0000000000000000000000000000000000000000000000000000000008152600401610a1190613542565b60405180910390fd5b80600d9080519060200190610a30929190612958565b5050565b610a3c611657565b73ffffffffffffffffffffffffffffffffffffffff16610a5a611098565b73ffffffffffffffffffffffffffffffffffffffff1614610ab0576040517f08c379a0000000000000000000000000000000000000000000000000000000008152600401610aa790613542565b60405180910390fd5b6000479050610abd611657565b73ffffffffffffffffffffffffffffffffffffffff166108fc829081150290604051600060405180830381858888f19350505050158015610b02573d6000803e3d6000fd5b5050565b610b0e611657565b73ffffffffffffffffffffffffffffffffffffffff16610b2c611098565b73ffffffffffffffffffffffffffffffffffffffff1614610b82576040517f08c379a0000000000000000000000000000000000000000000000000000000008152600401610b7990613542565b60405180910390fd5b610b8a611a52565b565b600b5481610b9861088c565b610ba2919061375c565b1115610be3576040517f08c379a0000000000000000000000000000000000000000000000000000000008152600401610bda90613562565b60405180910390fd5b6003811115610c27576040517f08c379a0000000000000000000000000000000000000000000000000000000008152600401610c1e906135e2565b60405180910390fd5b806701b4fbd92b5f8000610c3b91906137e3565b341015610c7d576040517f08c379a0000000000000000000000000000000000000000000000000000000008152600401610c7490613442565b60405180910390fd5b60005b81811015610cb857610c9b83610c96600c611af4565b611b02565b610ca5600c611cd0565b8080610cb09061398a565b915050610c80565b507f48ab551616fa96d8766a4795180ef0312e24b226fc48f24d0bef6494b31d9df78282604051610cea9291906132dc565b60405180910390a15050565b610d11838383604051806020016040528060008152506112d5565b505050565b610d27610d21611657565b82611718565b610d66576040517f08c379a0000000000000000000000000000000000000000000000000000000008152600401610d5d90613642565b60405180910390fd5b610d6f81611ce6565b50565b6000610d7c61088c565b8210610dbd576040517f08c379a0000000000000000000000000000000000000000000000000000000008152600401610db490613622565b60405180910390fd5b60088281548110610df7577f4e487b7100000000000000000000000000000000000000000000000000000000600052603260045260246000fd5b90600052602060002001549050919050565b6000600a60009054906101000a900460ff16905090565b6000806002600084815260200190815260200160002060009054906101000a900473ffffffffffffffffffffffffffffffffffffffff169050600073ffffffffffffffffffffffffffffffffffffffff168173ffffffffffffffffffffffffffffffffffffffff161415610ec9576040517f08c379a0000000000000000000000000000000000000000000000000000000008152600401610ec0906134e2565b60405180910390fd5b80915050919050565b60008073ffffffffffffffffffffffffffffffffffffffff168273ffffffffffffffffffffffffffffffffffffffff161415610f43576040517f08c379a0000000000000000000000000000000000000000000000000000000008152600401610f3a906134c2565b60405180910390fd5b600360008373ffffffffffffffffffffffffffffffffffffffff1673ffffffffffffffffffffffffffffffffffffffff168152602001908152602001600020549050919050565b610f92611657565b73ffffffffffffffffffffffffffffffffffffffff16610fb0611098565b73ffffffffffffffffffffffffffffffffffffffff1614611006576040517f08c379a0000000000000000000000000000000000000000000000000000000008152600401610ffd90613542565b60405180910390fd5b6110106000611df7565b565b61101a611657565b73ffffffffffffffffffffffffffffffffffffffff16611038611098565b73ffffffffffffffffffffffffffffffffffffffff161461108e576040517f08c379a000000000000000000000000000000000000000000000000000000000815260040161108590613542565b60405180910390fd5b611096611ebd565b565b6000600a60019054906101000a900473ffffffffffffffffffffffffffffffffffffffff16905090565b6060600180546110d190613927565b80601f01602080910402602001604051908101604052809291908181526020018280546110fd90613927565b801561114a5780601f1061111f5761010080835404028352916020019161114a565b820191906000526020600020905b81548152906001019060200180831161112d57829003601f168201915b5050505050905090565b61115c611657565b73ffffffffffffffffffffffffffffffffffffffff168273ffffffffffffffffffffffffffffffffffffffff1614156111ca576040517f08c379a00000000000000000000000000000000000000000000000000000000081526004016111c190613422565b60405180910390fd5b80600560006111d7611657565b73ffffffffffffffffffffffffffffffffffffffff1673ffffffffffffffffffffffffffffffffffffffff16815260200190815260200160002060008473ffffffffffffffffffffffffffffffffffffffff1673ffffffffffffffffffffffffffffffffffffffff16815260200190815260200160002060006101000a81548160ff0219169083151502179055508173ffffffffffffffffffffffffffffffffffffffff16611284611657565b73ffffffffffffffffffffffffffffffffffffffff167f17307eab39ab6107e8899845ad3d59bd9653f200f220920489ca2b5937696c31836040516112c99190613305565b60405180910390a35050565b6112e66112e0611657565b83611718565b611325576040517f08c379a000000000000000000000000000000000000000000000000000000000815260040161131c90613602565b60405180910390fd5b61133184848484611f60565b50505050565b6060611342826115eb565b611381576040517f08c379a0000000000000000000000000000000000000000000000000000000008152600401611378906135a2565b60405180910390fd5b6000600d805461139090613927565b9050116113ac57604051806020016040528060008152506113d8565b600d6113b783611fbc565b6040516020016113c8929190613251565b6040516020818303038152906040525b9050919050565b600b5481565b6000600560008473ffffffffffffffffffffffffffffffffffffffff1673ffffffffffffffffffffffffffffffffffffffff16815260200190815260200160002060008373ffffffffffffffffffffffffffffffffffffffff1673ffffffffffffffffffffffffffffffffffffffff16815260200190815260200160002060009054906101000a900460ff16905092915050565b611481611657565b73ffffffffffffffffffffffffffffffffffffffff1661149f611098565b73ffffffffffffffffffffffffffffffffffffffff16146114f5576040517f08c379a00000000000000000000000000000000000000000000000000000000081526004016114ec90613542565b60405180910390fd5b600073ffffffffffffffffffffffffffffffffffffffff168173ffffffffffffffffffffffffffffffffffffffff161415611565576040517f08c379a000000000000000000000000000000000000000000000000000000000815260040161155c906133c2565b60405180910390fd5b61156e81611df7565b50565b60007f780e9d63000000000000000000000000000000000000000000000000000000007bffffffffffffffffffffffffffffffffffffffffffffffffffffffff1916827bffffffffffffffffffffffffffffffffffffffffffffffffffffffff191614806115e457506115e382612169565b5b9050919050565b60008073ffffffffffffffffffffffffffffffffffffffff166002600084815260200190815260200160002060009054906101000a900473ffffffffffffffffffffffffffffffffffffffff1673ffffffffffffffffffffffffffffffffffffffff1614159050919050565b600033905090565b816004600083815260200190815260200160002060006101000a81548173ffffffffffffffffffffffffffffffffffffffff021916908373ffffffffffffffffffffffffffffffffffffffff160217905550808273ffffffffffffffffffffffffffffffffffffffff166116d283610e20565b73ffffffffffffffffffffffffffffffffffffffff167f8c5be1e5ebec7d5bd14f71427d1e84f3dd0314c0f7b2291e5b200ac8c7c3b92560405160405180910390a45050565b6000611723826115eb565b611762576040517f08c379a000000000000000000000000000000000000000000000000000000000815260040161175990613462565b60405180910390fd5b600061176d83610e20565b90508073ffffffffffffffffffffffffffffffffffffffff168473ffffffffffffffffffffffffffffffffffffffff1614806117dc57508373ffffffffffffffffffffffffffffffffffffffff166117c4846106ef565b73ffffffffffffffffffffffffffffffffffffffff16145b806117ed57506117ec81856113e5565b5b91505092915050565b8273ffffffffffffffffffffffffffffffffffffffff1661181682610e20565b73ffffffffffffffffffffffffffffffffffffffff161461186c576040517f08c379a000000000000000000000000000000000000000000000000000000000815260040161186390613582565b60405180910390fd5b600073ffffffffffffffffffffffffffffffffffffffff168273ffffffffffffffffffffffffffffffffffffffff1614156118dc576040517f08c379a00000000000000000000000000000000000000000000000000000000081526004016118d390613402565b60405180910390fd5b6118e783838361224b565b6118f260008261165f565b6001600360008573ffffffffffffffffffffffffffffffffffffffff1673ffffffffffffffffffffffffffffffffffffffff1681526020019081526020016000206000828254611942919061383d565b925050819055506001600360008473ffffffffffffffffffffffffffffffffffffffff1673ffffffffffffffffffffffffffffffffffffffff1681526020019081526020016000206000828254611999919061375c565b92505081905550816002600083815260200190815260200160002060006101000a81548173ffffffffffffffffffffffffffffffffffffffff021916908373ffffffffffffffffffffffffffffffffffffffff160217905550808273ffffffffffffffffffffffffffffffffffffffff168473ffffffffffffffffffffffffffffffffffffffff167fddf252ad1be2c89b69c2b068fc378daa952ba7f163c4a11628f55a4df523b3ef60405160405180910390a4505050565b611a5a610e09565b611a99576040517f08c379a0000000000000000000000000000000000000000000000000000000008152600401611a9090613362565b60405180910390fd5b6000600a60006101000a81548160ff0219169083151502179055507f5db9ee0a495bf2e6ff9c91a7834c1ba4fdd244a5e8aa4e537bd38aeae4b073aa611add611657565b604051611aea9190613275565b60405180910390a1565b600081600001549050919050565b600073ffffffffffffffffffffffffffffffffffffffff168273ffffffffffffffffffffffffffffffffffffffff161415611b72576040517f08c379a0000000000000000000000000000000000000000000000000000000008152600401611b6990613502565b60405180910390fd5b611b7b816115eb565b15611bbb576040517f08c379a0000000000000000000000000000000000000000000000000000000008152600401611bb2906133e2565b60405180910390fd5b611bc76000838361224b565b6001600360008473ffffffffffffffffffffffffffffffffffffffff1673ffffffffffffffffffffffffffffffffffffffff1681526020019081526020016000206000828254611c17919061375c565b92505081905550816002600083815260200190815260200160002060006101000a81548173ffffffffffffffffffffffffffffffffffffffff021916908373ffffffffffffffffffffffffffffffffffffffff160217905550808273ffffffffffffffffffffffffffffffffffffffff16600073ffffffffffffffffffffffffffffffffffffffff167fddf252ad1be2c89b69c2b068fc378daa952ba7f163c4a11628f55a4df523b3ef60405160405180910390a45050565b6001816000016000828254019250508190555050565b6000611cf182610e20565b9050611cff8160008461224b565b611d0a60008361165f565b6001600360008373ffffffffffffffffffffffffffffffffffffffff1673ffffffffffffffffffffffffffffffffffffffff1681526020019081526020016000206000828254611d5a919061383d565b925050819055506002600083815260200190815260200160002060006101000a81549073ffffffffffffffffffffffffffffffffffffffff021916905581600073ffffffffffffffffffffffffffffffffffffffff168273ffffffffffffffffffffffffffffffffffffffff167fddf252ad1be2c89b69c2b068fc378daa952ba7f163c4a11628f55a4df523b3ef60405160405180910390a45050565b6000600a60019054906101000a900473ffffffffffffffffffffffffffffffffffffffff16905081600a60016101000a81548173ffffffffffffffffffffffffffffffffffffffff021916908373ffffffffffffffffffffffffffffffffffffffff1602179055508173ffffffffffffffffffffffffffffffffffffffff168173ffffffffffffffffffffffffffffffffffffffff167f8be0079c531659141344cd1fd0a4f28419497f9722a3daafe3b4186f6b6457e060405160405180910390a35050565b611ec5610e09565b15611f05576040517f08c379a0000000000000000000000000000000000000000000000000000000008152600401611efc90613482565b60405180910390fd5b6001600a60006101000a81548160ff0219169083151502179055507f62e78cea01bee320cd4e420270b5ea74000d11b0c9f74754ebdbfc544b05a258611f49611657565b604051611f569190613275565b60405180910390a1565b611f6b8484846117f6565b611f778484848461225b565b611fb6576040517f08c379a0000000000000000000000000000000000000000000000000000000008152600401611fad906133a2565b60405180910390fd5b50505050565b60606000821415612004576040518060400160405280600181526020017f30000000000000000000000000000000000000000000000000000000000000008152509050612164565b600082905060005b6000821461203657808061201f9061398a565b915050600a8261202f91906137b2565b915061200c565b60008167ffffffffffffffff811115612078577f4e487b7100000000000000000000000000000000000000000000000000000000600052604160045260246000fd5b6040519080825280601f01601f1916602001820160405280156120aa5781602001600182028036833780820191505090505b5090505b6000851461215d576001826120c3919061383d565b9150600a856120d291906139d3565b60306120de919061375c565b60f81b81838151811061211a577f4e487b7100000000000000000000000000000000000000000000000000000000600052603260045260246000fd5b60200101907effffffffffffffffffffffffffffffffffffffffffffffffffffffffffffff1916908160001a905350600a8561215691906137b2565b94506120ae565b8093505050505b919050565b60007f80ac58cd000000000000000000000000000000000000000000000000000000007bffffffffffffffffffffffffffffffffffffffffffffffffffffffff1916827bffffffffffffffffffffffffffffffffffffffffffffffffffffffff1916148061223457507f5b5e139f000000000000000000000000000000000000000000000000000000007bffffffffffffffffffffffffffffffffffffffffffffffffffffffff1916827bffffffffffffffffffffffffffffffffffffffffffffffffffffffff1916145b806122445750612243826123f2565b5b9050919050565b61225683838361245c565b505050565b600061227c8473ffffffffffffffffffffffffffffffffffffffff166124b4565b156123e5578373ffffffffffffffffffffffffffffffffffffffff1663150b7a026122a5611657565b8786866040518563ffffffff1660e01b81526004016122c79493929190613290565b602060405180830381600087803b1580156122e157600080fd5b505af192505050801561231257506040513d601f19601f8201168201806040525081019061230f9190612d04565b60015b612395573d8060008114612342576040519150601f19603f3d011682016040523d82523d6000602084013e612347565b606091505b5060008151141561238d576040517f08c379a0000000000000000000000000000000000000000000000000000000008152600401612384906133a2565b60405180910390fd5b805181602001fd5b63150b7a0260e01b7bffffffffffffffffffffffffffffffffffffffffffffffffffffffff1916817bffffffffffffffffffffffffffffffffffffffffffffffffffffffff1916149150506123ea565b600190505b949350505050565b60007f01ffc9a7000000000000000000000000000000000000000000000000000000007bffffffffffffffffffffffffffffffffffffffffffffffffffffffff1916827bffffffffffffffffffffffffffffffffffffffffffffffffffffffff1916149050919050565b6124678383836124c7565b61246f610e09565b156124af576040517f08c379a00000000000000000000000000000000000000000000000000000000081526004016124a690613342565b60405180910390fd5b505050565b600080823b905060008111915050919050565b6124d28383836125db565b600073ffffffffffffffffffffffffffffffffffffffff168373ffffffffffffffffffffffffffffffffffffffff16141561251557612510816125e0565b612554565b8173ffffffffffffffffffffffffffffffffffffffff168373ffffffffffffffffffffffffffffffffffffffff1614612553576125528382612629565b5b5b600073ffffffffffffffffffffffffffffffffffffffff168273ffffffffffffffffffffffffffffffffffffffff1614156125975761259281612796565b6125d6565b8273ffffffffffffffffffffffffffffffffffffffff168273ffffffffffffffffffffffffffffffffffffffff16146125d5576125d482826128d9565b5b5b505050565b505050565b6008805490506009600083815260200190815260200160002081905550600881908060018154018082558091505060019003906000526020600020016000909190919091505550565b6000600161263684610ed2565b612640919061383d565b9050600060076000848152602001908152602001600020549050818114612725576000600660008673ffffffffffffffffffffffffffffffffffffffff1673ffffffffffffffffffffffffffffffffffffffff168152602001908152602001600020600084815260200190815260200160002054905080600660008773ffffffffffffffffffffffffffffffffffffffff1673ffffffffffffffffffffffffffffffffffffffff168152602001908152602001600020600084815260200190815260200160002081905550816007600083815260200190815260200160002081905550505b6007600084815260200190815260200160002060009055600660008573ffffffffffffffffffffffffffffffffffffffff1673ffffffffffffffffffffffffffffffffffffffff16815260200190815260200160002060008381526020019081526020016000206000905550505050565b600060016008805490506127aa919061383d565b9050600060096000848152602001908152602001600020549050600060088381548110612800577f4e487b7100000000000000000000000000000000000000000000000000000000600052603260045260246000fd5b906000526020600020015490508060088381548110612848577f4e487b7100000000000000000000000000000000000000000000000000000000600052603260045260246000fd5b9060005260206000200181905550816009600083815260200190815260200160002081905550600960008581526020019081526020016000206000905560088054806128bd577f4e487b7100000000000000000000000000000000000000000000000000000000600052603160045260246000fd5b6001900381819060005260206000200160009055905550505050565b60006128e483610ed2565b905081600660008573ffffffffffffffffffffffffffffffffffffffff1673ffffffffffffffffffffffffffffffffffffffff168152602001908152602001600020600083815260200190815260200160002081905550806007600084815260200190815260200160002081905550505050565b82805461296490613927565b90600052602060002090601f01602090048101928261298657600085556129cd565b82601f1061299f57805160ff19168380011785556129cd565b828001600101855582156129cd579182015b828111156129cc5782518255916020019190600101906129b1565b5b5090506129da91906129de565b5090565b5b808211156129f75760008160009055506001016129df565b5090565b6000612a0e612a09846136a2565b61367d565b905082815260208101848484011115612a2657600080fd5b612a318482856138e5565b509392505050565b6000612a4c612a47846136d3565b61367d565b905082815260208101848484011115612a6457600080fd5b612a6f8482856138e5565b509392505050565b600081359050612a8681614132565b92915050565b600081359050612a9b81614149565b92915050565b600081359050612ab081614160565b92915050565b600081519050612ac581614160565b92915050565b600082601f830112612adc57600080fd5b8135612aec8482602086016129fb565b91505092915050565b600082601f830112612b0657600080fd5b8135612b16848260208601612a39565b91505092915050565b600081359050612b2e81614177565b92915050565b600060208284031215612b4657600080fd5b6000612b5484828501612a77565b91505092915050565b60008060408385031215612b7057600080fd5b6000612b7e85828601612a77565b9250506020612b8f85828601612a77565b9150509250929050565b600080600060608486031215612bae57600080fd5b6000612bbc86828701612a77565b9350506020612bcd86828701612a77565b9250506040612bde86828701612b1f565b9150509250925092565b60008060008060808587031215612bfe57600080fd5b6000612c0c87828801612a77565b9450506020612c1d87828801612a77565b9350506040612c2e87828801612b1f565b925050606085013567ffffffffffffffff811115612c4b57600080fd5b612c5787828801612acb565b91505092959194509250565b60008060408385031215612c7657600080fd5b6000612c8485828601612a77565b9250506020612c9585828601612a8c565b9150509250929050565b60008060408385031215612cb257600080fd5b6000612cc085828601612a77565b9250506020612cd185828601612b1f565b9150509250929050565b600060208284031215612ced57600080fd5b6000612cfb84828501612aa1565b91505092915050565b600060208284031215612d1657600080fd5b6000612d2484828501612ab6565b91505092915050565b600060208284031215612d3f57600080fd5b600082013567ffffffffffffffff811115612d5957600080fd5b612d6584828501612af5565b91505092915050565b600060208284031215612d8057600080fd5b6000612d8e84828501612b1f565b91505092915050565b612da081613871565b82525050565b612daf81613883565b82525050565b6000612dc082613719565b612dca818561372f565b9350612dda8185602086016138f4565b612de381613ac0565b840191505092915050565b6000612df982613724565b612e038185613740565b9350612e138185602086016138f4565b612e1c81613ac0565b840191505092915050565b6000612e3282613724565b612e3c8185613751565b9350612e4c8185602086016138f4565b80840191505092915050565b60008154612e6581613927565b612e6f8186613751565b94506001821660008114612e8a5760018114612e9b57612ece565b60ff19831686528186019350612ece565b612ea485613704565b60005b83811015612ec657815481890152600182019150602081019050612ea7565b838801955050505b50505092915050565b6000612ee4602b83613740565b9150612eef82613ad1565b604082019050919050565b6000612f07601483613740565b9150612f1282613b20565b602082019050919050565b6000612f2a602b83613740565b9150612f3582613b49565b604082019050919050565b6000612f4d603283613740565b9150612f5882613b98565b604082019050919050565b6000612f70602683613740565b9150612f7b82613be7565b604082019050919050565b6000612f93601c83613740565b9150612f9e82613c36565b602082019050919050565b6000612fb6602483613740565b9150612fc182613c5f565b604082019050919050565b6000612fd9601983613740565b9150612fe482613cae565b602082019050919050565b6000612ffc601f83613740565b915061300782613cd7565b602082019050919050565b600061301f602c83613740565b915061302a82613d00565b604082019050919050565b6000613042601083613740565b915061304d82613d4f565b602082019050919050565b6000613065603883613740565b915061307082613d78565b604082019050919050565b6000613088602a83613740565b915061309382613dc7565b604082019050919050565b60006130ab602983613740565b91506130b682613e16565b604082019050919050565b60006130ce602083613740565b91506130d982613e65565b602082019050919050565b60006130f1602c83613740565b91506130fc82613e8e565b604082019050919050565b6000613114602083613740565b915061311f82613edd565b602082019050919050565b6000613137601b83613740565b915061314282613f06565b602082019050919050565b600061315a602983613740565b915061316582613f2f565b604082019050919050565b600061317d602f83613740565b915061318882613f7e565b604082019050919050565b60006131a0602183613740565b91506131ab82613fcd565b604082019050919050565b60006131c3601a83613740565b91506131ce8261401c565b602082019050919050565b60006131e6603183613740565b91506131f182614045565b604082019050919050565b6000613209602c83613740565b915061321482614094565b604082019050919050565b600061322c603083613740565b9150613237826140e3565b604082019050919050565b61324b816138db565b82525050565b600061325d8285612e58565b91506132698284612e27565b91508190509392505050565b600060208201905061328a6000830184612d97565b92915050565b60006080820190506132a56000830187612d97565b6132b26020830186612d97565b6132bf6040830185613242565b81810360608301526132d18184612db5565b905095945050505050565b60006040820190506132f16000830185612d97565b6132fe6020830184613242565b9392505050565b600060208201905061331a6000830184612da6565b92915050565b6000602082019050818103600083015261333a8184612dee565b905092915050565b6000602082019050818103600083015261335b81612ed7565b9050919050565b6000602082019050818103600083015261337b81612efa565b9050919050565b6000602082019050818103600083015261339b81612f1d565b9050919050565b600060208201905081810360008301526133bb81612f40565b9050919050565b600060208201905081810360008301526133db81612f63565b9050919050565b600060208201905081810360008301526133fb81612f86565b9050919050565b6000602082019050818103600083015261341b81612fa9565b9050919050565b6000602082019050818103600083015261343b81612fcc565b9050919050565b6000602082019050818103600083015261345b81612fef565b9050919050565b6000602082019050818103600083015261347b81613012565b9050919050565b6000602082019050818103600083015261349b81613035565b9050919050565b600060208201905081810360008301526134bb81613058565b9050919050565b600060208201905081810360008301526134db8161307b565b9050919050565b600060208201905081810360008301526134fb8161309e565b9050919050565b6000602082019050818103600083015261351b816130c1565b9050919050565b6000602082019050818103600083015261353b816130e4565b9050919050565b6000602082019050818103600083015261355b81613107565b9050919050565b6000602082019050818103600083015261357b8161312a565b9050919050565b6000602082019050818103600083015261359b8161314d565b9050919050565b600060208201905081810360008301526135bb81613170565b9050919050565b600060208201905081810360008301526135db81613193565b9050919050565b600060208201905081810360008301526135fb816131b6565b9050919050565b6000602082019050818103600083015261361b816131d9565b9050919050565b6000602082019050818103600083015261363b816131fc565b9050919050565b6000602082019050818103600083015261365b8161321f565b9050919050565b60006020820190506136776000830184613242565b92915050565b6000613687613698565b90506136938282613959565b919050565b6000604051905090565b600067ffffffffffffffff8211156136bd576136bc613a91565b5b6136c682613ac0565b9050602081019050919050565b600067ffffffffffffffff8211156136ee576136ed613a91565b5b6136f782613ac0565b9050602081019050919050565b60008190508160005260206000209050919050565b600081519050919050565b600081519050919050565b600082825260208201905092915050565b600082825260208201905092915050565b600081905092915050565b6000613767826138db565b9150613772836138db565b9250827fffffffffffffffffffffffffffffffffffffffffffffffffffffffffffffffff038211156137a7576137a6613a04565b5b828201905092915050565b60006137bd826138db565b91506137c8836138db565b9250826137d8576137d7613a33565b5b828204905092915050565b60006137ee826138db565b91506137f9836138db565b9250817fffffffffffffffffffffffffffffffffffffffffffffffffffffffffffffffff048311821515161561383257613831613a04565b5b828202905092915050565b6000613848826138db565b9150613853836138db565b92508282101561386657613865613a04565b5b828203905092915050565b600061387c826138bb565b9050919050565b60008115159050919050565b60007fffffffff0000000000000000000000000000000000000000000000000000000082169050919050565b600073ffffffffffffffffffffffffffffffffffffffff82169050919050565b6000819050919050565b82818337600083830152505050565b60005b838110156139125780820151818401526020810190506138f7565b83811115613921576000848401525b50505050565b6000600282049050600182168061393f57607f821691505b6020821081141561395357613952613a62565b5b50919050565b61396282613ac0565b810181811067ffffffffffffffff8211171561398157613980613a91565b5b80604052505050565b6000613995826138db565b91507fffffffffffffffffffffffffffffffffffffffffffffffffffffffffffffffff8214156139c8576139c7613a04565b5b600182019050919050565b60006139de826138db565b91506139e9836138db565b9250826139f9576139f8613a33565b5b828206905092915050565b7f4e487b7100000000000000000000000000000000000000000000000000000000600052601160045260246000fd5b7f4e487b7100000000000000000000000000000000000000000000000000000000600052601260045260246000fd5b7f4e487b7100000000000000000000000000000000000000000000000000000000600052602260045260246000fd5b7f4e487b7100000000000000000000000000000000000000000000000000000000600052604160045260246000fd5b6000601f19601f8301169050919050565b7f4552433732315061757361626c653a20746f6b656e207472616e73666572207760008201527f68696c6520706175736564000000000000000000000000000000000000000000602082015250565b7f5061757361626c653a206e6f7420706175736564000000000000000000000000600082015250565b7f455243373231456e756d657261626c653a206f776e657220696e646578206f7560008201527f74206f6620626f756e6473000000000000000000000000000000000000000000602082015250565b7f4552433732313a207472616e7366657220746f206e6f6e20455243373231526560008201527f63656976657220696d706c656d656e7465720000000000000000000000000000602082015250565b7f4f776e61626c653a206e6577206f776e657220697320746865207a65726f206160008201527f6464726573730000000000000000000000000000000000000000000000000000602082015250565b7f4552433732313a20746f6b656e20616c7265616479206d696e74656400000000600082015250565b7f4552433732313a207472616e7366657220746f20746865207a65726f2061646460008201527f7265737300000000000000000000000000000000000000000000000000000000602082015250565b7f4552433732313a20617070726f766520746f2063616c6c657200000000000000600082015250565b7f45746865722076616c75652073656e74206973206e6f7420636f727265637400600082015250565b7f4552433732313a206f70657261746f7220717565727920666f72206e6f6e657860008201527f697374656e7420746f6b656e0000000000000000000000000000000000000000602082015250565b7f5061757361626c653a2070617573656400000000000000000000000000000000600082015250565b7f4552433732313a20617070726f76652063616c6c6572206973206e6f74206f7760008201527f6e6572206e6f7220617070726f76656420666f7220616c6c0000000000000000602082015250565b7f4552433732313a2062616c616e636520717565727920666f7220746865207a6560008201527f726f206164647265737300000000000000000000000000000000000000000000602082015250565b7f4552433732313a206f776e657220717565727920666f72206e6f6e657869737460008201527f656e7420746f6b656e0000000000000000000000000000000000000000000000602082015250565b7f4552433732313a206d696e7420746f20746865207a65726f2061646472657373600082015250565b7f4552433732313a20617070726f76656420717565727920666f72206e6f6e657860008201527f697374656e7420746f6b656e0000000000000000000000000000000000000000602082015250565b7f4f776e61626c653a2063616c6c6572206973206e6f7420746865206f776e6572600082015250565b7f50757263686173652065786365656473206d617820737570706c790000000000600082015250565b7f4552433732313a207472616e73666572206f6620746f6b656e2074686174206960008201527f73206e6f74206f776e0000000000000000000000000000000000000000000000602082015250565b7f4552433732314d657461646174613a2055524920717565727920666f72206e6f60008201527f6e6578697374656e7420746f6b656e0000000000000000000000000000000000602082015250565b7f4552433732313a20617070726f76616c20746f2063757272656e74206f776e6560008201527f7200000000000000000000000000000000000000000000000000000000000000602082015250565b7f4f726465722065786365656473206d6178207175616e74697479000000000000600082015250565b7f4552433732313a207472616e736665722063616c6c6572206973206e6f74206f60008201527f776e6572206e6f7220617070726f766564000000000000000000000000000000602082015250565b7f455243373231456e756d657261626c653a20676c6f62616c20696e646578206f60008201527f7574206f6620626f756e64730000000000000000000000000000000000000000602082015250565b7f4552433732314275726e61626c653a2063616c6c6572206973206e6f74206f7760008201527f6e6572206e6f7220617070726f76656400000000000000000000000000000000602082015250565b61413b81613871565b811461414657600080fd5b50565b61415281613883565b811461415d57600080fd5b50565b6141698161388f565b811461417457600080fd5b50565b614180816138db565b811461418b57600080fd5b5056fea26469706673582212207b008e875a61d573dfc154ea447577d5afdd8faa42460394e7ab21bb6829e8ef64736f6c63430008040033",
  "linkReferences": {},
  "deployedLinkReferences": {}
}