{
  "_format": "hh-sol-artifact-1",
  "contractName": "MetaTravelers",
  "sourceName": "contracts/MetaTravelers.sol",
  "abi": [
    {
      "inputs": [
        {
          "internalType": "string",
          "name": "name",
          "type": "string"
        },
        {
          "internalType": "string",
          "name": "symbol",
          "type": "string"
        },
        {
          "internalType": "string",
          "name": "baseTokenURI",
          "type": "string"
        },
        {
          "internalType": "address",
          "name": "vrfCoordinator",
          "type": "address"
        },
        {
          "internalType": "address",
          "name": "linkToken",
          "type": "address"
        },
        {
          "internalType": "bytes32",
          "name": "keyHash",
          "type": "bytes32"
        },
        {
          "internalType": "uint256",
          "name": "fee",
          "type": "uint256"
        }
      ],
      "stateMutability": "nonpayable",
      "type": "constructor"
    },
    {
      "anonymous": false,
      "inputs": [
        {
          "indexed": true,
          "internalType": "address",
          "name": "owner",
          "type": "address"
        },
        {
          "indexed": true,
          "internalType": "address",
          "name": "approved",
          "type": "address"
        },
        {
          "indexed": true,
          "internalType": "uint256",
          "name": "tokenId",
          "type": "uint256"
        }
      ],
      "name": "Approval",
      "type": "event"
    },
    {
      "anonymous": false,
      "inputs": [
        {
          "indexed": true,
          "internalType": "address",
          "name": "owner",
          "type": "address"
        },
        {
          "indexed": true,
          "internalType": "address",
          "name": "operator",
          "type": "address"
        },
        {
          "indexed": false,
          "internalType": "bool",
          "name": "approved",
          "type": "bool"
        }
      ],
      "name": "ApprovalForAll",
      "type": "event"
    },
    {
      "anonymous": false,
      "inputs": [
        {
          "indexed": false,
          "internalType": "address",
          "name": "owner",
          "type": "address"
        },
        {
          "indexed": false,
          "internalType": "uint256",
          "name": "quantity",
          "type": "uint256"
        }
      ],
      "name": "AssetsMinted",
      "type": "event"
    },
    {
      "anonymous": false,
      "inputs": [
        {
          "indexed": true,
          "internalType": "address",
          "name": "previousOwner",
          "type": "address"
        },
        {
          "indexed": true,
          "internalType": "address",
          "name": "newOwner",
          "type": "address"
        }
      ],
      "name": "OwnershipTransferred",
      "type": "event"
    },
    {
      "anonymous": false,
      "inputs": [
        {
          "indexed": false,
          "internalType": "address",
          "name": "account",
          "type": "address"
        }
      ],
      "name": "Paused",
      "type": "event"
    },
    {
      "anonymous": false,
      "inputs": [
        {
          "indexed": false,
          "internalType": "bytes32",
          "name": "requestId",
          "type": "bytes32"
        }
      ],
      "name": "RequestedRandomness",
      "type": "event"
    },
    {
      "anonymous": false,
      "inputs": [
        {
          "indexed": false,
          "internalType": "bytes32",
          "name": "requestId",
          "type": "bytes32"
        },
        {
          "indexed": false,
          "internalType": "uint256",
          "name": "randomNumber",
          "type": "uint256"
        }
      ],
      "name": "StartingIndexSet",
      "type": "event"
    },
    {
      "anonymous": false,
      "inputs": [
        {
          "indexed": true,
          "internalType": "address",
          "name": "from",
          "type": "address"
        },
        {
          "indexed": true,
          "internalType": "address",
          "name": "to",
          "type": "address"
        },
        {
          "indexed": true,
          "internalType": "uint256",
          "name": "tokenId",
          "type": "uint256"
        }
      ],
      "name": "Transfer",
      "type": "event"
    },
    {
      "anonymous": false,
      "inputs": [
        {
          "indexed": false,
          "internalType": "address",
          "name": "account",
          "type": "address"
        }
      ],
      "name": "Unpaused",
      "type": "event"
    },
    {
      "inputs": [],
      "name": "MAX_EARLY_ADOPTER",
      "outputs": [
        {
          "internalType": "uint256",
          "name": "",
          "type": "uint256"
        }
      ],
      "stateMutability": "view",
      "type": "function"
    },
    {
      "inputs": [],
      "name": "MAX_EA_QUANTITY",
      "outputs": [
        {
          "internalType": "uint256",
          "name": "",
          "type": "uint256"
        }
      ],
      "stateMutability": "view",
      "type": "function"
    },
    {
      "inputs": [],
      "name": "MAX_MINTPASS",
      "outputs": [
        {
          "internalType": "uint256",
          "name": "",
          "type": "uint256"
        }
      ],
      "stateMutability": "view",
      "type": "function"
    },
    {
      "inputs": [],
      "name": "MAX_PRESALE",
      "outputs": [
        {
          "internalType": "uint256",
          "name": "",
          "type": "uint256"
        }
      ],
      "stateMutability": "view",
      "type": "function"
    },
    {
      "inputs": [],
      "name": "MAX_QUANTITY",
      "outputs": [
        {
          "internalType": "uint256",
          "name": "",
          "type": "uint256"
        }
      ],
      "stateMutability": "view",
      "type": "function"
    },
    {
      "inputs": [],
      "name": "MAX_RESERVE",
      "outputs": [
        {
          "internalType": "uint256",
          "name": "",
          "type": "uint256"
        }
      ],
      "stateMutability": "view",
      "type": "function"
    },
    {
      "inputs": [],
      "name": "MAX_SUPPLY",
      "outputs": [
        {
          "internalType": "uint256",
          "name": "",
          "type": "uint256"
        }
      ],
      "stateMutability": "view",
      "type": "function"
    },
    {
      "inputs": [],
      "name": "PRICE",
      "outputs": [
        {
          "internalType": "uint256",
          "name": "",
          "type": "uint256"
        }
      ],
      "stateMutability": "view",
      "type": "function"
    },
    {
      "inputs": [
        {
          "internalType": "address[]",
          "name": "addresses",
          "type": "address[]"
        }
      ],
      "name": "addToEarlyAdopterList",
      "outputs": [],
      "stateMutability": "nonpayable",
      "type": "function"
    },
    {
      "inputs": [
        {
          "internalType": "address[]",
          "name": "addresses",
          "type": "address[]"
        },
        {
          "internalType": "uint256[]",
          "name": "quantities",
          "type": "uint256[]"
        }
      ],
      "name": "addToMintPassList",
      "outputs": [],
      "stateMutability": "nonpayable",
      "type": "function"
    },
    {
      "inputs": [
        {
          "internalType": "address[]",
          "name": "addresses",
          "type": "address[]"
        }
      ],
      "name": "addToPreSaleList",
      "outputs": [],
      "stateMutability": "nonpayable",
      "type": "function"
    },
    {
      "inputs": [
        {
          "internalType": "address",
          "name": "to",
          "type": "address"
        },
        {
          "internalType": "uint256",
          "name": "tokenId",
          "type": "uint256"
        }
      ],
      "name": "approve",
      "outputs": [],
      "stateMutability": "nonpayable",
      "type": "function"
    },
    {
      "inputs": [
        {
          "internalType": "address",
          "name": "owner",
          "type": "address"
        }
      ],
      "name": "balanceOf",
      "outputs": [
        {
          "internalType": "uint256",
          "name": "",
          "type": "uint256"
        }
      ],
      "stateMutability": "view",
      "type": "function"
    },
    {
      "inputs": [
        {
          "internalType": "uint256",
          "name": "tokenId",
          "type": "uint256"
        }
      ],
      "name": "burn",
      "outputs": [],
      "stateMutability": "nonpayable",
      "type": "function"
    },
    {
      "inputs": [
        {
          "internalType": "address",
          "name": "to",
          "type": "address"
        },
        {
          "internalType": "uint256",
          "name": "quantity",
          "type": "uint256"
        }
      ],
      "name": "earlyAdopterMint",
      "outputs": [],
      "stateMutability": "payable",
      "type": "function"
    },
    {
      "inputs": [
        {
          "internalType": "uint256",
          "name": "tokenId",
          "type": "uint256"
        }
      ],
      "name": "getApproved",
      "outputs": [
        {
          "internalType": "address",
          "name": "",
          "type": "address"
        }
      ],
      "stateMutability": "view",
      "type": "function"
    },
    {
      "inputs": [
        {
          "internalType": "address",
          "name": "owner",
          "type": "address"
        },
        {
          "internalType": "address",
          "name": "operator",
          "type": "address"
        }
      ],
      "name": "isApprovedForAll",
      "outputs": [
        {
          "internalType": "bool",
          "name": "",
          "type": "bool"
        }
      ],
      "stateMutability": "view",
      "type": "function"
    },
    {
      "inputs": [],
      "name": "isEarlyAdopterSale",
      "outputs": [
        {
          "internalType": "bool",
          "name": "",
          "type": "bool"
        }
      ],
      "stateMutability": "view",
      "type": "function"
    },
    {
      "inputs": [],
      "name": "isMintPassSale",
      "outputs": [
        {
          "internalType": "bool",
          "name": "",
          "type": "bool"
        }
      ],
      "stateMutability": "view",
      "type": "function"
    },
    {
      "inputs": [],
      "name": "isPreSale",
      "outputs": [
        {
          "internalType": "bool",
          "name": "",
          "type": "bool"
        }
      ],
      "stateMutability": "view",
      "type": "function"
    },
    {
      "inputs": [],
      "name": "isPublicSale",
      "outputs": [
        {
          "internalType": "bool",
          "name": "",
          "type": "bool"
        }
      ],
      "stateMutability": "view",
      "type": "function"
    },
    {
      "inputs": [
        {
          "internalType": "address",
          "name": "to",
          "type": "address"
        },
        {
          "internalType": "uint256",
          "name": "quantity",
          "type": "uint256"
        }
      ],
      "name": "mintPassMint",
      "outputs": [],
      "stateMutability": "payable",
      "type": "function"
    },
    {
      "inputs": [],
      "name": "name",
      "outputs": [
        {
          "internalType": "string",
          "name": "",
          "type": "string"
        }
      ],
      "stateMutability": "view",
      "type": "function"
    },
    {
      "inputs": [],
      "name": "owner",
      "outputs": [
        {
          "internalType": "address",
          "name": "",
          "type": "address"
        }
      ],
      "stateMutability": "view",
      "type": "function"
    },
    {
      "inputs": [
        {
          "internalType": "uint256",
          "name": "tokenId",
          "type": "uint256"
        }
      ],
      "name": "ownerOf",
      "outputs": [
        {
          "internalType": "address",
          "name": "",
          "type": "address"
        }
      ],
      "stateMutability": "view",
      "type": "function"
    },
    {
      "inputs": [],
      "name": "pause",
      "outputs": [],
      "stateMutability": "nonpayable",
      "type": "function"
    },
    {
      "inputs": [],
      "name": "paused",
      "outputs": [
        {
          "internalType": "bool",
          "name": "",
          "type": "bool"
        }
      ],
      "stateMutability": "view",
      "type": "function"
    },
    {
      "inputs": [
        {
          "internalType": "address",
          "name": "to",
          "type": "address"
        },
        {
          "internalType": "uint256",
          "name": "quantity",
          "type": "uint256"
        }
      ],
      "name": "preSaleMint",
      "outputs": [],
      "stateMutability": "payable",
      "type": "function"
    },
    {
      "inputs": [],
      "name": "provenanceHash",
      "outputs": [
        {
          "internalType": "string",
          "name": "",
          "type": "string"
        }
      ],
      "stateMutability": "view",
      "type": "function"
    },
    {
      "inputs": [
        {
          "internalType": "address",
          "name": "to",
          "type": "address"
        },
        {
          "internalType": "uint256",
          "name": "quantity",
          "type": "uint256"
        }
      ],
      "name": "publicSaleMint",
      "outputs": [],
      "stateMutability": "payable",
      "type": "function"
    },
    {
      "inputs": [
        {
          "internalType": "bytes32",
          "name": "requestId",
          "type": "bytes32"
        },
        {
          "internalType": "uint256",
          "name": "randomness",
          "type": "uint256"
        }
      ],
      "name": "rawFulfillRandomness",
      "outputs": [],
      "stateMutability": "nonpayable",
      "type": "function"
    },
    {
      "inputs": [],
      "name": "renounceOwnership",
      "outputs": [],
      "stateMutability": "nonpayable",
      "type": "function"
    },
    {
      "inputs": [],
      "name": "reserveMetaTravelers",
      "outputs": [],
      "stateMutability": "nonpayable",
      "type": "function"
    },
    {
      "inputs": [
        {
          "internalType": "address",
          "name": "from",
          "type": "address"
        },
        {
          "internalType": "address",
          "name": "to",
          "type": "address"
        },
        {
          "internalType": "uint256",
          "name": "tokenId",
          "type": "uint256"
        }
      ],
      "name": "safeTransferFrom",
      "outputs": [],
      "stateMutability": "nonpayable",
      "type": "function"
    },
    {
      "inputs": [
        {
          "internalType": "address",
          "name": "from",
          "type": "address"
        },
        {
          "internalType": "address",
          "name": "to",
          "type": "address"
        },
        {
          "internalType": "uint256",
          "name": "tokenId",
          "type": "uint256"
        },
        {
          "internalType": "bytes",
          "name": "_data",
          "type": "bytes"
        }
      ],
      "name": "safeTransferFrom",
      "outputs": [],
      "stateMutability": "nonpayable",
      "type": "function"
    },
    {
      "inputs": [
        {
          "internalType": "address",
          "name": "operator",
          "type": "address"
        },
        {
          "internalType": "bool",
          "name": "approved",
          "type": "bool"
        }
      ],
      "name": "setApprovalForAll",
      "outputs": [],
      "stateMutability": "nonpayable",
      "type": "function"
    },
    {
      "inputs": [
        {
          "internalType": "string",
          "name": "baseTokenURI",
          "type": "string"
        }
      ],
      "name": "setBaseTokenURI",
      "outputs": [],
      "stateMutability": "nonpayable",
      "type": "function"
    },
    {
      "inputs": [
        {
          "internalType": "string",
          "name": "newProvenanceHash",
          "type": "string"
        }
      ],
      "name": "setProvenanceHash",
      "outputs": [],
      "stateMutability": "nonpayable",
      "type": "function"
    },
    {
      "inputs": [],
      "name": "setStartingIndex",
      "outputs": [
        {
          "internalType": "bytes32",
          "name": "",
          "type": "bytes32"
        }
      ],
      "stateMutability": "nonpayable",
      "type": "function"
    },
    {
      "inputs": [],
      "name": "startingIndex",
      "outputs": [
        {
          "internalType": "uint256",
          "name": "",
          "type": "uint256"
        }
      ],
      "stateMutability": "view",
      "type": "function"
    },
    {
      "inputs": [
        {
          "internalType": "bytes4",
          "name": "interfaceId",
          "type": "bytes4"
        }
      ],
      "name": "supportsInterface",
      "outputs": [
        {
          "internalType": "bool",
          "name": "",
          "type": "bool"
        }
      ],
      "stateMutability": "view",
      "type": "function"
    },
    {
      "inputs": [],
      "name": "symbol",
      "outputs": [
        {
          "internalType": "string",
          "name": "",
          "type": "string"
        }
      ],
      "stateMutability": "view",
      "type": "function"
    },
    {
      "inputs": [],
      "name": "toggleEarlyAdopter",
      "outputs": [],
      "stateMutability": "nonpayable",
      "type": "function"
    },
    {
      "inputs": [],
      "name": "toggleMintPassSale",
      "outputs": [],
      "stateMutability": "nonpayable",
      "type": "function"
    },
    {
      "inputs": [],
      "name": "togglePreSale",
      "outputs": [],
      "stateMutability": "nonpayable",
      "type": "function"
    },
    {
      "inputs": [
        {
          "internalType": "uint256",
          "name": "index",
          "type": "uint256"
        }
      ],
      "name": "tokenByIndex",
      "outputs": [
        {
          "internalType": "uint256",
          "name": "",
          "type": "uint256"
        }
      ],
      "stateMutability": "view",
      "type": "function"
    },
    {
      "inputs": [
        {
          "internalType": "address",
          "name": "owner",
          "type": "address"
        },
        {
          "internalType": "uint256",
          "name": "index",
          "type": "uint256"
        }
      ],
      "name": "tokenOfOwnerByIndex",
      "outputs": [
        {
          "internalType": "uint256",
          "name": "",
          "type": "uint256"
        }
      ],
      "stateMutability": "view",
      "type": "function"
    },
    {
      "inputs": [
        {
          "internalType": "uint256",
          "name": "tokenId",
          "type": "uint256"
        }
      ],
      "name": "tokenURI",
      "outputs": [
        {
          "internalType": "string",
          "name": "",
          "type": "string"
        }
      ],
      "stateMutability": "view",
      "type": "function"
    },
    {
      "inputs": [],
      "name": "totalSupply",
      "outputs": [
        {
          "internalType": "uint256",
          "name": "",
          "type": "uint256"
        }
      ],
      "stateMutability": "view",
      "type": "function"
    },
    {
      "inputs": [
        {
          "internalType": "address",
          "name": "from",
          "type": "address"
        },
        {
          "internalType": "address",
          "name": "to",
          "type": "address"
        },
        {
          "internalType": "uint256",
          "name": "tokenId",
          "type": "uint256"
        }
      ],
      "name": "transferFrom",
      "outputs": [],
      "stateMutability": "nonpayable",
      "type": "function"
    },
    {
      "inputs": [
        {
          "internalType": "address",
          "name": "newOwner",
          "type": "address"
        }
      ],
      "name": "transferOwnership",
      "outputs": [],
      "stateMutability": "nonpayable",
      "type": "function"
    },
    {
      "inputs": [],
      "name": "unpause",
      "outputs": [],
      "stateMutability": "nonpayable",
      "type": "function"
    },
    {
      "inputs": [],
      "name": "withdraw",
      "outputs": [],
      "stateMutability": "nonpayable",
      "type": "function"
    }
  ],
  "bytecode": "0x60c06040526014805463ffffffff191690553480156200001e57600080fd5b5060405162003d2238038062003d2283398101604081905262000041916200034c565b8383888881600090805190602001906200005d929190620001d2565b50805162000073906001906020840190620001d2565b5050600a805460ff19169055506001600160601b0319606092831b811660a052911b16608052620000ab620000a53390565b620000e2565b8451620000c090600e906020880190620001d2565b5060178290556018819055620000d562000134565b5050505050505062000469565b600c80546001600160a01b038381166001600160a01b0319831681179093556040519116919082907f8be0079c531659141344cd1fd0a4f28419497f9722a3daafe3b4186f6b6457e090600090a35050565b600a5460ff16156200017f5760405162461bcd60e51b815260206004820152601060248201526f14185d5cd8589b194e881c185d5cd95960821b604482015260640160405180910390fd5b600a805460ff191660011790557f62e78cea01bee320cd4e420270b5ea74000d11b0c9f74754ebdbfc544b05a258620001b53390565b6040516001600160a01b03909116815260200160405180910390a1565b828054620001e09062000416565b90600052602060002090601f0160209004810192826200020457600085556200024f565b82601f106200021f57805160ff19168380011785556200024f565b828001600101855582156200024f579182015b828111156200024f57825182559160200191906001019062000232565b506200025d92915062000261565b5090565b5b808211156200025d576000815560010162000262565b80516001600160a01b03811681146200029057600080fd5b919050565b600082601f830112620002a757600080fd5b81516001600160401b0380821115620002c457620002c462000453565b604051601f8301601f19908116603f01168101908282118183101715620002ef57620002ef62000453565b816040528381526020925086838588010111156200030c57600080fd5b600091505b8382101562000330578582018301518183018401529082019062000311565b83821115620003425760008385830101525b9695505050505050565b600080600080600080600060e0888a0312156200036857600080fd5b87516001600160401b03808211156200038057600080fd5b6200038e8b838c0162000295565b985060208a0151915080821115620003a557600080fd5b620003b38b838c0162000295565b975060408a0151915080821115620003ca57600080fd5b50620003d98a828b0162000295565b955050620003ea6060890162000278565b9350620003fa6080890162000278565b925060a0880151915060c0880151905092959891949750929550565b600181811c908216806200042b57607f821691505b602082108114156200044d57634e487b7160e01b600052602260045260246000fd5b50919050565b634e487b7160e01b600052604160045260246000fd5b60805160601c60a05160601c61387f620004a36000396000818161148d01526127d3015260008181611dd801526127a4015261387f6000f3fe60806040526004361061025a5760003560e01c806301ffc9a71461025f578063053012701461029457806306fdde03146102ae578063081812fc146102d0578063095ea7b3146102fd578063109695231461031f57806318160ddd1461033f57806323b872dd1461035e5780632f745c591461037e57806330176e131461039e57806332cb6b0c146103be5780633ccfd60b146103d45780633f4ba83a146103e957806342842e0e146103fe57806342966c681461041e57806346ff3f781461043e57806348b34fe1146104515780634ced4734146104665780634d4c4e99146104855780634ebbae731461049b5780634f6ccce7146104bb57806354bac24f146104db5780635c975abb146104ee5780636352211e1461050657806369dca441146105265780636a0b8d2d1461053c5780636ca49de31461055c57806370a0823114610571578063715018a6146105915780637f6dcbf8146105a65780638456cb59146105bb5780638d859f3e146105d05780638da5cb5b146105ec57806394985ddd1461060157806395d89b4114610621578063a22cb46514610636578063a477636914610656578063a5a865dc14610669578063ac5ae11b1461068a578063b88d4fde1461069d578063c6ab67a3146106bd578063c87b56dd146106d2578063ca3cb522146106f2578063cb774d4714610707578063d57e007f1461071d578063d6cd39041461073d578063de7535dd14610752578063e41ee46a14610768578063e985e9c51461077d578063e98665501461079d578063eff31e9e146107b2578063f2fde38b146107c7578063ff9ddf98146107e7575b600080fd5b34801561026b57600080fd5b5061027f61027a366004613285565b610807565b60405190151581526020015b60405180910390f35b3480156102a057600080fd5b5060145461027f9060ff1681565b3480156102ba57600080fd5b506102c3610818565b60405161028b91906134b9565b3480156102dc57600080fd5b506102f06102eb366004613307565b6108aa565b60405161028b9190613428565b34801561030957600080fd5b5061031d610318366004613170565b610937565b005b34801561032b57600080fd5b5061031d61033a3660046132bf565b610a48565b34801561034b57600080fd5b506008545b60405190815260200161028b565b34801561036a57600080fd5b5061031d610379366004613082565b610a8e565b34801561038a57600080fd5b50610350610399366004613170565b610ac0565b3480156103aa57600080fd5b5061031d6103b93660046132bf565b610b56565b3480156103ca57600080fd5b50610350611e6181565b3480156103e057600080fd5b5061031d610b98565b3480156103f557600080fd5b5061031d610bf6565b34801561040a57600080fd5b5061031d610419366004613082565b610c2f565b34801561042a57600080fd5b5061031d610439366004613307565b610c4a565b61031d61044c366004613170565b610cc4565b34801561045d57600080fd5b50610350600581565b34801561047257600080fd5b5060145461027f90610100900460ff1681565b34801561049157600080fd5b50610350610d0281565b3480156104a757600080fd5b5060145461027f9062010000900460ff1681565b3480156104c757600080fd5b506103506104d6366004613307565b610ec7565b61031d6104e9366004613170565b610f5a565b3480156104fa57600080fd5b50600a5460ff1661027f565b34801561051257600080fd5b506102f0610521366004613307565b611123565b34801561053257600080fd5b5061035061068181565b34801561054857600080fd5b5061031d6105573660046131db565b61119a565b34801561056857600080fd5b5061031d6112a7565b34801561057d57600080fd5b5061035061058c366004613034565b6112ea565b34801561059d57600080fd5b5061031d611371565b3480156105b257600080fd5b5061031d6113aa565b3480156105c757600080fd5b5061031d61143c565b3480156105dc57600080fd5b506103506701b4fbd92b5f800081565b3480156105f857600080fd5b506102f0611473565b34801561060d57600080fd5b5061031d61061c366004613263565b611482565b34801561062d57600080fd5b506102c3611504565b34801561064257600080fd5b5061031d610651366004613139565b611513565b61031d610664366004613170565b6115d4565b34801561067557600080fd5b5060145461027f906301000000900460ff1681565b61031d610698366004613170565b6117d7565b3480156106a957600080fd5b5061031d6106b83660046130be565b6118df565b3480156106c957600080fd5b506102c3611917565b3480156106de57600080fd5b506102c36106ed366004613307565b6119a5565b3480156106fe57600080fd5b5061031d611a71565b34801561071357600080fd5b5061035060165481565b34801561072957600080fd5b5061031d61073836600461319a565b611abd565b34801561074957600080fd5b5061031d611c13565b34801561075e57600080fd5b5061035061161d81565b34801561077457600080fd5b50610350600381565b34801561078957600080fd5b5061027f61079836600461304f565b611c61565b3480156107a957600080fd5b50610350611c8f565b3480156107be57600080fd5b50610350602181565b3480156107d357600080fd5b5061031d6107e2366004613034565b611eee565b3480156107f357600080fd5b5061031d61080236600461319a565b611f8b565b6000610812826120e1565b92915050565b6060600080546108279061370d565b80601f01602080910402602001604051908101604052809291908181526020018280546108539061370d565b80156108a05780601f10610875576101008083540402835291602001916108a0565b820191906000526020600020905b81548152906001019060200180831161088357829003601f168201915b5050505050905090565b60006108b582612106565b61091b5760405162461bcd60e51b815260206004820152602c60248201527f4552433732313a20617070726f76656420717565727920666f72206e6f6e657860448201526b34b9ba32b73a103a37b5b2b760a11b60648201526084015b60405180910390fd5b506000908152600460205260409020546001600160a01b031690565b600061094282611123565b9050806001600160a01b0316836001600160a01b031614156109b05760405162461bcd60e51b815260206004820152602160248201527f4552433732313a20617070726f76616c20746f2063757272656e74206f776e656044820152603960f91b6064820152608401610912565b336001600160a01b03821614806109cc57506109cc8133611c61565b610a395760405162461bcd60e51b815260206004820152603860248201527f4552433732313a20617070726f76652063616c6c6572206973206e6f74206f776044820152771b995c881b9bdc88185c1c1c9bdd995908199bdc88185b1b60421b6064820152608401610912565b610a438383612123565b505050565b33610a51611473565b6001600160a01b031614610a775760405162461bcd60e51b815260040161091290613588565b8051610a8a906015906020840190612ebf565b5050565b610a99335b82612191565b610ab55760405162461bcd60e51b8152600401610912906135ee565b610a4383838361225b565b6000610acb836112ea565b8210610b2d5760405162461bcd60e51b815260206004820152602b60248201527f455243373231456e756d657261626c653a206f776e657220696e646578206f7560448201526a74206f6620626f756e647360a81b6064820152608401610912565b506001600160a01b03919091166000908152600660209081526040808320938352929052205490565b33610b5f611473565b6001600160a01b031614610b855760405162461bcd60e51b815260040161091290613588565b8051610a8a90600e906020840190612ebf565b33610ba1611473565b6001600160a01b031614610bc75760405162461bcd60e51b815260040161091290613588565b6040514790339082156108fc029083906000818181858888f19350505050158015610a8a573d6000803e3d6000fd5b33610bff611473565b6001600160a01b031614610c255760405162461bcd60e51b815260040161091290613588565b610c2d6123f4565b565b610a43838383604051806020016040528060008152506118df565b610c5333610a93565b610cb85760405162461bcd60e51b815260206004820152603060248201527f4552433732314275726e61626c653a2063616c6c6572206973206e6f74206f7760448201526f1b995c881b9bdc88185c1c1c9bdd995960821b6064820152608401610912565b610cc181612477565b50565b601454610100900460ff16610d115760405162461bcd60e51b815260206004820152601360248201527250726553616c65206973206e6f74206c69766560681b6044820152606401610912565b3360009081526010602052604090205460ff16610d6b5760405162461bcd60e51b8152602060048201526018602482015277155cd95c881b9bdd081bdb88141c9954d85b19481b1a5cdd60421b6044820152606401610912565b610d79610d02610681613668565b81610d8360085490565b610d8d9190613668565b1115610dd15760405162461bcd60e51b8152602060048201526013602482015272141c9954d85b19481a5cc81cdbdb19081bdd5d606a1b6044820152606401610912565b336000908152601260209081526040808320546011909252909120546003918391610dfc9190613668565b610e069190613668565b1115610e245760405162461bcd60e51b815260040161091290613555565b610e36816701b4fbd92b5f8000613694565b341015610e555760405162461bcd60e51b81526004016109129061351e565b60005b81811015610e9b57336000908152601260205260408120805491610e7b83613748565b9190505550610e898361250c565b80610e9381613748565b915050610e58565b5060008051602061380a8339815191528282604051610ebb929190613479565b60405180910390a15050565b6000610ed260085490565b8210610f355760405162461bcd60e51b815260206004820152602c60248201527f455243373231456e756d657261626c653a20676c6f62616c20696e646578206f60448201526b7574206f6620626f756e647360a01b6064820152608401610912565b60088281548110610f4857610f486137b9565b90600052602060002001549050919050565b60145460ff16610fac5760405162461bcd60e51b815260206004820152601e60248201527f4561726c792041646f707465722073616c65206973206e6f74206c69766500006044820152606401610912565b336000908152600f602052604090205460ff1661100b5760405162461bcd60e51b815260206004820152601e60248201527f55736572206e6f74206f6e204561726c792041646f70746572206c69737400006044820152606401610912565b6106818161101860085490565b6110229190613668565b11156110705760405162461bcd60e51b815260206004820152601e60248201527f4561726c792041646f707465722073616c6520697320736f6c64206f757400006044820152606401610912565b3360009081526011602052604090205460059061108e908390613668565b11156110ac5760405162461bcd60e51b815260040161091290613555565b6110be816701b4fbd92b5f8000613694565b3410156110dd5760405162461bcd60e51b81526004016109129061351e565b60005b81811015610e9b5733600090815260116020526040812080549161110383613748565b91905055506111118361250c565b8061111b81613748565b9150506110e0565b6000818152600260205260408120546001600160a01b0316806108125760405162461bcd60e51b815260206004820152602960248201527f4552433732313a206f776e657220717565727920666f72206e6f6e657869737460448201526832b73a103a37b5b2b760b91b6064820152608401610912565b336111a3611473565b6001600160a01b0316146111c95760405162461bcd60e51b815260040161091290613588565b8281146111d557600080fd5b60005b838110156112a05760008585838181106111f4576111f46137b9565b90506020020160208101906112099190613034565b6001600160a01b031614156112305760405162461bcd60e51b8152600401610912906135bd565b828282818110611242576112426137b9565b905060200201356013600087878581811061125f5761125f6137b9565b90506020020160208101906112749190613034565b6001600160a01b031681526020810191909152604001600020558061129881613748565b9150506111d8565b5050505050565b336112b0611473565b6001600160a01b0316146112d65760405162461bcd60e51b815260040161091290613588565b6014805460ff19811660ff90911615179055565b60006001600160a01b0382166113555760405162461bcd60e51b815260206004820152602a60248201527f4552433732313a2062616c616e636520717565727920666f7220746865207a65604482015269726f206164647265737360b01b6064820152608401610912565b506001600160a01b031660009081526003602052604090205490565b3361137a611473565b6001600160a01b0316146113a05760405162461bcd60e51b815260040161091290613588565b610c2d600061252c565b336113b3611473565b6001600160a01b0316146113d95760405162461bcd60e51b815260040161091290613588565b60005b6021811015611411576113f133600d5461257e565b6113ff600d80546001019055565b8061140981613748565b9150506113dc565b5060008051602061380a833981519152336021604051611432929190613479565b60405180910390a1565b33611445611473565b6001600160a01b03161461146b5760405162461bcd60e51b815260040161091290613588565b610c2d612598565b600c546001600160a01b031690565b336001600160a01b037f000000000000000000000000000000000000000000000000000000000000000016146114fa5760405162461bcd60e51b815260206004820152601f60248201527f4f6e6c7920565246436f6f7264696e61746f722063616e2066756c66696c6c006044820152606401610912565b610a8a8282612613565b6060600180546108279061370d565b6001600160a01b0382163314156115685760405162461bcd60e51b815260206004820152601960248201527822a9219b99189d1030b8383937bb32903a379031b0b63632b960391b6044820152606401610912565b3360008181526005602090815260408083206001600160a01b03871680855290835292819020805460ff191686151590811790915590519081529192917f17307eab39ab6107e8899845ad3d59bd9653f200f220920489ca2b5937696c31910160405180910390a35050565b60145462010000900460ff166116295760405162461bcd60e51b815260206004820152601a6024820152794d696e7420706173732073616c65206973206e6f74206c69766560301b6044820152606401610912565b336000908152601360205260409020546116905760405162461bcd60e51b815260206004820152602260248201527f5573657220646f6573206e6f7420686176652076616c6964206d696e74207061604482015261737360f01b6064820152608401610912565b61161d6116a1610d02610681613668565b6116ab9190613668565b816116b560085490565b6116bf9190613668565b111561170a5760405162461bcd60e51b815260206004820152601a602482015279135a5b9d081c185cdcc81cd85b19481a5cc81cdbdb19081bdd5d60321b6044820152606401610912565b61171c816701b4fbd92b5f8000613694565b34101561173b5760405162461bcd60e51b81526004016109129061351e565b60005b81811015610e9b573360009081526013602052604090205461179c5760405162461bcd60e51b8152602060048201526017602482015276139bc81b5a5b9d081c185cdcc81b5a5b9d1cc81b19599d604a1b6044820152606401610912565b3360009081526013602052604081208054916117b7836136f6565b91905055506117c58361250c565b806117cf81613748565b91505061173e565b611e61816117e460085490565b6117ee9190613668565b111561183a5760405162461bcd60e51b815260206004820152601b60248201527a50757263686173652065786365656473206d617820737570706c7960281b6044820152606401610912565b60038111156118885760405162461bcd60e51b815260206004820152601a6024820152794f726465722065786365656473206d6178207175616e7469747960301b6044820152606401610912565b61189a816701b4fbd92b5f8000613694565b3410156118b95760405162461bcd60e51b81526004016109129061351e565b60005b81811015610e9b576118cd8361250c565b806118d781613748565b9150506118bc565b6118e93383612191565b6119055760405162461bcd60e51b8152600401610912906135ee565b61191184848484612670565b50505050565b601580546119249061370d565b80601f01602080910402602001604051908101604052809291908181526020018280546119509061370d565b801561199d5780601f106119725761010080835404028352916020019161199d565b820191906000526020600020905b81548152906001019060200180831161198057829003601f168201915b505050505081565b60606119b082612106565b611a155760405162461bcd60e51b815260206004820152603060248201527f4552433732314d657461646174613a2055524920717565727920666f72206e6f60448201526f3732bc34b9ba32b73a103a37b5b2b71760811b6064820152608401610912565b6000600e8054611a249061370d565b905011611a405760405180602001604052806000815250610812565b600e611a4b836126a3565b604051602001611a5c929190613381565b60405160208183030381529060405292915050565b33611a7a611473565b6001600160a01b031614611aa05760405162461bcd60e51b815260040161091290613588565b6014805461ff001981166101009182900460ff1615909102179055565b33611ac6611473565b6001600160a01b031614611aec5760405162461bcd60e51b815260040161091290613588565b60005b81811015610a43576000838383818110611b0b57611b0b6137b9565b9050602002016020810190611b209190613034565b6001600160a01b03161415611b475760405162461bcd60e51b8152600401610912906135bd565b60106000848484818110611b5d57611b5d6137b9565b9050602002016020810190611b729190613034565b6001600160a01b0316815260208101919091526040016000205460ff1615611bac5760405162461bcd60e51b81526004016109129061363f565b600160106000858585818110611bc457611bc46137b9565b9050602002016020810190611bd99190613034565b6001600160a01b031681526020810191909152604001600020805460ff191691151591909117905580611c0b81613748565b915050611aef565b33611c1c611473565b6001600160a01b031614611c425760405162461bcd60e51b815260040161091290613588565b6014805462ff0000198116620100009182900460ff1615909102179055565b6001600160a01b03918216600090815260056020908152604080832093909416825291909152205460ff1690565b60008060158054611c9f9061370d565b80601f0160208091040260200160405190810160405280929190818152602001828054611ccb9061370d565b8015611d185780601f10611ced57610100808354040283529160200191611d18565b820191906000526020600020905b815481529060010190602001808311611cfb57829003601f168201915b505050505090506000815111611d6e5760405162461bcd60e51b815260206004820152601b60248201527a09ccacac840e8de40e6cae840e0e4deeccadcc2dcc6ca40d0c2e6d602b1b6044820152606401610912565b60165415611dbe5760405162461bcd60e51b815260206004820152601d60248201527f5374617274696e6720696e64657820697320616c7265616479207365740000006044820152606401610912565b6018546040516370a0823160e01b81526001600160a01b037f000000000000000000000000000000000000000000000000000000000000000016906370a0823190611e0d903090600401613428565b60206040518083038186803b158015611e2557600080fd5b505afa158015611e39573d6000803e3d6000fd5b505050506040513d601f19601f82011682018060405250810190611e5d9190613320565b1015611e9d5760405162461bcd60e51b815260206004820152600f60248201526e4e6f7420656e6f756768204c494e4b60881b6044820152606401610912565b6000611ead6017546018546127a0565b90507fe5f5b44d72d4143c278eb745c4acc0695c4a5bc616be5beecf46abe29661780e81604051611ee091815260200190565b60405180910390a192915050565b33611ef7611473565b6001600160a01b031614611f1d5760405162461bcd60e51b815260040161091290613588565b6001600160a01b038116611f825760405162461bcd60e51b815260206004820152602660248201527f4f776e61626c653a206e6577206f776e657220697320746865207a65726f206160448201526564647265737360d01b6064820152608401610912565b610cc18161252c565b33611f94611473565b6001600160a01b031614611fba5760405162461bcd60e51b815260040161091290613588565b60005b81811015610a43576000838383818110611fd957611fd96137b9565b9050602002016020810190611fee9190613034565b6001600160a01b031614156120155760405162461bcd60e51b8152600401610912906135bd565b600f600084848481811061202b5761202b6137b9565b90506020020160208101906120409190613034565b6001600160a01b0316815260208101919091526040016000205460ff161561207a5760405162461bcd60e51b81526004016109129061363f565b6001600f6000858585818110612092576120926137b9565b90506020020160208101906120a79190613034565b6001600160a01b031681526020810191909152604001600020805460ff1916911515919091179055806120d981613748565b915050611fbd565b60006001600160e01b0319821663780e9d6360e01b148061081257506108128261292b565b6000908152600260205260409020546001600160a01b0316151590565b600081815260046020526040902080546001600160a01b0319166001600160a01b038416908117909155819061215882611123565b6001600160a01b03167f8c5be1e5ebec7d5bd14f71427d1e84f3dd0314c0f7b2291e5b200ac8c7c3b92560405160405180910390a45050565b600061219c82612106565b6121fd5760405162461bcd60e51b815260206004820152602c60248201527f4552433732313a206f70657261746f7220717565727920666f72206e6f6e657860448201526b34b9ba32b73a103a37b5b2b760a11b6064820152608401610912565b600061220883611123565b9050806001600160a01b0316846001600160a01b031614806122435750836001600160a01b0316612238846108aa565b6001600160a01b0316145b8061225357506122538185611c61565b949350505050565b826001600160a01b031661226e82611123565b6001600160a01b0316146122d65760405162461bcd60e51b815260206004820152602960248201527f4552433732313a207472616e73666572206f6620746f6b656e2074686174206960448201526839903737ba1037bbb760b91b6064820152608401610912565b6001600160a01b0382166123385760405162461bcd60e51b8152602060048201526024808201527f4552433732313a207472616e7366657220746f20746865207a65726f206164646044820152637265737360e01b6064820152608401610912565b61234383838361297b565b61234e600082612123565b6001600160a01b03831660009081526003602052604081208054600192906123779084906136b3565b90915550506001600160a01b03821660009081526003602052604081208054600192906123a5908490613668565b909155505060008181526002602052604080822080546001600160a01b0319166001600160a01b03868116918217909255915184939187169160008051602061382a83398151915291a4505050565b600a5460ff1661243d5760405162461bcd60e51b815260206004820152601460248201527314185d5cd8589b194e881b9bdd081c185d5cd95960621b6044820152606401610912565b600a805460ff191690557f5db9ee0a495bf2e6ff9c91a7834c1ba4fdd244a5e8aa4e537bd38aeae4b073aa335b6040516114329190613428565b600061248282611123565b90506124908160008461297b565b61249b600083612123565b6001600160a01b03811660009081526003602052604081208054600192906124c49084906136b3565b909155505060008281526002602052604080822080546001600160a01b0319169055518391906001600160a01b0384169060008051602061382a833981519152908390a45050565b61251a600d80546001019055565b610cc181612527600d5490565b612986565b600c80546001600160a01b038381166001600160a01b0319831681179093556040519116919082907f8be0079c531659141344cd1fd0a4f28419497f9722a3daafe3b4186f6b6457e090600090a35050565b610a8a828260405180602001604052806000815250612ab2565b600a5460ff16156125de5760405162461bcd60e51b815260206004820152601060248201526f14185d5cd8589b194e881c185d5cd95960821b6044820152606401610912565b600a805460ff191660011790557f62e78cea01bee320cd4e420270b5ea74000d11b0c9f74754ebdbfc544b05a25861246a3390565b61261f611e6182613763565b601681905561263a57601654612636906001612ae5565b6016555b60408051838152602081018390527fa0562a0d65ac91c22f0819742210c3d20adb1237260606aef60af9717484950d9101610ebb565b61267b84848461225b565b61268784848484612af8565b6119115760405162461bcd60e51b8152600401610912906134cc565b6060816126c75750506040805180820190915260018152600360fc1b602082015290565b8160005b81156126f157806126db81613748565b91506126ea9050600a83613680565b91506126cb565b6000816001600160401b0381111561270b5761270b6137cf565b6040519080825280601f01601f191660200182016040528015612735576020820181803683370190505b5090505b84156122535761274a6001836136b3565b9150612757600a86613763565b612762906030613668565b60f81b818381518110612777576127776137b9565b60200101906001600160f81b031916908160001a905350612799600a86613680565b9450612739565b60007f00000000000000000000000000000000000000000000000000000000000000006001600160a01b0316634000aea07f000000000000000000000000000000000000000000000000000000000000000084866000604051602001612810929190918252602082015260400190565b6040516020818303038152906040526040518463ffffffff1660e01b815260040161283d93929190613492565b602060405180830381600087803b15801561285757600080fd5b505af115801561286b573d6000803e3d6000fd5b505050506040513d601f19601f8201168201806040525081019061288f9190613246565b506000838152600b6020818152604080842054815180840189905280830186905230606082015260808082018390528351808303909101815260a0909101909252815191830191909120938790529190526128eb906001613668565b6000858152600b60205260409020556122538482604080516020808201949094528082019290925280518083038201815260609092019052805191012090565b60006001600160e01b031982166380ac58cd60e01b148061295c57506001600160e01b03198216635b5e139f60e01b145b8061081257506301ffc9a760e01b6001600160e01b0319831614610812565b610a43838383612c05565b6001600160a01b0382166129dc5760405162461bcd60e51b815260206004820181905260248201527f4552433732313a206d696e7420746f20746865207a65726f20616464726573736044820152606401610912565b6129e581612106565b15612a315760405162461bcd60e51b815260206004820152601c60248201527b115490cdcc8c4e881d1bdad95b88185b1c9958591e481b5a5b9d195960221b6044820152606401610912565b612a3d6000838361297b565b6001600160a01b0382166000908152600360205260408120805460019290612a66908490613668565b909155505060008181526002602052604080822080546001600160a01b0319166001600160a01b038616908117909155905183929060008051602061382a833981519152908290a45050565b612abc8383612986565b612ac96000848484612af8565b610a435760405162461bcd60e51b8152600401610912906134cc565b6000612af18284613668565b9392505050565b60006001600160a01b0384163b15612bfa57604051630a85bd0160e11b81526001600160a01b0385169063150b7a0290612b3c90339089908890889060040161343c565b602060405180830381600087803b158015612b5657600080fd5b505af1925050508015612b86575060408051601f3d908101601f19168201909252612b83918101906132a2565b60015b612be0573d808015612bb4576040519150601f19603f3d011682016040523d82523d6000602084013e612bb9565b606091505b508051612bd85760405162461bcd60e51b8152600401610912906134cc565b805181602001fd5b6001600160e01b031916630a85bd0160e11b149050612253565b506001949350505050565b612c10838383612c77565b600a5460ff1615610a435760405162461bcd60e51b815260206004820152602b60248201527f4552433732315061757361626c653a20746f6b656e207472616e73666572207760448201526a1a1a5b19481c185d5cd95960aa1b6064820152608401610912565b6001600160a01b038316612cd257612ccd81600880546000838152600960205260408120829055600182018355919091527ff3f7a9fe364faab93b216da50a3214154f22a0a2b415b23a84c8169e8b636ee30155565b612cf5565b816001600160a01b0316836001600160a01b031614612cf557612cf58382612d2f565b6001600160a01b038216612d0c57610a4381612dcc565b826001600160a01b0316826001600160a01b031614610a4357610a438282612e7b565b60006001612d3c846112ea565b612d4691906136b3565b600083815260076020526040902054909150808214612d99576001600160a01b03841660009081526006602090815260408083208584528252808320548484528184208190558352600790915290208190555b5060009182526007602090815260408084208490556001600160a01b039094168352600681528383209183525290812055565b600854600090612dde906001906136b3565b60008381526009602052604081205460088054939450909284908110612e0657612e066137b9565b906000526020600020015490508060088381548110612e2757612e276137b9565b6000918252602080832090910192909255828152600990915260408082208490558582528120556008805480612e5f57612e5f6137a3565b6001900381819060005260206000200160009055905550505050565b6000612e86836112ea565b6001600160a01b039093166000908152600660209081526040808320868452825280832085905593825260079052919091209190915550565b828054612ecb9061370d565b90600052602060002090601f016020900481019282612eed5760008555612f33565b82601f10612f0657805160ff1916838001178555612f33565b82800160010185558215612f33579182015b82811115612f33578251825591602001919060010190612f18565b50612f3f929150612f43565b5090565b5b80821115612f3f5760008155600101612f44565b60006001600160401b0380841115612f7257612f726137cf565b604051601f8501601f19908116603f01168101908282118183101715612f9a57612f9a6137cf565b81604052809350858152868686011115612fb357600080fd5b858560208301376000602087830101525050509392505050565b80356001600160a01b0381168114612fe457600080fd5b919050565b60008083601f840112612ffb57600080fd5b5081356001600160401b0381111561301257600080fd5b6020830191508360208260051b850101111561302d57600080fd5b9250929050565b60006020828403121561304657600080fd5b612af182612fcd565b6000806040838503121561306257600080fd5b61306b83612fcd565b915061307960208401612fcd565b90509250929050565b60008060006060848603121561309757600080fd5b6130a084612fcd565b92506130ae60208501612fcd565b9150604084013590509250925092565b600080600080608085870312156130d457600080fd5b6130dd85612fcd565b93506130eb60208601612fcd565b92506040850135915060608501356001600160401b0381111561310d57600080fd5b8501601f8101871361311e57600080fd5b61312d87823560208401612f58565b91505092959194509250565b6000806040838503121561314c57600080fd5b61315583612fcd565b91506020830135613165816137e5565b809150509250929050565b6000806040838503121561318357600080fd5b61318c83612fcd565b946020939093013593505050565b600080602083850312156131ad57600080fd5b82356001600160401b038111156131c357600080fd5b6131cf85828601612fe9565b90969095509350505050565b600080600080604085870312156131f157600080fd5b84356001600160401b038082111561320857600080fd5b61321488838901612fe9565b9096509450602087013591508082111561322d57600080fd5b5061323a87828801612fe9565b95989497509550505050565b60006020828403121561325857600080fd5b8151612af1816137e5565b6000806040838503121561327657600080fd5b50508035926020909101359150565b60006020828403121561329757600080fd5b8135612af1816137f3565b6000602082840312156132b457600080fd5b8151612af1816137f3565b6000602082840312156132d157600080fd5b81356001600160401b038111156132e757600080fd5b8201601f810184136132f857600080fd5b61225384823560208401612f58565b60006020828403121561331957600080fd5b5035919050565b60006020828403121561333257600080fd5b5051919050565b600081518084526133518160208601602086016136ca565b601f01601f19169290920160200192915050565b600081516133778185602086016136ca565b9290920192915050565b600080845481600182811c91508083168061339d57607f831692505b60208084108214156133bd57634e487b7160e01b86526022600452602486fd5b8180156133d157600181146133e25761340f565b60ff1986168952848901965061340f565b60008b81526020902060005b868110156134075781548b8201529085019083016133ee565b505084890196505b50505050505061341f8185613365565b95945050505050565b6001600160a01b0391909116815260200190565b6001600160a01b038581168252841660208201526040810183905260806060820181905260009061346f90830184613339565b9695505050505050565b6001600160a01b03929092168252602082015260400190565b60018060a01b038416815282602082015260606040820152600061341f6060830184613339565b602081526000612af16020830184613339565b60208082526032908201527f4552433732313a207472616e7366657220746f206e6f6e20455243373231526560408201527131b2b4bb32b91034b6b83632b6b2b73a32b960711b606082015260800190565b6020808252601f908201527f45746865722076616c75652073656e74206973206e6f7420636f727265637400604082015260600190565b602080825260199082015278131a5b5a5d081c195c881dd85b1b195d08195e18d959591959603a1b604082015260600190565b6020808252818101527f4f776e61626c653a2063616c6c6572206973206e6f7420746865206f776e6572604082015260600190565b60208082526017908201527643616e6e6f7420616464206e756c6c206164647265737360481b604082015260600190565b60208082526031908201527f4552433732313a207472616e736665722063616c6c6572206973206e6f74206f6040820152701ddb995c881b9bdc88185c1c1c9bdd9959607a1b606082015260800190565b6020808252600f908201526e4475706c696361746520656e74727960881b604082015260600190565b6000821982111561367b5761367b613777565b500190565b60008261368f5761368f61378d565b500490565b60008160001904831182151516156136ae576136ae613777565b500290565b6000828210156136c5576136c5613777565b500390565b60005b838110156136e55781810151838201526020016136cd565b838111156119115750506000910152565b60008161370557613705613777565b506000190190565b600181811c9082168061372157607f821691505b6020821081141561374257634e487b7160e01b600052602260045260246000fd5b50919050565b600060001982141561375c5761375c613777565b5060010190565b6000826137725761377261378d565b500690565b634e487b7160e01b600052601160045260246000fd5b634e487b7160e01b600052601260045260246000fd5b634e487b7160e01b600052603160045260246000fd5b634e487b7160e01b600052603260045260246000fd5b634e487b7160e01b600052604160045260246000fd5b8015158114610cc157600080fd5b6001600160e01b031981168114610cc157600080fdfe48ab551616fa96d8766a4795180ef0312e24b226fc48f24d0bef6494b31d9df7ddf252ad1be2c89b69c2b068fc378daa952ba7f163c4a11628f55a4df523b3efa26469706673582212203ac361e98581dab61d965f1df6bca6282a73242b97bfebf9dc0a0431d23996d764736f6c63430008070033",
  "linkReferences": {},
  "deployedLinkReferences": {}
}