{
  "_format": "hh-sol-artifact-1",
  "contractName": "MetaTravelers",
  "sourceName": "contracts/MetaTravelers.sol",
  "abi": [
    {
      "inputs": [
        {
          "internalType": "string",
          "name": "name",
          "type": "string"
        },
        {
          "internalType": "string",
          "name": "symbol",
          "type": "string"
        },
        {
          "internalType": "string",
          "name": "baseTokenURI",
          "type": "string"
        }
      ],
      "stateMutability": "nonpayable",
      "type": "constructor"
    },
    {
      "anonymous": false,
      "inputs": [
        {
          "indexed": true,
          "internalType": "address",
          "name": "owner",
          "type": "address"
        },
        {
          "indexed": true,
          "internalType": "address",
          "name": "approved",
          "type": "address"
        },
        {
          "indexed": true,
          "internalType": "uint256",
          "name": "tokenId",
          "type": "uint256"
        }
      ],
      "name": "Approval",
      "type": "event"
    },
    {
      "anonymous": false,
      "inputs": [
        {
          "indexed": true,
          "internalType": "address",
          "name": "owner",
          "type": "address"
        },
        {
          "indexed": true,
          "internalType": "address",
          "name": "operator",
          "type": "address"
        },
        {
          "indexed": false,
          "internalType": "bool",
          "name": "approved",
          "type": "bool"
        }
      ],
      "name": "ApprovalForAll",
      "type": "event"
    },
    {
      "anonymous": false,
      "inputs": [
        {
          "indexed": false,
          "internalType": "address",
          "name": "owner",
          "type": "address"
        },
        {
          "indexed": false,
          "internalType": "uint256",
          "name": "quantity",
          "type": "uint256"
        }
      ],
      "name": "AssetsMinted",
      "type": "event"
    },
    {
      "anonymous": false,
      "inputs": [
        {
          "indexed": true,
          "internalType": "address",
          "name": "previousOwner",
          "type": "address"
        },
        {
          "indexed": true,
          "internalType": "address",
          "name": "newOwner",
          "type": "address"
        }
      ],
      "name": "OwnershipTransferred",
      "type": "event"
    },
    {
      "anonymous": false,
      "inputs": [
        {
          "indexed": false,
          "internalType": "address",
          "name": "account",
          "type": "address"
        }
      ],
      "name": "Paused",
      "type": "event"
    },
    {
      "anonymous": false,
      "inputs": [
        {
          "indexed": true,
          "internalType": "address",
          "name": "from",
          "type": "address"
        },
        {
          "indexed": true,
          "internalType": "address",
          "name": "to",
          "type": "address"
        },
        {
          "indexed": true,
          "internalType": "uint256",
          "name": "tokenId",
          "type": "uint256"
        }
      ],
      "name": "Transfer",
      "type": "event"
    },
    {
      "anonymous": false,
      "inputs": [
        {
          "indexed": false,
          "internalType": "address",
          "name": "account",
          "type": "address"
        }
      ],
      "name": "Unpaused",
      "type": "event"
    },
    {
      "inputs": [],
      "name": "MAX_QUANTITY",
      "outputs": [
        {
          "internalType": "uint256",
          "name": "",
          "type": "uint256"
        }
      ],
      "stateMutability": "view",
      "type": "function"
    },
    {
      "inputs": [],
      "name": "MAX_RESERVE",
      "outputs": [
        {
          "internalType": "uint256",
          "name": "",
          "type": "uint256"
        }
      ],
      "stateMutability": "view",
      "type": "function"
    },
    {
      "inputs": [],
      "name": "MAX_SUPPLY",
      "outputs": [
        {
          "internalType": "uint256",
          "name": "",
          "type": "uint256"
        }
      ],
      "stateMutability": "view",
      "type": "function"
    },
    {
      "inputs": [],
      "name": "PRICE",
      "outputs": [
        {
          "internalType": "uint256",
          "name": "",
          "type": "uint256"
        }
      ],
      "stateMutability": "view",
      "type": "function"
    },
    {
      "inputs": [
        {
          "internalType": "address",
          "name": "to",
          "type": "address"
        },
        {
          "internalType": "uint256",
          "name": "tokenId",
          "type": "uint256"
        }
      ],
      "name": "approve",
      "outputs": [],
      "stateMutability": "nonpayable",
      "type": "function"
    },
    {
      "inputs": [
        {
          "internalType": "address",
          "name": "owner",
          "type": "address"
        }
      ],
      "name": "balanceOf",
      "outputs": [
        {
          "internalType": "uint256",
          "name": "",
          "type": "uint256"
        }
      ],
      "stateMutability": "view",
      "type": "function"
    },
    {
      "inputs": [
        {
          "internalType": "uint256",
          "name": "tokenId",
          "type": "uint256"
        }
      ],
      "name": "burn",
      "outputs": [],
      "stateMutability": "nonpayable",
      "type": "function"
    },
    {
      "inputs": [
        {
          "internalType": "uint256",
          "name": "tokenId",
          "type": "uint256"
        }
      ],
      "name": "getApproved",
      "outputs": [
        {
          "internalType": "address",
          "name": "",
          "type": "address"
        }
      ],
      "stateMutability": "view",
      "type": "function"
    },
    {
      "inputs": [
        {
          "internalType": "address",
          "name": "owner",
          "type": "address"
        },
        {
          "internalType": "address",
          "name": "operator",
          "type": "address"
        }
      ],
      "name": "isApprovedForAll",
      "outputs": [
        {
          "internalType": "bool",
          "name": "",
          "type": "bool"
        }
      ],
      "stateMutability": "view",
      "type": "function"
    },
    {
      "inputs": [
        {
          "internalType": "address",
          "name": "to",
          "type": "address"
        },
        {
          "internalType": "uint256",
          "name": "quantity",
          "type": "uint256"
        }
      ],
      "name": "mint",
      "outputs": [],
      "stateMutability": "payable",
      "type": "function"
    },
    {
      "inputs": [],
      "name": "name",
      "outputs": [
        {
          "internalType": "string",
          "name": "",
          "type": "string"
        }
      ],
      "stateMutability": "view",
      "type": "function"
    },
    {
      "inputs": [],
      "name": "owner",
      "outputs": [
        {
          "internalType": "address",
          "name": "",
          "type": "address"
        }
      ],
      "stateMutability": "view",
      "type": "function"
    },
    {
      "inputs": [
        {
          "internalType": "uint256",
          "name": "tokenId",
          "type": "uint256"
        }
      ],
      "name": "ownerOf",
      "outputs": [
        {
          "internalType": "address",
          "name": "",
          "type": "address"
        }
      ],
      "stateMutability": "view",
      "type": "function"
    },
    {
      "inputs": [],
      "name": "pause",
      "outputs": [],
      "stateMutability": "nonpayable",
      "type": "function"
    },
    {
      "inputs": [],
      "name": "paused",
      "outputs": [
        {
          "internalType": "bool",
          "name": "",
          "type": "bool"
        }
      ],
      "stateMutability": "view",
      "type": "function"
    },
    {
      "inputs": [],
      "name": "renounceOwnership",
      "outputs": [],
      "stateMutability": "nonpayable",
      "type": "function"
    },
    {
      "inputs": [],
      "name": "reserveMetaTravelers",
      "outputs": [],
      "stateMutability": "nonpayable",
      "type": "function"
    },
    {
      "inputs": [
        {
          "internalType": "address",
          "name": "from",
          "type": "address"
        },
        {
          "internalType": "address",
          "name": "to",
          "type": "address"
        },
        {
          "internalType": "uint256",
          "name": "tokenId",
          "type": "uint256"
        }
      ],
      "name": "safeTransferFrom",
      "outputs": [],
      "stateMutability": "nonpayable",
      "type": "function"
    },
    {
      "inputs": [
        {
          "internalType": "address",
          "name": "from",
          "type": "address"
        },
        {
          "internalType": "address",
          "name": "to",
          "type": "address"
        },
        {
          "internalType": "uint256",
          "name": "tokenId",
          "type": "uint256"
        },
        {
          "internalType": "bytes",
          "name": "_data",
          "type": "bytes"
        }
      ],
      "name": "safeTransferFrom",
      "outputs": [],
      "stateMutability": "nonpayable",
      "type": "function"
    },
    {
      "inputs": [
        {
          "internalType": "address",
          "name": "operator",
          "type": "address"
        },
        {
          "internalType": "bool",
          "name": "approved",
          "type": "bool"
        }
      ],
      "name": "setApprovalForAll",
      "outputs": [],
      "stateMutability": "nonpayable",
      "type": "function"
    },
    {
      "inputs": [
        {
          "internalType": "string",
          "name": "baseTokenURI",
          "type": "string"
        }
      ],
      "name": "setBaseTokenURI",
      "outputs": [],
      "stateMutability": "nonpayable",
      "type": "function"
    },
    {
      "inputs": [
        {
          "internalType": "bytes4",
          "name": "interfaceId",
          "type": "bytes4"
        }
      ],
      "name": "supportsInterface",
      "outputs": [
        {
          "internalType": "bool",
          "name": "",
          "type": "bool"
        }
      ],
      "stateMutability": "view",
      "type": "function"
    },
    {
      "inputs": [],
      "name": "symbol",
      "outputs": [
        {
          "internalType": "string",
          "name": "",
          "type": "string"
        }
      ],
      "stateMutability": "view",
      "type": "function"
    },
    {
      "inputs": [
        {
          "internalType": "uint256",
          "name": "index",
          "type": "uint256"
        }
      ],
      "name": "tokenByIndex",
      "outputs": [
        {
          "internalType": "uint256",
          "name": "",
          "type": "uint256"
        }
      ],
      "stateMutability": "view",
      "type": "function"
    },
    {
      "inputs": [
        {
          "internalType": "address",
          "name": "owner",
          "type": "address"
        },
        {
          "internalType": "uint256",
          "name": "index",
          "type": "uint256"
        }
      ],
      "name": "tokenOfOwnerByIndex",
      "outputs": [
        {
          "internalType": "uint256",
          "name": "",
          "type": "uint256"
        }
      ],
      "stateMutability": "view",
      "type": "function"
    },
    {
      "inputs": [
        {
          "internalType": "uint256",
          "name": "tokenId",
          "type": "uint256"
        }
      ],
      "name": "tokenURI",
      "outputs": [
        {
          "internalType": "string",
          "name": "",
          "type": "string"
        }
      ],
      "stateMutability": "view",
      "type": "function"
    },
    {
      "inputs": [],
      "name": "totalSupply",
      "outputs": [
        {
          "internalType": "uint256",
          "name": "",
          "type": "uint256"
        }
      ],
      "stateMutability": "view",
      "type": "function"
    },
    {
      "inputs": [
        {
          "internalType": "address",
          "name": "from",
          "type": "address"
        },
        {
          "internalType": "address",
          "name": "to",
          "type": "address"
        },
        {
          "internalType": "uint256",
          "name": "tokenId",
          "type": "uint256"
        }
      ],
      "name": "transferFrom",
      "outputs": [],
      "stateMutability": "nonpayable",
      "type": "function"
    },
    {
      "inputs": [
        {
          "internalType": "address",
          "name": "newOwner",
          "type": "address"
        }
      ],
      "name": "transferOwnership",
      "outputs": [],
      "stateMutability": "nonpayable",
      "type": "function"
    },
    {
      "inputs": [],
      "name": "unpause",
      "outputs": [],
      "stateMutability": "nonpayable",
      "type": "function"
    },
    {
      "inputs": [],
      "name": "withdraw",
      "outputs": [],
      "stateMutability": "nonpayable",
      "type": "function"
    }
  ],
  "bytecode": "0x60806040523480156200001157600080fd5b5060405162004ac938038062004ac9833981810160405281019062000037919062000399565b828281600090805190602001906200005192919062000277565b5080600190805190602001906200006a92919062000277565b5050506000600a60006101000a81548160ff021916908315150217905550620000a86200009c620000da60201b60201c565b620000e260201b60201c565b80600c9080519060200190620000c092919062000277565b50620000d1620001a860201b60201c565b5050506200068f565b600033905090565b6000600a60019054906101000a900473ffffffffffffffffffffffffffffffffffffffff16905081600a60016101000a81548173ffffffffffffffffffffffffffffffffffffffff021916908373ffffffffffffffffffffffffffffffffffffffff1602179055508173ffffffffffffffffffffffffffffffffffffffff168173ffffffffffffffffffffffffffffffffffffffff167f8be0079c531659141344cd1fd0a4f28419497f9722a3daafe3b4186f6b6457e060405160405180910390a35050565b620001b86200026060201b60201c565b15620001fb576040517f08c379a0000000000000000000000000000000000000000000000000000000008152600401620001f2906200048f565b60405180910390fd5b6001600a60006101000a81548160ff0219169083151502179055507f62e78cea01bee320cd4e420270b5ea74000d11b0c9f74754ebdbfc544b05a25862000247620000da60201b60201c565b60405162000256919062000472565b60405180910390a1565b6000600a60009054906101000a900460ff16905090565b82805462000285906200058b565b90600052602060002090601f016020900481019282620002a95760008555620002f5565b82601f10620002c457805160ff1916838001178555620002f5565b82800160010185558215620002f5579182015b82811115620002f4578251825591602001919060010190620002d7565b5b50905062000304919062000308565b5090565b5b808211156200032357600081600090555060010162000309565b5090565b60006200033e6200033884620004da565b620004b1565b9050828152602081018484840111156200035757600080fd5b6200036484828562000555565b509392505050565b600082601f8301126200037e57600080fd5b81516200039084826020860162000327565b91505092915050565b600080600060608486031215620003af57600080fd5b600084015167ffffffffffffffff811115620003ca57600080fd5b620003d8868287016200036c565b935050602084015167ffffffffffffffff811115620003f657600080fd5b62000404868287016200036c565b925050604084015167ffffffffffffffff8111156200042257600080fd5b62000430868287016200036c565b9150509250925092565b620004458162000521565b82525050565b60006200045a60108362000510565b9150620004678262000666565b602082019050919050565b60006020820190506200048960008301846200043a565b92915050565b60006020820190508181036000830152620004aa816200044b565b9050919050565b6000620004bd620004d0565b9050620004cb8282620005c1565b919050565b6000604051905090565b600067ffffffffffffffff821115620004f857620004f762000626565b5b620005038262000655565b9050602081019050919050565b600082825260208201905092915050565b60006200052e8262000535565b9050919050565b600073ffffffffffffffffffffffffffffffffffffffff82169050919050565b60005b838110156200057557808201518184015260208101905062000558565b8381111562000585576000848401525b50505050565b60006002820490506001821680620005a457607f821691505b60208210811415620005bb57620005ba620005f7565b5b50919050565b620005cc8262000655565b810181811067ffffffffffffffff82111715620005ee57620005ed62000626565b5b80604052505050565b7f4e487b7100000000000000000000000000000000000000000000000000000000600052602260045260246000fd5b7f4e487b7100000000000000000000000000000000000000000000000000000000600052604160045260246000fd5b6000601f19601f8301169050919050565b7f5061757361626c653a2070617573656400000000000000000000000000000000600082015250565b61442a806200069f6000396000f3fe6080604052600436106101d85760003560e01c80635c975abb1161010257806395d89b4111610095578063e41ee46a11610064578063e41ee46a14610663578063e985e9c51461068e578063eff31e9e146106cb578063f2fde38b146106f6576101d8565b806395d89b41146105a9578063a22cb465146105d4578063b88d4fde146105fd578063c87b56dd14610626576101d8565b80637f6dcbf8116100d15780637f6dcbf8146105255780638456cb591461053c5780638d859f3e146105535780638da5cb5b1461057e576101d8565b80635c975abb146104695780636352211e1461049457806370a08231146104d1578063715018a61461050e576101d8565b806330176e131161017a57806340c10f191161014957806340c10f19146103be57806342842e0e146103da57806342966c68146104035780634f6ccce71461042c576101d8565b806330176e131461033c57806332cb6b0c146103655780633ccfd60b146103905780633f4ba83a146103a7576101d8565b8063095ea7b3116101b6578063095ea7b31461028257806318160ddd146102ab57806323b872dd146102d65780632f745c59146102ff576101d8565b806301ffc9a7146101dd57806306fdde031461021a578063081812fc14610245575b600080fd5b3480156101e957600080fd5b5061020460048036038101906101ff9190612f41565b61071f565b604051610211919061356b565b60405180910390f35b34801561022657600080fd5b5061022f610731565b60405161023c9190613586565b60405180910390f35b34801561025157600080fd5b5061026c60048036038101906102679190612fd4565b6107c3565b60405161027991906134db565b60405180910390f35b34801561028e57600080fd5b506102a960048036038101906102a49190612f05565b610848565b005b3480156102b757600080fd5b506102c0610960565b6040516102cd91906138c8565b60405180910390f35b3480156102e257600080fd5b506102fd60048036038101906102f89190612dff565b61096d565b005b34801561030b57600080fd5b5061032660048036038101906103219190612f05565b6109cd565b60405161033391906138c8565b60405180910390f35b34801561034857600080fd5b50610363600480360381019061035e9190612f93565b610a72565b005b34801561037157600080fd5b5061037a610b08565b60405161038791906138c8565b60405180910390f35b34801561039c57600080fd5b506103a5610b0e565b005b3480156103b357600080fd5b506103bc610be0565b005b6103d860048036038101906103d39190612f05565b610c66565b005b3480156103e657600080fd5b5061040160048036038101906103fc9190612dff565b610dd0565b005b34801561040f57600080fd5b5061042a60048036038101906104259190612fd4565b610df0565b005b34801561043857600080fd5b50610453600480360381019061044e9190612fd4565b610e4c565b60405161046091906138c8565b60405180910390f35b34801561047557600080fd5b5061047e610ee3565b60405161048b919061356b565b60405180910390f35b3480156104a057600080fd5b506104bb60048036038101906104b69190612fd4565b610efa565b6040516104c891906134db565b60405180910390f35b3480156104dd57600080fd5b506104f860048036038101906104f39190612d9a565b610fac565b60405161050591906138c8565b60405180910390f35b34801561051a57600080fd5b50610523611064565b005b34801561053157600080fd5b5061053a6110ec565b005b34801561054857600080fd5b506105516111ef565b005b34801561055f57600080fd5b50610568611275565b60405161057591906138c8565b60405180910390f35b34801561058a57600080fd5b50610593611281565b6040516105a091906134db565b60405180910390f35b3480156105b557600080fd5b506105be6112ab565b6040516105cb9190613586565b60405180910390f35b3480156105e057600080fd5b506105fb60048036038101906105f69190612ec9565b61133d565b005b34801561060957600080fd5b50610624600480360381019061061f9190612e4e565b6114be565b005b34801561063257600080fd5b5061064d60048036038101906106489190612fd4565b611520565b60405161065a9190613586565b60405180910390f35b34801561066f57600080fd5b506106786115c8565b60405161068591906138c8565b60405180910390f35b34801561069a57600080fd5b506106b560048036038101906106b09190612dc3565b6115cd565b6040516106c2919061356b565b60405180910390f35b3480156106d757600080fd5b506106e0611661565b6040516106ed91906138c8565b60405180910390f35b34801561070257600080fd5b5061071d60048036038101906107189190612d9a565b611666565b005b600061072a8261175e565b9050919050565b60606000805461074090613b8d565b80601f016020809104026020016040519081016040528092919081815260200182805461076c90613b8d565b80156107b95780601f1061078e576101008083540402835291602001916107b9565b820191906000526020600020905b81548152906001019060200180831161079c57829003601f168201915b5050505050905090565b60006107ce826117d8565b61080d576040517f08c379a000000000000000000000000000000000000000000000000000000000815260040161080490613788565b60405180910390fd5b6004600083815260200190815260200160002060009054906101000a900473ffffffffffffffffffffffffffffffffffffffff169050919050565b600061085382610efa565b90508073ffffffffffffffffffffffffffffffffffffffff168373ffffffffffffffffffffffffffffffffffffffff1614156108c4576040517f08c379a00000000000000000000000000000000000000000000000000000000081526004016108bb90613808565b60405180910390fd5b8073ffffffffffffffffffffffffffffffffffffffff166108e3611844565b73ffffffffffffffffffffffffffffffffffffffff16148061091257506109118161090c611844565b6115cd565b5b610951576040517f08c379a000000000000000000000000000000000000000000000000000000000815260040161094890613708565b60405180910390fd5b61095b838361184c565b505050565b6000600880549050905090565b61097e610978611844565b82611905565b6109bd576040517f08c379a00000000000000000000000000000000000000000000000000000000081526004016109b490613848565b60405180910390fd5b6109c88383836119e3565b505050565b60006109d883610fac565b8210610a19576040517f08c379a0000000000000000000000000000000000000000000000000000000008152600401610a10906135e8565b60405180910390fd5b600660008473ffffffffffffffffffffffffffffffffffffffff1673ffffffffffffffffffffffffffffffffffffffff168152602001908152602001600020600083815260200190815260200160002054905092915050565b610a7a611844565b73ffffffffffffffffffffffffffffffffffffffff16610a98611281565b73ffffffffffffffffffffffffffffffffffffffff1614610aee576040517f08c379a0000000000000000000000000000000000000000000000000000000008152600401610ae5906137a8565b60405180910390fd5b80600c9080519060200190610b04929190612bbe565b5050565b611e6181565b610b16611844565b73ffffffffffffffffffffffffffffffffffffffff16610b34611281565b73ffffffffffffffffffffffffffffffffffffffff1614610b8a576040517f08c379a0000000000000000000000000000000000000000000000000000000008152600401610b81906137a8565b60405180910390fd5b6000479050610b97611844565b73ffffffffffffffffffffffffffffffffffffffff166108fc829081150290604051600060405180830381858888f19350505050158015610bdc573d6000803e3d6000fd5b5050565b610be8611844565b73ffffffffffffffffffffffffffffffffffffffff16610c06611281565b73ffffffffffffffffffffffffffffffffffffffff1614610c5c576040517f08c379a0000000000000000000000000000000000000000000000000000000008152600401610c53906137a8565b60405180910390fd5b610c64611c3f565b565b611e6181610c72610960565b610c7c91906139c2565b1115610cbd576040517f08c379a0000000000000000000000000000000000000000000000000000000008152600401610cb4906137c8565b60405180910390fd5b6003811115610d01576040517f08c379a0000000000000000000000000000000000000000000000000000000008152600401610cf890613828565b60405180910390fd5b806701b4fbd92b5f8000610d159190613a49565b341015610d57576040517f08c379a0000000000000000000000000000000000000000000000000000000008152600401610d4e906136a8565b60405180910390fd5b60005b81811015610d9257610d7583610d70600b611ce1565b611cef565b610d7f600b611ebd565b8080610d8a90613bf0565b915050610d5a565b507f48ab551616fa96d8766a4795180ef0312e24b226fc48f24d0bef6494b31d9df78282604051610dc4929190613542565b60405180910390a15050565b610deb838383604051806020016040528060008152506114be565b505050565b610e01610dfb611844565b82611905565b610e40576040517f08c379a0000000000000000000000000000000000000000000000000000000008152600401610e3790613888565b60405180910390fd5b610e4981611ed3565b50565b6000610e56610960565b8210610e97576040517f08c379a0000000000000000000000000000000000000000000000000000000008152600401610e8e90613868565b60405180910390fd5b60088281548110610ed1577f4e487b7100000000000000000000000000000000000000000000000000000000600052603260045260246000fd5b90600052602060002001549050919050565b6000600a60009054906101000a900460ff16905090565b6000806002600084815260200190815260200160002060009054906101000a900473ffffffffffffffffffffffffffffffffffffffff169050600073ffffffffffffffffffffffffffffffffffffffff168173ffffffffffffffffffffffffffffffffffffffff161415610fa3576040517f08c379a0000000000000000000000000000000000000000000000000000000008152600401610f9a90613748565b60405180910390fd5b80915050919050565b60008073ffffffffffffffffffffffffffffffffffffffff168273ffffffffffffffffffffffffffffffffffffffff16141561101d576040517f08c379a000000000000000000000000000000000000000000000000000000000815260040161101490613728565b60405180910390fd5b600360008373ffffffffffffffffffffffffffffffffffffffff1673ffffffffffffffffffffffffffffffffffffffff168152602001908152602001600020549050919050565b61106c611844565b73ffffffffffffffffffffffffffffffffffffffff1661108a611281565b73ffffffffffffffffffffffffffffffffffffffff16146110e0576040517f08c379a00000000000000000000000000000000000000000000000000000000081526004016110d7906137a8565b60405180910390fd5b6110ea6000611fe4565b565b6110f4611844565b73ffffffffffffffffffffffffffffffffffffffff16611112611281565b73ffffffffffffffffffffffffffffffffffffffff1614611168576040517f08c379a000000000000000000000000000000000000000000000000000000000815260040161115f906137a8565b60405180910390fd5b60005b60218110156111ab5761118e61117f611844565b611189600b611ce1565b6120aa565b611198600b611ebd565b80806111a390613bf0565b91505061116b565b507f48ab551616fa96d8766a4795180ef0312e24b226fc48f24d0bef6494b31d9df76111d5611844565b60216040516111e5929190613542565b60405180910390a1565b6111f7611844565b73ffffffffffffffffffffffffffffffffffffffff16611215611281565b73ffffffffffffffffffffffffffffffffffffffff161461126b576040517f08c379a0000000000000000000000000000000000000000000000000000000008152600401611262906137a8565b60405180910390fd5b6112736120c8565b565b6701b4fbd92b5f800081565b6000600a60019054906101000a900473ffffffffffffffffffffffffffffffffffffffff16905090565b6060600180546112ba90613b8d565b80601f01602080910402602001604051908101604052809291908181526020018280546112e690613b8d565b80156113335780601f1061130857610100808354040283529160200191611333565b820191906000526020600020905b81548152906001019060200180831161131657829003601f168201915b5050505050905090565b611345611844565b73ffffffffffffffffffffffffffffffffffffffff168273ffffffffffffffffffffffffffffffffffffffff1614156113b3576040517f08c379a00000000000000000000000000000000000000000000000000000000081526004016113aa90613688565b60405180910390fd5b80600560006113c0611844565b73ffffffffffffffffffffffffffffffffffffffff1673ffffffffffffffffffffffffffffffffffffffff16815260200190815260200160002060008473ffffffffffffffffffffffffffffffffffffffff1673ffffffffffffffffffffffffffffffffffffffff16815260200190815260200160002060006101000a81548160ff0219169083151502179055508173ffffffffffffffffffffffffffffffffffffffff1661146d611844565b73ffffffffffffffffffffffffffffffffffffffff167f17307eab39ab6107e8899845ad3d59bd9653f200f220920489ca2b5937696c31836040516114b2919061356b565b60405180910390a35050565b6114cf6114c9611844565b83611905565b61150e576040517f08c379a000000000000000000000000000000000000000000000000000000000815260040161150590613848565b60405180910390fd5b61151a8484848461216b565b50505050565b606061152b826117d8565b61156a576040517f08c379a0000000000000000000000000000000000000000000000000000000008152600401611561906138a8565b60405180910390fd5b6000600c805461157990613b8d565b90501161159557604051806020016040528060008152506115c1565b600c6115a0836121c7565b6040516020016115b19291906134b7565b6040516020818303038152906040525b9050919050565b600381565b6000600560008473ffffffffffffffffffffffffffffffffffffffff1673ffffffffffffffffffffffffffffffffffffffff16815260200190815260200160002060008373ffffffffffffffffffffffffffffffffffffffff1673ffffffffffffffffffffffffffffffffffffffff16815260200190815260200160002060009054906101000a900460ff16905092915050565b602181565b61166e611844565b73ffffffffffffffffffffffffffffffffffffffff1661168c611281565b73ffffffffffffffffffffffffffffffffffffffff16146116e2576040517f08c379a00000000000000000000000000000000000000000000000000000000081526004016116d9906137a8565b60405180910390fd5b600073ffffffffffffffffffffffffffffffffffffffff168173ffffffffffffffffffffffffffffffffffffffff161415611752576040517f08c379a000000000000000000000000000000000000000000000000000000000815260040161174990613628565b60405180910390fd5b61175b81611fe4565b50565b60007f780e9d63000000000000000000000000000000000000000000000000000000007bffffffffffffffffffffffffffffffffffffffffffffffffffffffff1916827bffffffffffffffffffffffffffffffffffffffffffffffffffffffff191614806117d157506117d082612374565b5b9050919050565b60008073ffffffffffffffffffffffffffffffffffffffff166002600084815260200190815260200160002060009054906101000a900473ffffffffffffffffffffffffffffffffffffffff1673ffffffffffffffffffffffffffffffffffffffff1614159050919050565b600033905090565b816004600083815260200190815260200160002060006101000a81548173ffffffffffffffffffffffffffffffffffffffff021916908373ffffffffffffffffffffffffffffffffffffffff160217905550808273ffffffffffffffffffffffffffffffffffffffff166118bf83610efa565b73ffffffffffffffffffffffffffffffffffffffff167f8c5be1e5ebec7d5bd14f71427d1e84f3dd0314c0f7b2291e5b200ac8c7c3b92560405160405180910390a45050565b6000611910826117d8565b61194f576040517f08c379a0000000000000000000000000000000000000000000000000000000008152600401611946906136c8565b60405180910390fd5b600061195a83610efa565b90508073ffffffffffffffffffffffffffffffffffffffff168473ffffffffffffffffffffffffffffffffffffffff1614806119c957508373ffffffffffffffffffffffffffffffffffffffff166119b1846107c3565b73ffffffffffffffffffffffffffffffffffffffff16145b806119da57506119d981856115cd565b5b91505092915050565b8273ffffffffffffffffffffffffffffffffffffffff16611a0382610efa565b73ffffffffffffffffffffffffffffffffffffffff1614611a59576040517f08c379a0000000000000000000000000000000000000000000000000000000008152600401611a50906137e8565b60405180910390fd5b600073ffffffffffffffffffffffffffffffffffffffff168273ffffffffffffffffffffffffffffffffffffffff161415611ac9576040517f08c379a0000000000000000000000000000000000000000000000000000000008152600401611ac090613668565b60405180910390fd5b611ad4838383612456565b611adf60008261184c565b6001600360008573ffffffffffffffffffffffffffffffffffffffff1673ffffffffffffffffffffffffffffffffffffffff1681526020019081526020016000206000828254611b2f9190613aa3565b925050819055506001600360008473ffffffffffffffffffffffffffffffffffffffff1673ffffffffffffffffffffffffffffffffffffffff1681526020019081526020016000206000828254611b8691906139c2565b92505081905550816002600083815260200190815260200160002060006101000a81548173ffffffffffffffffffffffffffffffffffffffff021916908373ffffffffffffffffffffffffffffffffffffffff160217905550808273ffffffffffffffffffffffffffffffffffffffff168473ffffffffffffffffffffffffffffffffffffffff167fddf252ad1be2c89b69c2b068fc378daa952ba7f163c4a11628f55a4df523b3ef60405160405180910390a4505050565b611c47610ee3565b611c86576040517f08c379a0000000000000000000000000000000000000000000000000000000008152600401611c7d906135c8565b60405180910390fd5b6000600a60006101000a81548160ff0219169083151502179055507f5db9ee0a495bf2e6ff9c91a7834c1ba4fdd244a5e8aa4e537bd38aeae4b073aa611cca611844565b604051611cd791906134db565b60405180910390a1565b600081600001549050919050565b600073ffffffffffffffffffffffffffffffffffffffff168273ffffffffffffffffffffffffffffffffffffffff161415611d5f576040517f08c379a0000000000000000000000000000000000000000000000000000000008152600401611d5690613768565b60405180910390fd5b611d68816117d8565b15611da8576040517f08c379a0000000000000000000000000000000000000000000000000000000008152600401611d9f90613648565b60405180910390fd5b611db460008383612456565b6001600360008473ffffffffffffffffffffffffffffffffffffffff1673ffffffffffffffffffffffffffffffffffffffff1681526020019081526020016000206000828254611e0491906139c2565b92505081905550816002600083815260200190815260200160002060006101000a81548173ffffffffffffffffffffffffffffffffffffffff021916908373ffffffffffffffffffffffffffffffffffffffff160217905550808273ffffffffffffffffffffffffffffffffffffffff16600073ffffffffffffffffffffffffffffffffffffffff167fddf252ad1be2c89b69c2b068fc378daa952ba7f163c4a11628f55a4df523b3ef60405160405180910390a45050565b6001816000016000828254019250508190555050565b6000611ede82610efa565b9050611eec81600084612456565b611ef760008361184c565b6001600360008373ffffffffffffffffffffffffffffffffffffffff1673ffffffffffffffffffffffffffffffffffffffff1681526020019081526020016000206000828254611f479190613aa3565b925050819055506002600083815260200190815260200160002060006101000a81549073ffffffffffffffffffffffffffffffffffffffff021916905581600073ffffffffffffffffffffffffffffffffffffffff168273ffffffffffffffffffffffffffffffffffffffff167fddf252ad1be2c89b69c2b068fc378daa952ba7f163c4a11628f55a4df523b3ef60405160405180910390a45050565b6000600a60019054906101000a900473ffffffffffffffffffffffffffffffffffffffff16905081600a60016101000a81548173ffffffffffffffffffffffffffffffffffffffff021916908373ffffffffffffffffffffffffffffffffffffffff1602179055508173ffffffffffffffffffffffffffffffffffffffff168173ffffffffffffffffffffffffffffffffffffffff167f8be0079c531659141344cd1fd0a4f28419497f9722a3daafe3b4186f6b6457e060405160405180910390a35050565b6120c4828260405180602001604052806000815250612466565b5050565b6120d0610ee3565b15612110576040517f08c379a0000000000000000000000000000000000000000000000000000000008152600401612107906136e8565b60405180910390fd5b6001600a60006101000a81548160ff0219169083151502179055507f62e78cea01bee320cd4e420270b5ea74000d11b0c9f74754ebdbfc544b05a258612154611844565b60405161216191906134db565b60405180910390a1565b6121768484846119e3565b612182848484846124c1565b6121c1576040517f08c379a00000000000000000000000000000000000000000000000000000000081526004016121b890613608565b60405180910390fd5b50505050565b6060600082141561220f576040518060400160405280600181526020017f3000000000000000000000000000000000000000000000000000000000000000815250905061236f565b600082905060005b6000821461224157808061222a90613bf0565b915050600a8261223a9190613a18565b9150612217565b60008167ffffffffffffffff811115612283577f4e487b7100000000000000000000000000000000000000000000000000000000600052604160045260246000fd5b6040519080825280601f01601f1916602001820160405280156122b55781602001600182028036833780820191505090505b5090505b60008514612368576001826122ce9190613aa3565b9150600a856122dd9190613c39565b60306122e991906139c2565b60f81b818381518110612325577f4e487b7100000000000000000000000000000000000000000000000000000000600052603260045260246000fd5b60200101907effffffffffffffffffffffffffffffffffffffffffffffffffffffffffffff1916908160001a905350600a856123619190613a18565b94506122b9565b8093505050505b919050565b60007f80ac58cd000000000000000000000000000000000000000000000000000000007bffffffffffffffffffffffffffffffffffffffffffffffffffffffff1916827bffffffffffffffffffffffffffffffffffffffffffffffffffffffff1916148061243f57507f5b5e139f000000000000000000000000000000000000000000000000000000007bffffffffffffffffffffffffffffffffffffffffffffffffffffffff1916827bffffffffffffffffffffffffffffffffffffffffffffffffffffffff1916145b8061244f575061244e82612658565b5b9050919050565b6124618383836126c2565b505050565b6124708383611cef565b61247d60008484846124c1565b6124bc576040517f08c379a00000000000000000000000000000000000000000000000000000000081526004016124b390613608565b60405180910390fd5b505050565b60006124e28473ffffffffffffffffffffffffffffffffffffffff1661271a565b1561264b578373ffffffffffffffffffffffffffffffffffffffff1663150b7a0261250b611844565b8786866040518563ffffffff1660e01b815260040161252d94939291906134f6565b602060405180830381600087803b15801561254757600080fd5b505af192505050801561257857506040513d601f19601f820116820180604052508101906125759190612f6a565b60015b6125fb573d80600081146125a8576040519150601f19603f3d011682016040523d82523d6000602084013e6125ad565b606091505b506000815114156125f3576040517f08c379a00000000000000000000000000000000000000000000000000000000081526004016125ea90613608565b60405180910390fd5b805181602001fd5b63150b7a0260e01b7bffffffffffffffffffffffffffffffffffffffffffffffffffffffff1916817bffffffffffffffffffffffffffffffffffffffffffffffffffffffff191614915050612650565b600190505b949350505050565b60007f01ffc9a7000000000000000000000000000000000000000000000000000000007bffffffffffffffffffffffffffffffffffffffffffffffffffffffff1916827bffffffffffffffffffffffffffffffffffffffffffffffffffffffff1916149050919050565b6126cd83838361272d565b6126d5610ee3565b15612715576040517f08c379a000000000000000000000000000000000000000000000000000000000815260040161270c906135a8565b60405180910390fd5b505050565b600080823b905060008111915050919050565b612738838383612841565b600073ffffffffffffffffffffffffffffffffffffffff168373ffffffffffffffffffffffffffffffffffffffff16141561277b5761277681612846565b6127ba565b8173ffffffffffffffffffffffffffffffffffffffff168373ffffffffffffffffffffffffffffffffffffffff16146127b9576127b8838261288f565b5b5b600073ffffffffffffffffffffffffffffffffffffffff168273ffffffffffffffffffffffffffffffffffffffff1614156127fd576127f8816129fc565b61283c565b8273ffffffffffffffffffffffffffffffffffffffff168273ffffffffffffffffffffffffffffffffffffffff161461283b5761283a8282612b3f565b5b5b505050565b505050565b6008805490506009600083815260200190815260200160002081905550600881908060018154018082558091505060019003906000526020600020016000909190919091505550565b6000600161289c84610fac565b6128a69190613aa3565b905060006007600084815260200190815260200160002054905081811461298b576000600660008673ffffffffffffffffffffffffffffffffffffffff1673ffffffffffffffffffffffffffffffffffffffff168152602001908152602001600020600084815260200190815260200160002054905080600660008773ffffffffffffffffffffffffffffffffffffffff1673ffffffffffffffffffffffffffffffffffffffff168152602001908152602001600020600084815260200190815260200160002081905550816007600083815260200190815260200160002081905550505b6007600084815260200190815260200160002060009055600660008573ffffffffffffffffffffffffffffffffffffffff1673ffffffffffffffffffffffffffffffffffffffff16815260200190815260200160002060008381526020019081526020016000206000905550505050565b60006001600880549050612a109190613aa3565b9050600060096000848152602001908152602001600020549050600060088381548110612a66577f4e487b7100000000000000000000000000000000000000000000000000000000600052603260045260246000fd5b906000526020600020015490508060088381548110612aae577f4e487b7100000000000000000000000000000000000000000000000000000000600052603260045260246000fd5b906000526020600020018190555081600960008381526020019081526020016000208190555060096000858152602001908152602001600020600090556008805480612b23577f4e487b7100000000000000000000000000000000000000000000000000000000600052603160045260246000fd5b6001900381819060005260206000200160009055905550505050565b6000612b4a83610fac565b905081600660008573ffffffffffffffffffffffffffffffffffffffff1673ffffffffffffffffffffffffffffffffffffffff168152602001908152602001600020600083815260200190815260200160002081905550806007600084815260200190815260200160002081905550505050565b828054612bca90613b8d565b90600052602060002090601f016020900481019282612bec5760008555612c33565b82601f10612c0557805160ff1916838001178555612c33565b82800160010185558215612c33579182015b82811115612c32578251825591602001919060010190612c17565b5b509050612c409190612c44565b5090565b5b80821115612c5d576000816000905550600101612c45565b5090565b6000612c74612c6f84613908565b6138e3565b905082815260208101848484011115612c8c57600080fd5b612c97848285613b4b565b509392505050565b6000612cb2612cad84613939565b6138e3565b905082815260208101848484011115612cca57600080fd5b612cd5848285613b4b565b509392505050565b600081359050612cec81614398565b92915050565b600081359050612d01816143af565b92915050565b600081359050612d16816143c6565b92915050565b600081519050612d2b816143c6565b92915050565b600082601f830112612d4257600080fd5b8135612d52848260208601612c61565b91505092915050565b600082601f830112612d6c57600080fd5b8135612d7c848260208601612c9f565b91505092915050565b600081359050612d94816143dd565b92915050565b600060208284031215612dac57600080fd5b6000612dba84828501612cdd565b91505092915050565b60008060408385031215612dd657600080fd5b6000612de485828601612cdd565b9250506020612df585828601612cdd565b9150509250929050565b600080600060608486031215612e1457600080fd5b6000612e2286828701612cdd565b9350506020612e3386828701612cdd565b9250506040612e4486828701612d85565b9150509250925092565b60008060008060808587031215612e6457600080fd5b6000612e7287828801612cdd565b9450506020612e8387828801612cdd565b9350506040612e9487828801612d85565b925050606085013567ffffffffffffffff811115612eb157600080fd5b612ebd87828801612d31565b91505092959194509250565b60008060408385031215612edc57600080fd5b6000612eea85828601612cdd565b9250506020612efb85828601612cf2565b9150509250929050565b60008060408385031215612f1857600080fd5b6000612f2685828601612cdd565b9250506020612f3785828601612d85565b9150509250929050565b600060208284031215612f5357600080fd5b6000612f6184828501612d07565b91505092915050565b600060208284031215612f7c57600080fd5b6000612f8a84828501612d1c565b91505092915050565b600060208284031215612fa557600080fd5b600082013567ffffffffffffffff811115612fbf57600080fd5b612fcb84828501612d5b565b91505092915050565b600060208284031215612fe657600080fd5b6000612ff484828501612d85565b91505092915050565b61300681613ad7565b82525050565b61301581613ae9565b82525050565b60006130268261397f565b6130308185613995565b9350613040818560208601613b5a565b61304981613d26565b840191505092915050565b600061305f8261398a565b61306981856139a6565b9350613079818560208601613b5a565b61308281613d26565b840191505092915050565b60006130988261398a565b6130a281856139b7565b93506130b2818560208601613b5a565b80840191505092915050565b600081546130cb81613b8d565b6130d581866139b7565b945060018216600081146130f0576001811461310157613134565b60ff19831686528186019350613134565b61310a8561396a565b60005b8381101561312c5781548189015260018201915060208101905061310d565b838801955050505b50505092915050565b600061314a602b836139a6565b915061315582613d37565b604082019050919050565b600061316d6014836139a6565b915061317882613d86565b602082019050919050565b6000613190602b836139a6565b915061319b82613daf565b604082019050919050565b60006131b36032836139a6565b91506131be82613dfe565b604082019050919050565b60006131d66026836139a6565b91506131e182613e4d565b604082019050919050565b60006131f9601c836139a6565b915061320482613e9c565b602082019050919050565b600061321c6024836139a6565b915061322782613ec5565b604082019050919050565b600061323f6019836139a6565b915061324a82613f14565b602082019050919050565b6000613262601f836139a6565b915061326d82613f3d565b602082019050919050565b6000613285602c836139a6565b915061329082613f66565b604082019050919050565b60006132a86010836139a6565b91506132b382613fb5565b602082019050919050565b60006132cb6038836139a6565b91506132d682613fde565b604082019050919050565b60006132ee602a836139a6565b91506132f98261402d565b604082019050919050565b60006133116029836139a6565b915061331c8261407c565b604082019050919050565b60006133346020836139a6565b915061333f826140cb565b602082019050919050565b6000613357602c836139a6565b9150613362826140f4565b604082019050919050565b600061337a6020836139a6565b915061338582614143565b602082019050919050565b600061339d601b836139a6565b91506133a88261416c565b602082019050919050565b60006133c06029836139a6565b91506133cb82614195565b604082019050919050565b60006133e36021836139a6565b91506133ee826141e4565b604082019050919050565b6000613406601a836139a6565b915061341182614233565b602082019050919050565b60006134296031836139a6565b91506134348261425c565b604082019050919050565b600061344c602c836139a6565b9150613457826142ab565b604082019050919050565b600061346f6030836139a6565b915061347a826142fa565b604082019050919050565b60006134926030836139a6565b915061349d82614349565b604082019050919050565b6134b181613b41565b82525050565b60006134c382856130be565b91506134cf828461308d565b91508190509392505050565b60006020820190506134f06000830184612ffd565b92915050565b600060808201905061350b6000830187612ffd565b6135186020830186612ffd565b61352560408301856134a8565b8181036060830152613537818461301b565b905095945050505050565b60006040820190506135576000830185612ffd565b61356460208301846134a8565b9392505050565b6000602082019050613580600083018461300c565b92915050565b600060208201905081810360008301526135a08184613054565b905092915050565b600060208201905081810360008301526135c18161313d565b9050919050565b600060208201905081810360008301526135e181613160565b9050919050565b6000602082019050818103600083015261360181613183565b9050919050565b60006020820190508181036000830152613621816131a6565b9050919050565b60006020820190508181036000830152613641816131c9565b9050919050565b60006020820190508181036000830152613661816131ec565b9050919050565b600060208201905081810360008301526136818161320f565b9050919050565b600060208201905081810360008301526136a181613232565b9050919050565b600060208201905081810360008301526136c181613255565b9050919050565b600060208201905081810360008301526136e181613278565b9050919050565b600060208201905081810360008301526137018161329b565b9050919050565b60006020820190508181036000830152613721816132be565b9050919050565b60006020820190508181036000830152613741816132e1565b9050919050565b6000602082019050818103600083015261376181613304565b9050919050565b6000602082019050818103600083015261378181613327565b9050919050565b600060208201905081810360008301526137a18161334a565b9050919050565b600060208201905081810360008301526137c18161336d565b9050919050565b600060208201905081810360008301526137e181613390565b9050919050565b60006020820190508181036000830152613801816133b3565b9050919050565b60006020820190508181036000830152613821816133d6565b9050919050565b60006020820190508181036000830152613841816133f9565b9050919050565b600060208201905081810360008301526138618161341c565b9050919050565b600060208201905081810360008301526138818161343f565b9050919050565b600060208201905081810360008301526138a181613462565b9050919050565b600060208201905081810360008301526138c181613485565b9050919050565b60006020820190506138dd60008301846134a8565b92915050565b60006138ed6138fe565b90506138f98282613bbf565b919050565b6000604051905090565b600067ffffffffffffffff82111561392357613922613cf7565b5b61392c82613d26565b9050602081019050919050565b600067ffffffffffffffff82111561395457613953613cf7565b5b61395d82613d26565b9050602081019050919050565b60008190508160005260206000209050919050565b600081519050919050565b600081519050919050565b600082825260208201905092915050565b600082825260208201905092915050565b600081905092915050565b60006139cd82613b41565b91506139d883613b41565b9250827fffffffffffffffffffffffffffffffffffffffffffffffffffffffffffffffff03821115613a0d57613a0c613c6a565b5b828201905092915050565b6000613a2382613b41565b9150613a2e83613b41565b925082613a3e57613a3d613c99565b5b828204905092915050565b6000613a5482613b41565b9150613a5f83613b41565b9250817fffffffffffffffffffffffffffffffffffffffffffffffffffffffffffffffff0483118215151615613a9857613a97613c6a565b5b828202905092915050565b6000613aae82613b41565b9150613ab983613b41565b925082821015613acc57613acb613c6a565b5b828203905092915050565b6000613ae282613b21565b9050919050565b60008115159050919050565b60007fffffffff0000000000000000000000000000000000000000000000000000000082169050919050565b600073ffffffffffffffffffffffffffffffffffffffff82169050919050565b6000819050919050565b82818337600083830152505050565b60005b83811015613b78578082015181840152602081019050613b5d565b83811115613b87576000848401525b50505050565b60006002820490506001821680613ba557607f821691505b60208210811415613bb957613bb8613cc8565b5b50919050565b613bc882613d26565b810181811067ffffffffffffffff82111715613be757613be6613cf7565b5b80604052505050565b6000613bfb82613b41565b91507fffffffffffffffffffffffffffffffffffffffffffffffffffffffffffffffff821415613c2e57613c2d613c6a565b5b600182019050919050565b6000613c4482613b41565b9150613c4f83613b41565b925082613c5f57613c5e613c99565b5b828206905092915050565b7f4e487b7100000000000000000000000000000000000000000000000000000000600052601160045260246000fd5b7f4e487b7100000000000000000000000000000000000000000000000000000000600052601260045260246000fd5b7f4e487b7100000000000000000000000000000000000000000000000000000000600052602260045260246000fd5b7f4e487b7100000000000000000000000000000000000000000000000000000000600052604160045260246000fd5b6000601f19601f8301169050919050565b7f4552433732315061757361626c653a20746f6b656e207472616e73666572207760008201527f68696c6520706175736564000000000000000000000000000000000000000000602082015250565b7f5061757361626c653a206e6f7420706175736564000000000000000000000000600082015250565b7f455243373231456e756d657261626c653a206f776e657220696e646578206f7560008201527f74206f6620626f756e6473000000000000000000000000000000000000000000602082015250565b7f4552433732313a207472616e7366657220746f206e6f6e20455243373231526560008201527f63656976657220696d706c656d656e7465720000000000000000000000000000602082015250565b7f4f776e61626c653a206e6577206f776e657220697320746865207a65726f206160008201527f6464726573730000000000000000000000000000000000000000000000000000602082015250565b7f4552433732313a20746f6b656e20616c7265616479206d696e74656400000000600082015250565b7f4552433732313a207472616e7366657220746f20746865207a65726f2061646460008201527f7265737300000000000000000000000000000000000000000000000000000000602082015250565b7f4552433732313a20617070726f766520746f2063616c6c657200000000000000600082015250565b7f45746865722076616c75652073656e74206973206e6f7420636f727265637400600082015250565b7f4552433732313a206f70657261746f7220717565727920666f72206e6f6e657860008201527f697374656e7420746f6b656e0000000000000000000000000000000000000000602082015250565b7f5061757361626c653a2070617573656400000000000000000000000000000000600082015250565b7f4552433732313a20617070726f76652063616c6c6572206973206e6f74206f7760008201527f6e6572206e6f7220617070726f76656420666f7220616c6c0000000000000000602082015250565b7f4552433732313a2062616c616e636520717565727920666f7220746865207a6560008201527f726f206164647265737300000000000000000000000000000000000000000000602082015250565b7f4552433732313a206f776e657220717565727920666f72206e6f6e657869737460008201527f656e7420746f6b656e0000000000000000000000000000000000000000000000602082015250565b7f4552433732313a206d696e7420746f20746865207a65726f2061646472657373600082015250565b7f4552433732313a20617070726f76656420717565727920666f72206e6f6e657860008201527f697374656e7420746f6b656e0000000000000000000000000000000000000000602082015250565b7f4f776e61626c653a2063616c6c6572206973206e6f7420746865206f776e6572600082015250565b7f50757263686173652065786365656473206d617820737570706c790000000000600082015250565b7f4552433732313a207472616e73666572206f6620746f6b656e2074686174206960008201527f73206e6f74206f776e0000000000000000000000000000000000000000000000602082015250565b7f4552433732313a20617070726f76616c20746f2063757272656e74206f776e6560008201527f7200000000000000000000000000000000000000000000000000000000000000602082015250565b7f4f726465722065786365656473206d6178207175616e74697479000000000000600082015250565b7f4552433732313a207472616e736665722063616c6c6572206973206e6f74206f60008201527f776e6572206e6f7220617070726f766564000000000000000000000000000000602082015250565b7f455243373231456e756d657261626c653a20676c6f62616c20696e646578206f60008201527f7574206f6620626f756e64730000000000000000000000000000000000000000602082015250565b7f4552433732314275726e61626c653a2063616c6c6572206973206e6f74206f7760008201527f6e6572206e6f7220617070726f76656400000000000000000000000000000000602082015250565b7f4552433732314d657461646174613a2055524920717565727920666f72206e6f60008201527f6e6578697374656e7420746f6b656e2e00000000000000000000000000000000602082015250565b6143a181613ad7565b81146143ac57600080fd5b50565b6143b881613ae9565b81146143c357600080fd5b50565b6143cf81613af5565b81146143da57600080fd5b50565b6143e681613b41565b81146143f157600080fd5b5056fea2646970667358221220ae88b331ac7d6f9a216b314b7c5ed194a7406251352d929e1e2e3d1b24ab375164736f6c63430008040033",
  "linkReferences": {},
  "deployedLinkReferences": {}
}