{
  "_format": "hh-sol-artifact-1",
  "contractName": "MetaTravelers",
  "sourceName": "contracts/MetaTravelers.sol",
  "abi": [
    {
      "inputs": [
        {
          "internalType": "string",
          "name": "name",
          "type": "string"
        },
        {
          "internalType": "string",
          "name": "symbol",
          "type": "string"
        },
        {
          "internalType": "string",
          "name": "baseTokenURI",
          "type": "string"
        },
        {
          "internalType": "address",
          "name": "vrfCoordinator",
          "type": "address"
        },
        {
          "internalType": "address",
          "name": "linkToken",
          "type": "address"
        },
        {
          "internalType": "bytes32",
          "name": "keyHash",
          "type": "bytes32"
        },
        {
          "internalType": "uint256",
          "name": "fee",
          "type": "uint256"
        }
      ],
      "stateMutability": "nonpayable",
      "type": "constructor"
    },
    {
      "anonymous": false,
      "inputs": [
        {
          "indexed": true,
          "internalType": "address",
          "name": "owner",
          "type": "address"
        },
        {
          "indexed": true,
          "internalType": "address",
          "name": "approved",
          "type": "address"
        },
        {
          "indexed": true,
          "internalType": "uint256",
          "name": "tokenId",
          "type": "uint256"
        }
      ],
      "name": "Approval",
      "type": "event"
    },
    {
      "anonymous": false,
      "inputs": [
        {
          "indexed": true,
          "internalType": "address",
          "name": "owner",
          "type": "address"
        },
        {
          "indexed": true,
          "internalType": "address",
          "name": "operator",
          "type": "address"
        },
        {
          "indexed": false,
          "internalType": "bool",
          "name": "approved",
          "type": "bool"
        }
      ],
      "name": "ApprovalForAll",
      "type": "event"
    },
    {
      "anonymous": false,
      "inputs": [
        {
          "indexed": false,
          "internalType": "address",
          "name": "owner",
          "type": "address"
        },
        {
          "indexed": false,
          "internalType": "uint256",
          "name": "quantity",
          "type": "uint256"
        }
      ],
      "name": "AssetsMinted",
      "type": "event"
    },
    {
      "anonymous": false,
      "inputs": [
        {
          "indexed": true,
          "internalType": "address",
          "name": "previousOwner",
          "type": "address"
        },
        {
          "indexed": true,
          "internalType": "address",
          "name": "newOwner",
          "type": "address"
        }
      ],
      "name": "OwnershipTransferred",
      "type": "event"
    },
    {
      "anonymous": false,
      "inputs": [
        {
          "indexed": false,
          "internalType": "address",
          "name": "account",
          "type": "address"
        }
      ],
      "name": "Paused",
      "type": "event"
    },
    {
      "anonymous": false,
      "inputs": [
        {
          "indexed": false,
          "internalType": "bytes32",
          "name": "requestId",
          "type": "bytes32"
        }
      ],
      "name": "RequestedRandomness",
      "type": "event"
    },
    {
      "anonymous": false,
      "inputs": [
        {
          "indexed": false,
          "internalType": "bytes32",
          "name": "requestId",
          "type": "bytes32"
        },
        {
          "indexed": false,
          "internalType": "uint256",
          "name": "randomNumber",
          "type": "uint256"
        }
      ],
      "name": "StartingIndexSet",
      "type": "event"
    },
    {
      "anonymous": false,
      "inputs": [
        {
          "indexed": true,
          "internalType": "address",
          "name": "from",
          "type": "address"
        },
        {
          "indexed": true,
          "internalType": "address",
          "name": "to",
          "type": "address"
        },
        {
          "indexed": true,
          "internalType": "uint256",
          "name": "tokenId",
          "type": "uint256"
        }
      ],
      "name": "Transfer",
      "type": "event"
    },
    {
      "anonymous": false,
      "inputs": [
        {
          "indexed": false,
          "internalType": "address",
          "name": "account",
          "type": "address"
        }
      ],
      "name": "Unpaused",
      "type": "event"
    },
    {
      "inputs": [],
      "name": "MAX_EARLY_ADOPTER",
      "outputs": [
        {
          "internalType": "uint256",
          "name": "",
          "type": "uint256"
        }
      ],
      "stateMutability": "view",
      "type": "function"
    },
    {
      "inputs": [],
      "name": "MAX_EA_QUANTITY",
      "outputs": [
        {
          "internalType": "uint256",
          "name": "",
          "type": "uint256"
        }
      ],
      "stateMutability": "view",
      "type": "function"
    },
    {
      "inputs": [],
      "name": "MAX_MINTPASS",
      "outputs": [
        {
          "internalType": "uint256",
          "name": "",
          "type": "uint256"
        }
      ],
      "stateMutability": "view",
      "type": "function"
    },
    {
      "inputs": [],
      "name": "MAX_PRESALE",
      "outputs": [
        {
          "internalType": "uint256",
          "name": "",
          "type": "uint256"
        }
      ],
      "stateMutability": "view",
      "type": "function"
    },
    {
      "inputs": [],
      "name": "MAX_QUANTITY",
      "outputs": [
        {
          "internalType": "uint256",
          "name": "",
          "type": "uint256"
        }
      ],
      "stateMutability": "view",
      "type": "function"
    },
    {
      "inputs": [],
      "name": "MAX_RESERVE",
      "outputs": [
        {
          "internalType": "uint256",
          "name": "",
          "type": "uint256"
        }
      ],
      "stateMutability": "view",
      "type": "function"
    },
    {
      "inputs": [],
      "name": "MAX_SUPPLY",
      "outputs": [
        {
          "internalType": "uint256",
          "name": "",
          "type": "uint256"
        }
      ],
      "stateMutability": "view",
      "type": "function"
    },
    {
      "inputs": [],
      "name": "PRICE",
      "outputs": [
        {
          "internalType": "uint256",
          "name": "",
          "type": "uint256"
        }
      ],
      "stateMutability": "view",
      "type": "function"
    },
    {
      "inputs": [
        {
          "internalType": "address[]",
          "name": "addresses",
          "type": "address[]"
        }
      ],
      "name": "addToEarlyAdopterList",
      "outputs": [],
      "stateMutability": "nonpayable",
      "type": "function"
    },
    {
      "inputs": [
        {
          "internalType": "address[]",
          "name": "addresses",
          "type": "address[]"
        },
        {
          "internalType": "uint256[]",
          "name": "quantities",
          "type": "uint256[]"
        }
      ],
      "name": "addToMintPassList",
      "outputs": [],
      "stateMutability": "nonpayable",
      "type": "function"
    },
    {
      "inputs": [
        {
          "internalType": "address[]",
          "name": "addresses",
          "type": "address[]"
        }
      ],
      "name": "addToPreSaleList",
      "outputs": [],
      "stateMutability": "nonpayable",
      "type": "function"
    },
    {
      "inputs": [
        {
          "internalType": "address",
          "name": "to",
          "type": "address"
        },
        {
          "internalType": "uint256",
          "name": "tokenId",
          "type": "uint256"
        }
      ],
      "name": "approve",
      "outputs": [],
      "stateMutability": "nonpayable",
      "type": "function"
    },
    {
      "inputs": [
        {
          "internalType": "address",
          "name": "owner",
          "type": "address"
        }
      ],
      "name": "balanceOf",
      "outputs": [
        {
          "internalType": "uint256",
          "name": "",
          "type": "uint256"
        }
      ],
      "stateMutability": "view",
      "type": "function"
    },
    {
      "inputs": [
        {
          "internalType": "uint256",
          "name": "tokenId",
          "type": "uint256"
        }
      ],
      "name": "burn",
      "outputs": [],
      "stateMutability": "nonpayable",
      "type": "function"
    },
    {
      "inputs": [
        {
          "internalType": "address",
          "name": "to",
          "type": "address"
        },
        {
          "internalType": "uint256",
          "name": "quantity",
          "type": "uint256"
        }
      ],
      "name": "earlyAdopterMint",
      "outputs": [],
      "stateMutability": "payable",
      "type": "function"
    },
    {
      "inputs": [
        {
          "internalType": "uint256",
          "name": "tokenId",
          "type": "uint256"
        }
      ],
      "name": "getApproved",
      "outputs": [
        {
          "internalType": "address",
          "name": "",
          "type": "address"
        }
      ],
      "stateMutability": "view",
      "type": "function"
    },
    {
      "inputs": [
        {
          "internalType": "address",
          "name": "owner",
          "type": "address"
        },
        {
          "internalType": "address",
          "name": "operator",
          "type": "address"
        }
      ],
      "name": "isApprovedForAll",
      "outputs": [
        {
          "internalType": "bool",
          "name": "",
          "type": "bool"
        }
      ],
      "stateMutability": "view",
      "type": "function"
    },
    {
      "inputs": [],
      "name": "isEarlyAdopterSale",
      "outputs": [
        {
          "internalType": "bool",
          "name": "",
          "type": "bool"
        }
      ],
      "stateMutability": "view",
      "type": "function"
    },
    {
      "inputs": [],
      "name": "isMintPassSale",
      "outputs": [
        {
          "internalType": "bool",
          "name": "",
          "type": "bool"
        }
      ],
      "stateMutability": "view",
      "type": "function"
    },
    {
      "inputs": [],
      "name": "isPreSale",
      "outputs": [
        {
          "internalType": "bool",
          "name": "",
          "type": "bool"
        }
      ],
      "stateMutability": "view",
      "type": "function"
    },
    {
      "inputs": [],
      "name": "isPublicSale",
      "outputs": [
        {
          "internalType": "bool",
          "name": "",
          "type": "bool"
        }
      ],
      "stateMutability": "view",
      "type": "function"
    },
    {
      "inputs": [
        {
          "internalType": "address",
          "name": "to",
          "type": "address"
        },
        {
          "internalType": "uint256",
          "name": "quantity",
          "type": "uint256"
        }
      ],
      "name": "mintPassMint",
      "outputs": [],
      "stateMutability": "payable",
      "type": "function"
    },
    {
      "inputs": [],
      "name": "name",
      "outputs": [
        {
          "internalType": "string",
          "name": "",
          "type": "string"
        }
      ],
      "stateMutability": "view",
      "type": "function"
    },
    {
      "inputs": [],
      "name": "owner",
      "outputs": [
        {
          "internalType": "address",
          "name": "",
          "type": "address"
        }
      ],
      "stateMutability": "view",
      "type": "function"
    },
    {
      "inputs": [
        {
          "internalType": "uint256",
          "name": "tokenId",
          "type": "uint256"
        }
      ],
      "name": "ownerOf",
      "outputs": [
        {
          "internalType": "address",
          "name": "",
          "type": "address"
        }
      ],
      "stateMutability": "view",
      "type": "function"
    },
    {
      "inputs": [],
      "name": "pause",
      "outputs": [],
      "stateMutability": "nonpayable",
      "type": "function"
    },
    {
      "inputs": [],
      "name": "paused",
      "outputs": [
        {
          "internalType": "bool",
          "name": "",
          "type": "bool"
        }
      ],
      "stateMutability": "view",
      "type": "function"
    },
    {
      "inputs": [
        {
          "internalType": "address",
          "name": "to",
          "type": "address"
        },
        {
          "internalType": "uint256",
          "name": "quantity",
          "type": "uint256"
        }
      ],
      "name": "preSaleMint",
      "outputs": [],
      "stateMutability": "payable",
      "type": "function"
    },
    {
      "inputs": [],
      "name": "provenanceHash",
      "outputs": [
        {
          "internalType": "string",
          "name": "",
          "type": "string"
        }
      ],
      "stateMutability": "view",
      "type": "function"
    },
    {
      "inputs": [
        {
          "internalType": "address",
          "name": "to",
          "type": "address"
        },
        {
          "internalType": "uint256",
          "name": "quantity",
          "type": "uint256"
        }
      ],
      "name": "publicSaleMint",
      "outputs": [],
      "stateMutability": "payable",
      "type": "function"
    },
    {
      "inputs": [
        {
          "internalType": "bytes32",
          "name": "requestId",
          "type": "bytes32"
        },
        {
          "internalType": "uint256",
          "name": "randomness",
          "type": "uint256"
        }
      ],
      "name": "rawFulfillRandomness",
      "outputs": [],
      "stateMutability": "nonpayable",
      "type": "function"
    },
    {
      "inputs": [],
      "name": "renounceOwnership",
      "outputs": [],
      "stateMutability": "nonpayable",
      "type": "function"
    },
    {
      "inputs": [],
      "name": "reserveMetaTravelers",
      "outputs": [],
      "stateMutability": "nonpayable",
      "type": "function"
    },
    {
      "inputs": [
        {
          "internalType": "address",
          "name": "from",
          "type": "address"
        },
        {
          "internalType": "address",
          "name": "to",
          "type": "address"
        },
        {
          "internalType": "uint256",
          "name": "tokenId",
          "type": "uint256"
        }
      ],
      "name": "safeTransferFrom",
      "outputs": [],
      "stateMutability": "nonpayable",
      "type": "function"
    },
    {
      "inputs": [
        {
          "internalType": "address",
          "name": "from",
          "type": "address"
        },
        {
          "internalType": "address",
          "name": "to",
          "type": "address"
        },
        {
          "internalType": "uint256",
          "name": "tokenId",
          "type": "uint256"
        },
        {
          "internalType": "bytes",
          "name": "_data",
          "type": "bytes"
        }
      ],
      "name": "safeTransferFrom",
      "outputs": [],
      "stateMutability": "nonpayable",
      "type": "function"
    },
    {
      "inputs": [
        {
          "internalType": "address",
          "name": "operator",
          "type": "address"
        },
        {
          "internalType": "bool",
          "name": "approved",
          "type": "bool"
        }
      ],
      "name": "setApprovalForAll",
      "outputs": [],
      "stateMutability": "nonpayable",
      "type": "function"
    },
    {
      "inputs": [
        {
          "internalType": "string",
          "name": "baseTokenURI",
          "type": "string"
        }
      ],
      "name": "setBaseTokenURI",
      "outputs": [],
      "stateMutability": "nonpayable",
      "type": "function"
    },
    {
      "inputs": [
        {
          "internalType": "string",
          "name": "newProvenanceHash",
          "type": "string"
        }
      ],
      "name": "setProvenanceHash",
      "outputs": [],
      "stateMutability": "nonpayable",
      "type": "function"
    },
    {
      "inputs": [],
      "name": "setStartingIndex",
      "outputs": [
        {
          "internalType": "bytes32",
          "name": "",
          "type": "bytes32"
        }
      ],
      "stateMutability": "nonpayable",
      "type": "function"
    },
    {
      "inputs": [],
      "name": "startingIndex",
      "outputs": [
        {
          "internalType": "uint256",
          "name": "",
          "type": "uint256"
        }
      ],
      "stateMutability": "view",
      "type": "function"
    },
    {
      "inputs": [
        {
          "internalType": "bytes4",
          "name": "interfaceId",
          "type": "bytes4"
        }
      ],
      "name": "supportsInterface",
      "outputs": [
        {
          "internalType": "bool",
          "name": "",
          "type": "bool"
        }
      ],
      "stateMutability": "view",
      "type": "function"
    },
    {
      "inputs": [],
      "name": "symbol",
      "outputs": [
        {
          "internalType": "string",
          "name": "",
          "type": "string"
        }
      ],
      "stateMutability": "view",
      "type": "function"
    },
    {
      "inputs": [],
      "name": "toggleEarlyAdopter",
      "outputs": [],
      "stateMutability": "nonpayable",
      "type": "function"
    },
    {
      "inputs": [],
      "name": "toggleMintPassSale",
      "outputs": [],
      "stateMutability": "nonpayable",
      "type": "function"
    },
    {
      "inputs": [],
      "name": "togglePreSale",
      "outputs": [],
      "stateMutability": "nonpayable",
      "type": "function"
    },
    {
      "inputs": [
        {
          "internalType": "uint256",
          "name": "index",
          "type": "uint256"
        }
      ],
      "name": "tokenByIndex",
      "outputs": [
        {
          "internalType": "uint256",
          "name": "",
          "type": "uint256"
        }
      ],
      "stateMutability": "view",
      "type": "function"
    },
    {
      "inputs": [
        {
          "internalType": "address",
          "name": "owner",
          "type": "address"
        },
        {
          "internalType": "uint256",
          "name": "index",
          "type": "uint256"
        }
      ],
      "name": "tokenOfOwnerByIndex",
      "outputs": [
        {
          "internalType": "uint256",
          "name": "",
          "type": "uint256"
        }
      ],
      "stateMutability": "view",
      "type": "function"
    },
    {
      "inputs": [
        {
          "internalType": "uint256",
          "name": "tokenId",
          "type": "uint256"
        }
      ],
      "name": "tokenURI",
      "outputs": [
        {
          "internalType": "string",
          "name": "",
          "type": "string"
        }
      ],
      "stateMutability": "view",
      "type": "function"
    },
    {
      "inputs": [],
      "name": "totalSupply",
      "outputs": [
        {
          "internalType": "uint256",
          "name": "",
          "type": "uint256"
        }
      ],
      "stateMutability": "view",
      "type": "function"
    },
    {
      "inputs": [
        {
          "internalType": "address",
          "name": "from",
          "type": "address"
        },
        {
          "internalType": "address",
          "name": "to",
          "type": "address"
        },
        {
          "internalType": "uint256",
          "name": "tokenId",
          "type": "uint256"
        }
      ],
      "name": "transferFrom",
      "outputs": [],
      "stateMutability": "nonpayable",
      "type": "function"
    },
    {
      "inputs": [
        {
          "internalType": "address",
          "name": "newOwner",
          "type": "address"
        }
      ],
      "name": "transferOwnership",
      "outputs": [],
      "stateMutability": "nonpayable",
      "type": "function"
    },
    {
      "inputs": [],
      "name": "unpause",
      "outputs": [],
      "stateMutability": "nonpayable",
      "type": "function"
    },
    {
      "inputs": [],
      "name": "withdraw",
      "outputs": [],
      "stateMutability": "nonpayable",
      "type": "function"
    }
  ],
  "bytecode": "0x60c06040526014805463ffffffff191690553480156200001e57600080fd5b5060405162003d0838038062003d0883398101604081905262000041916200034c565b8383888881600090805190602001906200005d929190620001d2565b50805162000073906001906020840190620001d2565b5050600a805460ff19169055506001600160601b0319606092831b811660a052911b16608052620000ab620000a53390565b620000e2565b8451620000c090600e906020880190620001d2565b5060178290556018819055620000d562000134565b5050505050505062000469565b600c80546001600160a01b038381166001600160a01b0319831681179093556040519116919082907f8be0079c531659141344cd1fd0a4f28419497f9722a3daafe3b4186f6b6457e090600090a35050565b600a5460ff16156200017f5760405162461bcd60e51b815260206004820152601060248201526f14185d5cd8589b194e881c185d5cd95960821b604482015260640160405180910390fd5b600a805460ff191660011790557f62e78cea01bee320cd4e420270b5ea74000d11b0c9f74754ebdbfc544b05a258620001b53390565b6040516001600160a01b03909116815260200160405180910390a1565b828054620001e09062000416565b90600052602060002090601f0160209004810192826200020457600085556200024f565b82601f106200021f57805160ff19168380011785556200024f565b828001600101855582156200024f579182015b828111156200024f57825182559160200191906001019062000232565b506200025d92915062000261565b5090565b5b808211156200025d576000815560010162000262565b80516001600160a01b03811681146200029057600080fd5b919050565b600082601f830112620002a757600080fd5b81516001600160401b0380821115620002c457620002c462000453565b604051601f8301601f19908116603f01168101908282118183101715620002ef57620002ef62000453565b816040528381526020925086838588010111156200030c57600080fd5b600091505b8382101562000330578582018301518183018401529082019062000311565b83821115620003425760008385830101525b9695505050505050565b600080600080600080600060e0888a0312156200036857600080fd5b87516001600160401b03808211156200038057600080fd5b6200038e8b838c0162000295565b985060208a0151915080821115620003a557600080fd5b620003b38b838c0162000295565b975060408a0151915080821115620003ca57600080fd5b50620003d98a828b0162000295565b955050620003ea6060890162000278565b9350620003fa6080890162000278565b925060a0880151915060c0880151905092959891949750929550565b600181811c908216806200042b57607f821691505b602082108114156200044d57634e487b7160e01b600052602260045260246000fd5b50919050565b634e487b7160e01b600052604160045260246000fd5b60805160601c60a05160601c613865620004a36000396000818161147501526127b9015260008181611dbe015261278a01526138656000f3fe60806040526004361061025a5760003560e01c806301ffc9a71461025f578063053012701461029457806306fdde03146102ae578063081812fc146102d0578063095ea7b3146102fd578063109695231461031f57806318160ddd1461033f57806323b872dd1461035e5780632f745c591461037e57806330176e131461039e57806332cb6b0c146103be5780633ccfd60b146103d45780633f4ba83a146103e957806342842e0e146103fe57806342966c681461041e57806346ff3f781461043e57806348b34fe1146104515780634ced4734146104665780634d4c4e99146104855780634ebbae731461049b5780634f6ccce7146104bb57806354bac24f146104db5780635c975abb146104ee5780636352211e1461050657806369dca441146104855780636a0b8d2d146105265780636ca49de31461054657806370a082311461055b578063715018a61461057b5780637f6dcbf8146105905780638456cb59146105a55780638d859f3e146105ba5780638da5cb5b146105d657806394985ddd146105eb57806395d89b411461060b578063a22cb46514610620578063a477636914610640578063a5a865dc14610653578063ac5ae11b14610674578063b88d4fde14610687578063c6ab67a3146106a7578063c87b56dd146106bc578063ca3cb522146106dc578063cb774d47146106f1578063d57e007f14610707578063d6cd390414610727578063de7535dd1461073c578063e41ee46a14610752578063e985e9c514610767578063e986655014610787578063eff31e9e1461079c578063f2fde38b146107b1578063ff9ddf98146107d1575b600080fd5b34801561026b57600080fd5b5061027f61027a36600461326b565b6107f1565b60405190151581526020015b60405180910390f35b3480156102a057600080fd5b5060145461027f9060ff1681565b3480156102ba57600080fd5b506102c3610802565b60405161028b919061349f565b3480156102dc57600080fd5b506102f06102eb3660046132ed565b610894565b60405161028b919061340e565b34801561030957600080fd5b5061031d610318366004613156565b610921565b005b34801561032b57600080fd5b5061031d61033a3660046132a5565b610a32565b34801561034b57600080fd5b506008545b60405190815260200161028b565b34801561036a57600080fd5b5061031d610379366004613068565b610a78565b34801561038a57600080fd5b50610350610399366004613156565b610aaa565b3480156103aa57600080fd5b5061031d6103b93660046132a5565b610b40565b3480156103ca57600080fd5b50610350611e6181565b3480156103e057600080fd5b5061031d610b82565b3480156103f557600080fd5b5061031d610be0565b34801561040a57600080fd5b5061031d610419366004613068565b610c19565b34801561042a57600080fd5b5061031d6104393660046132ed565b610c34565b61031d61044c366004613156565b610cae565b34801561045d57600080fd5b50610350600581565b34801561047257600080fd5b5060145461027f90610100900460ff1681565b34801561049157600080fd5b5061035061068181565b3480156104a757600080fd5b5060145461027f9062010000900460ff1681565b3480156104c757600080fd5b506103506104d63660046132ed565b610eaf565b61031d6104e9366004613156565b610f42565b3480156104fa57600080fd5b50600a5460ff1661027f565b34801561051257600080fd5b506102f06105213660046132ed565b61110b565b34801561053257600080fd5b5061031d6105413660046131c1565b611182565b34801561055257600080fd5b5061031d61128f565b34801561056757600080fd5b5061035061057636600461301a565b6112d2565b34801561058757600080fd5b5061031d611359565b34801561059c57600080fd5b5061031d611392565b3480156105b157600080fd5b5061031d611424565b3480156105c657600080fd5b506103506701b4fbd92b5f800081565b3480156105e257600080fd5b506102f061145b565b3480156105f757600080fd5b5061031d610606366004613249565b61146a565b34801561061757600080fd5b506102c36114ec565b34801561062c57600080fd5b5061031d61063b36600461311f565b6114fb565b61031d61064e366004613156565b6115bc565b34801561065f57600080fd5b5060145461027f906301000000900460ff1681565b61031d610682366004613156565b6117bd565b34801561069357600080fd5b5061031d6106a23660046130a4565b6118c5565b3480156106b357600080fd5b506102c36118fd565b3480156106c857600080fd5b506102c36106d73660046132ed565b61198b565b3480156106e857600080fd5b5061031d611a57565b3480156106fd57600080fd5b5061035060165481565b34801561071357600080fd5b5061031d610722366004613180565b611aa3565b34801561073357600080fd5b5061031d611bf9565b34801561074857600080fd5b5061035061091b81565b34801561075e57600080fd5b50610350600381565b34801561077357600080fd5b5061027f610782366004613035565b611c47565b34801561079357600080fd5b50610350611c75565b3480156107a857600080fd5b50610350602181565b3480156107bd57600080fd5b5061031d6107cc36600461301a565b611ed4565b3480156107dd57600080fd5b5061031d6107ec366004613180565b611f71565b60006107fc826120c7565b92915050565b606060008054610811906136f3565b80601f016020809104026020016040519081016040528092919081815260200182805461083d906136f3565b801561088a5780601f1061085f5761010080835404028352916020019161088a565b820191906000526020600020905b81548152906001019060200180831161086d57829003601f168201915b5050505050905090565b600061089f826120ec565b6109055760405162461bcd60e51b815260206004820152602c60248201527f4552433732313a20617070726f76656420717565727920666f72206e6f6e657860448201526b34b9ba32b73a103a37b5b2b760a11b60648201526084015b60405180910390fd5b506000908152600460205260409020546001600160a01b031690565b600061092c8261110b565b9050806001600160a01b0316836001600160a01b0316141561099a5760405162461bcd60e51b815260206004820152602160248201527f4552433732313a20617070726f76616c20746f2063757272656e74206f776e656044820152603960f91b60648201526084016108fc565b336001600160a01b03821614806109b657506109b68133611c47565b610a235760405162461bcd60e51b815260206004820152603860248201527f4552433732313a20617070726f76652063616c6c6572206973206e6f74206f776044820152771b995c881b9bdc88185c1c1c9bdd995908199bdc88185b1b60421b60648201526084016108fc565b610a2d8383612109565b505050565b33610a3b61145b565b6001600160a01b031614610a615760405162461bcd60e51b81526004016108fc9061356e565b8051610a74906015906020840190612ea5565b5050565b610a83335b82612177565b610a9f5760405162461bcd60e51b81526004016108fc906135d4565b610a2d838383612241565b6000610ab5836112d2565b8210610b175760405162461bcd60e51b815260206004820152602b60248201527f455243373231456e756d657261626c653a206f776e657220696e646578206f7560448201526a74206f6620626f756e647360a81b60648201526084016108fc565b506001600160a01b03919091166000908152600660209081526040808320938352929052205490565b33610b4961145b565b6001600160a01b031614610b6f5760405162461bcd60e51b81526004016108fc9061356e565b8051610a7490600e906020840190612ea5565b33610b8b61145b565b6001600160a01b031614610bb15760405162461bcd60e51b81526004016108fc9061356e565b6040514790339082156108fc029083906000818181858888f19350505050158015610a74573d6000803e3d6000fd5b33610be961145b565b6001600160a01b031614610c0f5760405162461bcd60e51b81526004016108fc9061356e565b610c176123da565b565b610a2d838383604051806020016040528060008152506118c5565b610c3d33610a7d565b610ca25760405162461bcd60e51b815260206004820152603060248201527f4552433732314275726e61626c653a2063616c6c6572206973206e6f74206f7760448201526f1b995c881b9bdc88185c1c1c9bdd995960821b60648201526084016108fc565b610cab8161245d565b50565b601454610100900460ff16610cfb5760405162461bcd60e51b815260206004820152601360248201527250726553616c65206973206e6f74206c69766560681b60448201526064016108fc565b3360009081526010602052604090205460ff16610d555760405162461bcd60e51b8152602060048201526018602482015277155cd95c881b9bdd081bdb88141c9954d85b19481b1a5cdd60421b60448201526064016108fc565b610d616106818061364e565b81610d6b60085490565b610d75919061364e565b1115610db95760405162461bcd60e51b8152602060048201526013602482015272141c9954d85b19481a5cc81cdbdb19081bdd5d606a1b60448201526064016108fc565b336000908152601260209081526040808320546011909252909120546003918391610de4919061364e565b610dee919061364e565b1115610e0c5760405162461bcd60e51b81526004016108fc9061353b565b610e1e816701b4fbd92b5f800061367a565b341015610e3d5760405162461bcd60e51b81526004016108fc90613504565b60005b81811015610e8357336000908152601260205260408120805491610e638361372e565b9190505550610e71836124f2565b80610e7b8161372e565b915050610e40565b506000805160206137f08339815191528282604051610ea392919061345f565b60405180910390a15050565b6000610eba60085490565b8210610f1d5760405162461bcd60e51b815260206004820152602c60248201527f455243373231456e756d657261626c653a20676c6f62616c20696e646578206f60448201526b7574206f6620626f756e647360a01b60648201526084016108fc565b60088281548110610f3057610f3061379f565b90600052602060002001549050919050565b60145460ff16610f945760405162461bcd60e51b815260206004820152601e60248201527f4561726c792041646f707465722073616c65206973206e6f74206c697665000060448201526064016108fc565b336000908152600f602052604090205460ff16610ff35760405162461bcd60e51b815260206004820152601e60248201527f55736572206e6f74206f6e204561726c792041646f70746572206c697374000060448201526064016108fc565b6106818161100060085490565b61100a919061364e565b11156110585760405162461bcd60e51b815260206004820152601e60248201527f4561726c792041646f707465722073616c6520697320736f6c64206f7574000060448201526064016108fc565b3360009081526011602052604090205460059061107690839061364e565b11156110945760405162461bcd60e51b81526004016108fc9061353b565b6110a6816701b4fbd92b5f800061367a565b3410156110c55760405162461bcd60e51b81526004016108fc90613504565b60005b81811015610e83573360009081526011602052604081208054916110eb8361372e565b91905055506110f9836124f2565b806111038161372e565b9150506110c8565b6000818152600260205260408120546001600160a01b0316806107fc5760405162461bcd60e51b815260206004820152602960248201527f4552433732313a206f776e657220717565727920666f72206e6f6e657869737460448201526832b73a103a37b5b2b760b91b60648201526084016108fc565b3361118b61145b565b6001600160a01b0316146111b15760405162461bcd60e51b81526004016108fc9061356e565b8281146111bd57600080fd5b60005b838110156112885760008585838181106111dc576111dc61379f565b90506020020160208101906111f1919061301a565b6001600160a01b031614156112185760405162461bcd60e51b81526004016108fc906135a3565b82828281811061122a5761122a61379f565b90506020020135601360008787858181106112475761124761379f565b905060200201602081019061125c919061301a565b6001600160a01b03168152602081019190915260400160002055806112808161372e565b9150506111c0565b5050505050565b3361129861145b565b6001600160a01b0316146112be5760405162461bcd60e51b81526004016108fc9061356e565b6014805460ff19811660ff90911615179055565b60006001600160a01b03821661133d5760405162461bcd60e51b815260206004820152602a60248201527f4552433732313a2062616c616e636520717565727920666f7220746865207a65604482015269726f206164647265737360b01b60648201526084016108fc565b506001600160a01b031660009081526003602052604090205490565b3361136261145b565b6001600160a01b0316146113885760405162461bcd60e51b81526004016108fc9061356e565b610c176000612512565b3361139b61145b565b6001600160a01b0316146113c15760405162461bcd60e51b81526004016108fc9061356e565b60005b60218110156113f9576113d933600d54612564565b6113e7600d80546001019055565b806113f18161372e565b9150506113c4565b506000805160206137f083398151915233602160405161141a92919061345f565b60405180910390a1565b3361142d61145b565b6001600160a01b0316146114535760405162461bcd60e51b81526004016108fc9061356e565b610c1761257e565b600c546001600160a01b031690565b336001600160a01b037f000000000000000000000000000000000000000000000000000000000000000016146114e25760405162461bcd60e51b815260206004820152601f60248201527f4f6e6c7920565246436f6f7264696e61746f722063616e2066756c66696c6c0060448201526064016108fc565b610a7482826125f9565b606060018054610811906136f3565b6001600160a01b0382163314156115505760405162461bcd60e51b815260206004820152601960248201527822a9219b99189d1030b8383937bb32903a379031b0b63632b960391b60448201526064016108fc565b3360008181526005602090815260408083206001600160a01b03871680855290835292819020805460ff191686151590811790915590519081529192917f17307eab39ab6107e8899845ad3d59bd9653f200f220920489ca2b5937696c31910160405180910390a35050565b60145462010000900460ff166116115760405162461bcd60e51b815260206004820152601a6024820152794d696e7420706173732073616c65206973206e6f74206c69766560301b60448201526064016108fc565b336000908152601360205260409020546116785760405162461bcd60e51b815260206004820152602260248201527f5573657220646f6573206e6f7420686176652076616c6964206d696e74207061604482015261737360f01b60648201526084016108fc565b61091b6116876106818061364e565b611691919061364e565b8161169b60085490565b6116a5919061364e565b11156116f05760405162461bcd60e51b815260206004820152601a602482015279135a5b9d081c185cdcc81cd85b19481a5cc81cdbdb19081bdd5d60321b60448201526064016108fc565b611702816701b4fbd92b5f800061367a565b3410156117215760405162461bcd60e51b81526004016108fc90613504565b60005b81811015610e8357336000908152601360205260409020546117825760405162461bcd60e51b8152602060048201526017602482015276139bc81b5a5b9d081c185cdcc81b5a5b9d1cc81b19599d604a1b60448201526064016108fc565b33600090815260136020526040812080549161179d836136dc565b91905055506117ab836124f2565b806117b58161372e565b915050611724565b611e61816117ca60085490565b6117d4919061364e565b11156118205760405162461bcd60e51b815260206004820152601b60248201527a50757263686173652065786365656473206d617820737570706c7960281b60448201526064016108fc565b600381111561186e5760405162461bcd60e51b815260206004820152601a6024820152794f726465722065786365656473206d6178207175616e7469747960301b60448201526064016108fc565b611880816701b4fbd92b5f800061367a565b34101561189f5760405162461bcd60e51b81526004016108fc90613504565b60005b81811015610e83576118b3836124f2565b806118bd8161372e565b9150506118a2565b6118cf3383612177565b6118eb5760405162461bcd60e51b81526004016108fc906135d4565b6118f784848484612656565b50505050565b6015805461190a906136f3565b80601f0160208091040260200160405190810160405280929190818152602001828054611936906136f3565b80156119835780601f1061195857610100808354040283529160200191611983565b820191906000526020600020905b81548152906001019060200180831161196657829003601f168201915b505050505081565b6060611996826120ec565b6119fb5760405162461bcd60e51b815260206004820152603060248201527f4552433732314d657461646174613a2055524920717565727920666f72206e6f60448201526f3732bc34b9ba32b73a103a37b5b2b71760811b60648201526084016108fc565b6000600e8054611a0a906136f3565b905011611a2657604051806020016040528060008152506107fc565b600e611a3183612689565b604051602001611a42929190613367565b60405160208183030381529060405292915050565b33611a6061145b565b6001600160a01b031614611a865760405162461bcd60e51b81526004016108fc9061356e565b6014805461ff001981166101009182900460ff1615909102179055565b33611aac61145b565b6001600160a01b031614611ad25760405162461bcd60e51b81526004016108fc9061356e565b60005b81811015610a2d576000838383818110611af157611af161379f565b9050602002016020810190611b06919061301a565b6001600160a01b03161415611b2d5760405162461bcd60e51b81526004016108fc906135a3565b60106000848484818110611b4357611b4361379f565b9050602002016020810190611b58919061301a565b6001600160a01b0316815260208101919091526040016000205460ff1615611b925760405162461bcd60e51b81526004016108fc90613625565b600160106000858585818110611baa57611baa61379f565b9050602002016020810190611bbf919061301a565b6001600160a01b031681526020810191909152604001600020805460ff191691151591909117905580611bf18161372e565b915050611ad5565b33611c0261145b565b6001600160a01b031614611c285760405162461bcd60e51b81526004016108fc9061356e565b6014805462ff0000198116620100009182900460ff1615909102179055565b6001600160a01b03918216600090815260056020908152604080832093909416825291909152205460ff1690565b60008060158054611c85906136f3565b80601f0160208091040260200160405190810160405280929190818152602001828054611cb1906136f3565b8015611cfe5780601f10611cd357610100808354040283529160200191611cfe565b820191906000526020600020905b815481529060010190602001808311611ce157829003601f168201915b505050505090506000815111611d545760405162461bcd60e51b815260206004820152601b60248201527a09ccacac840e8de40e6cae840e0e4deeccadcc2dcc6ca40d0c2e6d602b1b60448201526064016108fc565b60165415611da45760405162461bcd60e51b815260206004820152601d60248201527f5374617274696e6720696e64657820697320616c72656164792073657400000060448201526064016108fc565b6018546040516370a0823160e01b81526001600160a01b037f000000000000000000000000000000000000000000000000000000000000000016906370a0823190611df390309060040161340e565b60206040518083038186803b158015611e0b57600080fd5b505afa158015611e1f573d6000803e3d6000fd5b505050506040513d601f19601f82011682018060405250810190611e439190613306565b1015611e835760405162461bcd60e51b815260206004820152600f60248201526e4e6f7420656e6f756768204c494e4b60881b60448201526064016108fc565b6000611e93601754601854612786565b90507fe5f5b44d72d4143c278eb745c4acc0695c4a5bc616be5beecf46abe29661780e81604051611ec691815260200190565b60405180910390a192915050565b33611edd61145b565b6001600160a01b031614611f035760405162461bcd60e51b81526004016108fc9061356e565b6001600160a01b038116611f685760405162461bcd60e51b815260206004820152602660248201527f4f776e61626c653a206e6577206f776e657220697320746865207a65726f206160448201526564647265737360d01b60648201526084016108fc565b610cab81612512565b33611f7a61145b565b6001600160a01b031614611fa05760405162461bcd60e51b81526004016108fc9061356e565b60005b81811015610a2d576000838383818110611fbf57611fbf61379f565b9050602002016020810190611fd4919061301a565b6001600160a01b03161415611ffb5760405162461bcd60e51b81526004016108fc906135a3565b600f60008484848181106120115761201161379f565b9050602002016020810190612026919061301a565b6001600160a01b0316815260208101919091526040016000205460ff16156120605760405162461bcd60e51b81526004016108fc90613625565b6001600f60008585858181106120785761207861379f565b905060200201602081019061208d919061301a565b6001600160a01b031681526020810191909152604001600020805460ff1916911515919091179055806120bf8161372e565b915050611fa3565b60006001600160e01b0319821663780e9d6360e01b14806107fc57506107fc82612911565b6000908152600260205260409020546001600160a01b0316151590565b600081815260046020526040902080546001600160a01b0319166001600160a01b038416908117909155819061213e8261110b565b6001600160a01b03167f8c5be1e5ebec7d5bd14f71427d1e84f3dd0314c0f7b2291e5b200ac8c7c3b92560405160405180910390a45050565b6000612182826120ec565b6121e35760405162461bcd60e51b815260206004820152602c60248201527f4552433732313a206f70657261746f7220717565727920666f72206e6f6e657860448201526b34b9ba32b73a103a37b5b2b760a11b60648201526084016108fc565b60006121ee8361110b565b9050806001600160a01b0316846001600160a01b031614806122295750836001600160a01b031661221e84610894565b6001600160a01b0316145b8061223957506122398185611c47565b949350505050565b826001600160a01b03166122548261110b565b6001600160a01b0316146122bc5760405162461bcd60e51b815260206004820152602960248201527f4552433732313a207472616e73666572206f6620746f6b656e2074686174206960448201526839903737ba1037bbb760b91b60648201526084016108fc565b6001600160a01b03821661231e5760405162461bcd60e51b8152602060048201526024808201527f4552433732313a207472616e7366657220746f20746865207a65726f206164646044820152637265737360e01b60648201526084016108fc565b612329838383612961565b612334600082612109565b6001600160a01b038316600090815260036020526040812080546001929061235d908490613699565b90915550506001600160a01b038216600090815260036020526040812080546001929061238b90849061364e565b909155505060008181526002602052604080822080546001600160a01b0319166001600160a01b03868116918217909255915184939187169160008051602061381083398151915291a4505050565b600a5460ff166124235760405162461bcd60e51b815260206004820152601460248201527314185d5cd8589b194e881b9bdd081c185d5cd95960621b60448201526064016108fc565b600a805460ff191690557f5db9ee0a495bf2e6ff9c91a7834c1ba4fdd244a5e8aa4e537bd38aeae4b073aa335b60405161141a919061340e565b60006124688261110b565b905061247681600084612961565b612481600083612109565b6001600160a01b03811660009081526003602052604081208054600192906124aa908490613699565b909155505060008281526002602052604080822080546001600160a01b0319169055518391906001600160a01b03841690600080516020613810833981519152908390a45050565b612500600d80546001019055565b610cab8161250d600d5490565b61296c565b600c80546001600160a01b038381166001600160a01b0319831681179093556040519116919082907f8be0079c531659141344cd1fd0a4f28419497f9722a3daafe3b4186f6b6457e090600090a35050565b610a74828260405180602001604052806000815250612a98565b600a5460ff16156125c45760405162461bcd60e51b815260206004820152601060248201526f14185d5cd8589b194e881c185d5cd95960821b60448201526064016108fc565b600a805460ff191660011790557f62e78cea01bee320cd4e420270b5ea74000d11b0c9f74754ebdbfc544b05a2586124503390565b612605611e6182613749565b60168190556126205760165461261c906001612acb565b6016555b60408051838152602081018390527fa0562a0d65ac91c22f0819742210c3d20adb1237260606aef60af9717484950d9101610ea3565b612661848484612241565b61266d84848484612ade565b6118f75760405162461bcd60e51b81526004016108fc906134b2565b6060816126ad5750506040805180820190915260018152600360fc1b602082015290565b8160005b81156126d757806126c18161372e565b91506126d09050600a83613666565b91506126b1565b6000816001600160401b038111156126f1576126f16137b5565b6040519080825280601f01601f19166020018201604052801561271b576020820181803683370190505b5090505b841561223957612730600183613699565b915061273d600a86613749565b61274890603061364e565b60f81b81838151811061275d5761275d61379f565b60200101906001600160f81b031916908160001a90535061277f600a86613666565b945061271f565b60007f00000000000000000000000000000000000000000000000000000000000000006001600160a01b0316634000aea07f0000000000000000000000000000000000000000000000000000000000000000848660006040516020016127f6929190918252602082015260400190565b6040516020818303038152906040526040518463ffffffff1660e01b815260040161282393929190613478565b602060405180830381600087803b15801561283d57600080fd5b505af1158015612851573d6000803e3d6000fd5b505050506040513d601f19601f82011682018060405250810190612875919061322c565b506000838152600b6020818152604080842054815180840189905280830186905230606082015260808082018390528351808303909101815260a0909101909252815191830191909120938790529190526128d190600161364e565b6000858152600b60205260409020556122398482604080516020808201949094528082019290925280518083038201815260609092019052805191012090565b60006001600160e01b031982166380ac58cd60e01b148061294257506001600160e01b03198216635b5e139f60e01b145b806107fc57506301ffc9a760e01b6001600160e01b03198316146107fc565b610a2d838383612beb565b6001600160a01b0382166129c25760405162461bcd60e51b815260206004820181905260248201527f4552433732313a206d696e7420746f20746865207a65726f206164647265737360448201526064016108fc565b6129cb816120ec565b15612a175760405162461bcd60e51b815260206004820152601c60248201527b115490cdcc8c4e881d1bdad95b88185b1c9958591e481b5a5b9d195960221b60448201526064016108fc565b612a2360008383612961565b6001600160a01b0382166000908152600360205260408120805460019290612a4c90849061364e565b909155505060008181526002602052604080822080546001600160a01b0319166001600160a01b0386169081179091559051839290600080516020613810833981519152908290a45050565b612aa2838361296c565b612aaf6000848484612ade565b610a2d5760405162461bcd60e51b81526004016108fc906134b2565b6000612ad7828461364e565b9392505050565b60006001600160a01b0384163b15612be057604051630a85bd0160e11b81526001600160a01b0385169063150b7a0290612b22903390899088908890600401613422565b602060405180830381600087803b158015612b3c57600080fd5b505af1925050508015612b6c575060408051601f3d908101601f19168201909252612b6991810190613288565b60015b612bc6573d808015612b9a576040519150601f19603f3d011682016040523d82523d6000602084013e612b9f565b606091505b508051612bbe5760405162461bcd60e51b81526004016108fc906134b2565b805181602001fd5b6001600160e01b031916630a85bd0160e11b149050612239565b506001949350505050565b612bf6838383612c5d565b600a5460ff1615610a2d5760405162461bcd60e51b815260206004820152602b60248201527f4552433732315061757361626c653a20746f6b656e207472616e73666572207760448201526a1a1a5b19481c185d5cd95960aa1b60648201526084016108fc565b6001600160a01b038316612cb857612cb381600880546000838152600960205260408120829055600182018355919091527ff3f7a9fe364faab93b216da50a3214154f22a0a2b415b23a84c8169e8b636ee30155565b612cdb565b816001600160a01b0316836001600160a01b031614612cdb57612cdb8382612d15565b6001600160a01b038216612cf257610a2d81612db2565b826001600160a01b0316826001600160a01b031614610a2d57610a2d8282612e61565b60006001612d22846112d2565b612d2c9190613699565b600083815260076020526040902054909150808214612d7f576001600160a01b03841660009081526006602090815260408083208584528252808320548484528184208190558352600790915290208190555b5060009182526007602090815260408084208490556001600160a01b039094168352600681528383209183525290812055565b600854600090612dc490600190613699565b60008381526009602052604081205460088054939450909284908110612dec57612dec61379f565b906000526020600020015490508060088381548110612e0d57612e0d61379f565b6000918252602080832090910192909255828152600990915260408082208490558582528120556008805480612e4557612e45613789565b6001900381819060005260206000200160009055905550505050565b6000612e6c836112d2565b6001600160a01b039093166000908152600660209081526040808320868452825280832085905593825260079052919091209190915550565b828054612eb1906136f3565b90600052602060002090601f016020900481019282612ed35760008555612f19565b82601f10612eec57805160ff1916838001178555612f19565b82800160010185558215612f19579182015b82811115612f19578251825591602001919060010190612efe565b50612f25929150612f29565b5090565b5b80821115612f255760008155600101612f2a565b60006001600160401b0380841115612f5857612f586137b5565b604051601f8501601f19908116603f01168101908282118183101715612f8057612f806137b5565b81604052809350858152868686011115612f9957600080fd5b858560208301376000602087830101525050509392505050565b80356001600160a01b0381168114612fca57600080fd5b919050565b60008083601f840112612fe157600080fd5b5081356001600160401b03811115612ff857600080fd5b6020830191508360208260051b850101111561301357600080fd5b9250929050565b60006020828403121561302c57600080fd5b612ad782612fb3565b6000806040838503121561304857600080fd5b61305183612fb3565b915061305f60208401612fb3565b90509250929050565b60008060006060848603121561307d57600080fd5b61308684612fb3565b925061309460208501612fb3565b9150604084013590509250925092565b600080600080608085870312156130ba57600080fd5b6130c385612fb3565b93506130d160208601612fb3565b92506040850135915060608501356001600160401b038111156130f357600080fd5b8501601f8101871361310457600080fd5b61311387823560208401612f3e565b91505092959194509250565b6000806040838503121561313257600080fd5b61313b83612fb3565b9150602083013561314b816137cb565b809150509250929050565b6000806040838503121561316957600080fd5b61317283612fb3565b946020939093013593505050565b6000806020838503121561319357600080fd5b82356001600160401b038111156131a957600080fd5b6131b585828601612fcf565b90969095509350505050565b600080600080604085870312156131d757600080fd5b84356001600160401b03808211156131ee57600080fd5b6131fa88838901612fcf565b9096509450602087013591508082111561321357600080fd5b5061322087828801612fcf565b95989497509550505050565b60006020828403121561323e57600080fd5b8151612ad7816137cb565b6000806040838503121561325c57600080fd5b50508035926020909101359150565b60006020828403121561327d57600080fd5b8135612ad7816137d9565b60006020828403121561329a57600080fd5b8151612ad7816137d9565b6000602082840312156132b757600080fd5b81356001600160401b038111156132cd57600080fd5b8201601f810184136132de57600080fd5b61223984823560208401612f3e565b6000602082840312156132ff57600080fd5b5035919050565b60006020828403121561331857600080fd5b5051919050565b600081518084526133378160208601602086016136b0565b601f01601f19169290920160200192915050565b6000815161335d8185602086016136b0565b9290920192915050565b600080845481600182811c91508083168061338357607f831692505b60208084108214156133a357634e487b7160e01b86526022600452602486fd5b8180156133b757600181146133c8576133f5565b60ff198616895284890196506133f5565b60008b81526020902060005b868110156133ed5781548b8201529085019083016133d4565b505084890196505b505050505050613405818561334b565b95945050505050565b6001600160a01b0391909116815260200190565b6001600160a01b03858116825284166020820152604081018390526080606082018190526000906134559083018461331f565b9695505050505050565b6001600160a01b03929092168252602082015260400190565b60018060a01b0384168152826020820152606060408201526000613405606083018461331f565b602081526000612ad7602083018461331f565b60208082526032908201527f4552433732313a207472616e7366657220746f206e6f6e20455243373231526560408201527131b2b4bb32b91034b6b83632b6b2b73a32b960711b606082015260800190565b6020808252601f908201527f45746865722076616c75652073656e74206973206e6f7420636f727265637400604082015260600190565b602080825260199082015278131a5b5a5d081c195c881dd85b1b195d08195e18d959591959603a1b604082015260600190565b6020808252818101527f4f776e61626c653a2063616c6c6572206973206e6f7420746865206f776e6572604082015260600190565b60208082526017908201527643616e6e6f7420616464206e756c6c206164647265737360481b604082015260600190565b60208082526031908201527f4552433732313a207472616e736665722063616c6c6572206973206e6f74206f6040820152701ddb995c881b9bdc88185c1c1c9bdd9959607a1b606082015260800190565b6020808252600f908201526e4475706c696361746520656e74727960881b604082015260600190565b600082198211156136615761366161375d565b500190565b60008261367557613675613773565b500490565b60008160001904831182151516156136945761369461375d565b500290565b6000828210156136ab576136ab61375d565b500390565b60005b838110156136cb5781810151838201526020016136b3565b838111156118f75750506000910152565b6000816136eb576136eb61375d565b506000190190565b600181811c9082168061370757607f821691505b6020821081141561372857634e487b7160e01b600052602260045260246000fd5b50919050565b60006000198214156137425761374261375d565b5060010190565b60008261375857613758613773565b500690565b634e487b7160e01b600052601160045260246000fd5b634e487b7160e01b600052601260045260246000fd5b634e487b7160e01b600052603160045260246000fd5b634e487b7160e01b600052603260045260246000fd5b634e487b7160e01b600052604160045260246000fd5b8015158114610cab57600080fd5b6001600160e01b031981168114610cab57600080fdfe48ab551616fa96d8766a4795180ef0312e24b226fc48f24d0bef6494b31d9df7ddf252ad1be2c89b69c2b068fc378daa952ba7f163c4a11628f55a4df523b3efa26469706673582212205aa5ceb4511cb03ef2f71f4600b493d3d32806e5b9ea0b36bb5a41740c85792664736f6c63430008070033",
  "linkReferences": {},
  "deployedLinkReferences": {}
}